{
  "_format": "hh-sol-artifact-1",
  "contractName": "ConnectedWallets",
  "sourceName": "contracts/ConnectedWallets.sol",
  "abi": [
    {
      "inputs": [
        {
          "internalType": "contract IVerifier",
          "name": "_verifier",
          "type": "address"
        }
      ],
      "stateMutability": "nonpayable",
      "type": "constructor"
    },
    {
      "inputs": [],
      "name": "AccountAlreadyActive",
      "type": "error"
    },
    {
      "inputs": [],
      "name": "AccountAlreadyExists",
      "type": "error"
    },
    {
      "inputs": [],
      "name": "CommitmentMismatch",
      "type": "error"
    },
    {
      "inputs": [],
      "name": "EarlyPaymentNotAllowed",
      "type": "error"
    },
    {
      "inputs": [],
      "name": "FunctionNotSupported",
      "type": "error"
    },
    {
      "inputs": [],
      "name": "InactiveAccount",
      "type": "error"
    },
    {
      "inputs": [],
      "name": "InvalidProof",
      "type": "error"
    },
    {
      "inputs": [],
      "name": "NotEnoughAccountBalance",
      "type": "error"
    },
    {
      "inputs": [],
      "name": "NotEnoughValue",
      "type": "error"
    },
    {
      "inputs": [],
      "name": "NotEthAccount",
      "type": "error"
    },
    {
      "inputs": [],
      "name": "NotTokenAccount",
      "type": "error"
    },
    {
      "inputs": [],
      "name": "OnlyAccountOwner",
      "type": "error"
    },
    {
      "inputs": [],
      "name": "OnlyOwner",
      "type": "error"
    },
    {
      "inputs": [],
      "name": "OnlyRelatedPartiesCanCancel",
      "type": "error"
    },
    {
      "inputs": [],
      "name": "PaymentIntentExpired",
      "type": "error"
    },
    {
      "inputs": [],
      "name": "PaymentIntentNullified",
      "type": "error"
    },
    {
      "inputs": [],
      "name": "PaymentNotAuthorized",
      "type": "error"
    },
    {
      "inputs": [],
      "name": "WalletAlreadyConnected",
      "type": "error"
    },
    {
      "inputs": [],
      "name": "ZeroAddressConnected",
      "type": "error"
    },
    {
      "inputs": [],
      "name": "ZeroTopup",
      "type": "error"
    },
    {
      "anonymous": false,
      "inputs": [
        {
          "indexed": true,
          "internalType": "bytes32",
          "name": "commitment",
          "type": "bytes32"
        }
      ],
      "name": "AccountClosed",
      "type": "event"
    },
    {
      "anonymous": false,
      "inputs": [
        {
          "indexed": true,
          "internalType": "bytes32",
          "name": "commitment",
          "type": "bytes32"
        },
        {
          "indexed": false,
          "internalType": "address",
          "name": "payee",
          "type": "address"
        },
        {
          "indexed": false,
          "internalType": "uint256",
          "name": "payment",
          "type": "uint256"
        }
      ],
      "name": "AccountDebited",
      "type": "event"
    },
    {
      "anonymous": false,
      "inputs": [
        {
          "indexed": true,
          "internalType": "bytes32",
          "name": "commitment",
          "type": "bytes32"
        },
        {
          "indexed": false,
          "internalType": "address",
          "name": "depositFor",
          "type": "address"
        },
        {
          "indexed": false,
          "internalType": "uint256",
          "name": "balance",
          "type": "uint256"
        }
      ],
      "name": "NewEthAccount",
      "type": "event"
    },
    {
      "anonymous": false,
      "inputs": [
        {
          "indexed": true,
          "internalType": "bytes32",
          "name": "commitment",
          "type": "bytes32"
        },
        {
          "indexed": false,
          "internalType": "address",
          "name": "depositFor",
          "type": "address"
        },
        {
          "indexed": false,
          "internalType": "uint256",
          "name": "amount",
          "type": "uint256"
        },
        {
          "indexed": false,
          "internalType": "address",
          "name": "token",
          "type": "address"
        }
      ],
      "name": "NewTokenAccount",
      "type": "event"
    },
    {
      "anonymous": false,
      "inputs": [
        {
          "indexed": true,
          "internalType": "bytes32",
          "name": "commitment",
          "type": "bytes32"
        },
        {
          "indexed": true,
          "internalType": "address",
          "name": "creator",
          "type": "address"
        },
        {
          "indexed": true,
          "internalType": "address",
          "name": "token",
          "type": "address"
        }
      ],
      "name": "NewWalletConnected",
      "type": "event"
    },
    {
      "anonymous": false,
      "inputs": [
        {
          "indexed": false,
          "internalType": "address",
          "name": "account",
          "type": "address"
        }
      ],
      "name": "Paused",
      "type": "event"
    },
    {
      "anonymous": false,
      "inputs": [
        {
          "indexed": true,
          "internalType": "bytes32",
          "name": "commitment",
          "type": "bytes32"
        },
        {
          "indexed": true,
          "internalType": "bytes32",
          "name": "paymentIntent",
          "type": "bytes32"
        },
        {
          "indexed": false,
          "internalType": "address",
          "name": "payee",
          "type": "address"
        }
      ],
      "name": "PaymentIntentCancelled",
      "type": "event"
    },
    {
      "anonymous": false,
      "inputs": [
        {
          "indexed": true,
          "internalType": "bytes32",
          "name": "commitment",
          "type": "bytes32"
        },
        {
          "indexed": false,
          "internalType": "uint256",
          "name": "balance",
          "type": "uint256"
        }
      ],
      "name": "TopUpETH",
      "type": "event"
    },
    {
      "anonymous": false,
      "inputs": [
        {
          "indexed": true,
          "internalType": "bytes32",
          "name": "commitment",
          "type": "bytes32"
        },
        {
          "indexed": false,
          "internalType": "uint256",
          "name": "amount",
          "type": "uint256"
        },
        {
          "indexed": false,
          "internalType": "address",
          "name": "token",
          "type": "address"
        }
      ],
      "name": "TopUpToken",
      "type": "event"
    },
    {
      "anonymous": false,
      "inputs": [
        {
          "indexed": false,
          "internalType": "address",
          "name": "account",
          "type": "address"
        }
      ],
      "name": "Unpaused",
      "type": "event"
    },
    {
      "inputs": [],
      "name": "_owner",
      "outputs": [
        {
          "internalType": "address payable",
          "name": "",
          "type": "address"
        }
      ],
      "stateMutability": "view",
      "type": "function"
    },
    {
      "inputs": [
        {
          "internalType": "address",
          "name": "",
          "type": "address"
        }
      ],
      "name": "accountCounter",
      "outputs": [
        {
          "internalType": "uint256",
          "name": "",
          "type": "uint256"
        }
      ],
      "stateMutability": "view",
      "type": "function"
    },
    {
      "inputs": [
        {
          "internalType": "bytes32",
          "name": "",
          "type": "bytes32"
        }
      ],
      "name": "accounts",
      "outputs": [
        {
          "internalType": "bool",
          "name": "active",
          "type": "bool"
        },
        {
          "internalType": "address",
          "name": "creator",
          "type": "address"
        },
        {
          "internalType": "contract IERC20",
          "name": "token",
          "type": "address"
        },
        {
          "internalType": "uint256",
          "name": "balance",
          "type": "uint256"
        }
      ],
      "stateMutability": "view",
      "type": "function"
    },
    {
      "inputs": [
        {
          "internalType": "uint256",
          "name": "amount",
          "type": "uint256"
        }
      ],
      "name": "calculateFee",
      "outputs": [
        {
          "internalType": "uint256",
          "name": "ownerFee",
          "type": "uint256"
        },
        {
          "internalType": "uint256",
          "name": "payment",
          "type": "uint256"
        }
      ],
      "stateMutability": "view",
      "type": "function"
    },
    {
      "inputs": [
        {
          "internalType": "uint256[8]",
          "name": "proof",
          "type": "uint256[8]"
        },
        {
          "internalType": "bytes32[2]",
          "name": "hashes",
          "type": "bytes32[2]"
        },
        {
          "internalType": "address",
          "name": "payee",
          "type": "address"
        },
        {
          "internalType": "uint256[4]",
          "name": "debit",
          "type": "uint256[4]"
        }
      ],
      "name": "cancelPaymentIntent",
      "outputs": [],
      "stateMutability": "nonpayable",
      "type": "function"
    },
    {
      "inputs": [
        {
          "internalType": "address",
          "name": "",
          "type": "address"
        },
        {
          "internalType": "uint256",
          "name": "",
          "type": "uint256"
        }
      ],
      "name": "commitments",
      "outputs": [
        {
          "internalType": "bytes32",
          "name": "",
          "type": "bytes32"
        }
      ],
      "stateMutability": "view",
      "type": "function"
    },
    {
      "inputs": [
        {
          "internalType": "bytes32",
          "name": "_commitment",
          "type": "bytes32"
        },
        {
          "internalType": "address",
          "name": "token",
          "type": "address"
        },
        {
          "internalType": "string",
          "name": "encryptedNote",
          "type": "string"
        }
      ],
      "name": "connectWallet",
      "outputs": [],
      "stateMutability": "nonpayable",
      "type": "function"
    },
    {
      "inputs": [
        {
          "internalType": "bytes32",
          "name": "",
          "type": "bytes32"
        }
      ],
      "name": "connectedWalletAlready",
      "outputs": [
        {
          "internalType": "bool",
          "name": "",
          "type": "bool"
        }
      ],
      "stateMutability": "view",
      "type": "function"
    },
    {
      "inputs": [
        {
          "internalType": "uint256[8]",
          "name": "proof",
          "type": "uint256[8]"
        },
        {
          "internalType": "bytes32[2]",
          "name": "hashes",
          "type": "bytes32[2]"
        },
        {
          "internalType": "address",
          "name": "payee",
          "type": "address"
        },
        {
          "internalType": "uint256[4]",
          "name": "debit",
          "type": "uint256[4]"
        }
      ],
      "name": "directdebit",
      "outputs": [],
      "stateMutability": "nonpayable",
      "type": "function"
    },
    {
      "inputs": [
        {
          "internalType": "bytes32",
          "name": "commitment",
          "type": "bytes32"
        }
      ],
      "name": "disconnectWallet",
      "outputs": [],
      "stateMutability": "nonpayable",
      "type": "function"
    },
    {
      "inputs": [
        {
          "internalType": "bytes32",
          "name": "",
          "type": "bytes32"
        }
      ],
      "name": "encryptedNotes",
      "outputs": [
        {
          "internalType": "string",
          "name": "",
          "type": "string"
        }
      ],
      "stateMutability": "view",
      "type": "function"
    },
    {
      "inputs": [
        {
          "internalType": "bytes32",
          "name": "commitment",
          "type": "bytes32"
        }
      ],
      "name": "getAccount",
      "outputs": [
        {
          "components": [
            {
              "internalType": "bool",
              "name": "active",
              "type": "bool"
            },
            {
              "internalType": "address",
              "name": "creator",
              "type": "address"
            },
            {
              "internalType": "contract IERC20",
              "name": "token",
              "type": "address"
            },
            {
              "internalType": "uint256",
              "name": "balance",
              "type": "uint256"
            }
          ],
          "internalType": "struct AccountData",
          "name": "",
          "type": "tuple"
        }
      ],
      "stateMutability": "view",
      "type": "function"
    },
    {
      "inputs": [
        {
          "internalType": "address",
          "name": "_creator",
          "type": "address"
        },
        {
          "internalType": "address",
          "name": "_token",
          "type": "address"
        }
      ],
      "name": "getHashByAddresses",
      "outputs": [
        {
          "internalType": "bytes32",
          "name": "",
          "type": "bytes32"
        }
      ],
      "stateMutability": "pure",
      "type": "function"
    },
    {
      "inputs": [],
      "name": "ownerFeeDivider",
      "outputs": [
        {
          "internalType": "uint256",
          "name": "",
          "type": "uint256"
        }
      ],
      "stateMutability": "view",
      "type": "function"
    },
    {
      "inputs": [],
      "name": "paused",
      "outputs": [
        {
          "internalType": "bool",
          "name": "",
          "type": "bool"
        }
      ],
      "stateMutability": "view",
      "type": "function"
    },
    {
      "inputs": [
        {
          "internalType": "bytes32",
          "name": "",
          "type": "bytes32"
        }
      ],
      "name": "paymentIntents",
      "outputs": [
        {
          "internalType": "bool",
          "name": "isNullified",
          "type": "bool"
        },
        {
          "internalType": "uint256",
          "name": "withdrawalCount",
          "type": "uint256"
        },
        {
          "internalType": "uint256",
          "name": "lastDate",
          "type": "uint256"
        }
      ],
      "stateMutability": "view",
      "type": "function"
    },
    {
      "inputs": [],
      "name": "togglePause",
      "outputs": [],
      "stateMutability": "nonpayable",
      "type": "function"
    },
    {
      "inputs": [
        {
          "internalType": "uint256",
          "name": "newFeeDivider",
          "type": "uint256"
        }
      ],
      "name": "updateFee",
      "outputs": [],
      "stateMutability": "nonpayable",
      "type": "function"
    },
    {
      "inputs": [],
      "name": "verifier",
      "outputs": [
        {
          "internalType": "contract IVerifier",
          "name": "",
          "type": "address"
        }
      ],
      "stateMutability": "view",
      "type": "function"
    }
  ],
  "bytecode": "0x60a060405260646002553480156200001657600080fd5b5060405162003a2238038062003a2283398181016040528101906200003c9190620000f6565b8060016000819055506000600160006101000a81548160ff0219169083151502179055508073ffffffffffffffffffffffffffffffffffffffff1660808173ffffffffffffffffffffffffffffffffffffffff1660601b81525050336001806101000a81548173ffffffffffffffffffffffffffffffffffffffff021916908373ffffffffffffffffffffffffffffffffffffffff160217905550505062000184565b600081519050620000f0816200016a565b92915050565b6000602082840312156200010957600080fd5b60006200011984828501620000df565b91505092915050565b60006200012f826200014a565b9050919050565b6000620001438262000122565b9050919050565b600073ffffffffffffffffffffffffffffffffffffffff82169050919050565b620001758162000136565b81146200018157600080fd5b50565b60805160601c613878620001aa600039600081816106d20152611dcb01526138786000f3fe608060405234801561001057600080fd5b50600436106101215760003560e01c80635c975abb116100ad578063bc529c4311610071578063bc529c431461031b578063c4ae31681461034e578063cc8887f114610358578063d1de501114610388578063fb60c31a146103b857610121565b80635c975abb146102625780639012c4a81461028057806399a5d7471461029c57806399ca856c146102cd578063b2bdfa7b146102fd57610121565b80632b7ac3f3116100f45780632b7ac3f3146101ac5780632da72069146101ca5780633281a712146101fa578063344649221461022a57806354bc39581461024657610121565b8063094b4b6d1461012657806314107a9414610144578063209fe783146101745780632a28c26814610190575b600080fd5b61012e6103ea565b60405161013b91906132a7565b60405180910390f35b61015e60048036038101906101599190612ad4565b6103f0565b60405161016b91906131aa565b60405180910390f35b61018e60048036038101906101899190612ad4565b610490565b005b6101aa60048036038101906101a59190612a44565b61069b565b005b6101b46106d0565b6040516101c1919061318f565b60405180910390f35b6101e460048036038101906101df9190612ad4565b6106f4565b6040516101f191906130dd565b60405180910390f35b610214600480360381019061020f91906129cc565b610714565b6040516102219190613174565b60405180910390f35b610244600480360381019061023f9190612a44565b610747565b005b610260600480360381019061025b9190612afd565b6109c4565b005b61026a610e0d565b60405161027791906130dd565b60405180910390f35b61029a60048036038101906102959190612b69565b610e24565b005b6102b660048036038101906102b19190612b69565b610eb3565b6040516102c49291906132c2565b60405180910390f35b6102e760048036038101906102e29190612a08565b610ee7565b6040516102f49190613174565b60405180910390f35b610305610f0c565b6040516103129190612ff2565b60405180910390f35b61033560048036038101906103309190612ad4565b610f30565b60405161034594939291906130f8565b60405180910390f35b610356610fad565b005b610372600480360381019061036d91906129a3565b611057565b60405161037f91906132a7565b60405180910390f35b6103a2600480360381019061039d9190612ad4565b61106f565b6040516103af919061328c565b60405180910390f35b6103d260048036038101906103cd9190612ad4565b611377565b6040516103e19392919061313d565b60405180910390f35b60025481565b6007602052806000526040600020600091509050805461040f906135a3565b80601f016020809104026020016040519081016040528092919081815260200182805461043b906135a3565b80156104885780601f1061045d57610100808354040283529160200191610488565b820191906000526020600020905b81548152906001019060200180831161046b57829003601f168201915b505050505081565b6104986113ae565b6006600082815260200190815260200160002060000160009054906101000a900460ff166104f2576040517f2be530bc00000000000000000000000000000000000000000000000000000000815260040160405180910390fd5b6006600082815260200190815260200160002060000160019054906101000a900473ffffffffffffffffffffffffffffffffffffffff1673ffffffffffffffffffffffffffffffffffffffff163373ffffffffffffffffffffffffffffffffffffffff161461058d576040517f244e5fa600000000000000000000000000000000000000000000000000000000815260040160405180910390fd5b60006006600083815260200190815260200160002060000160006101000a81548160ff02191690831515021790555060006106346006600084815260200190815260200160002060000160019054906101000a900473ffffffffffffffffffffffffffffffffffffffff166006600085815260200190815260200160002060010160009054906101000a900473ffffffffffffffffffffffffffffffffffffffff16610714565b905060006008600083815260200190815260200160002060006101000a81548160ff021916908315150217905550817f871b627720fc9f3ba5602fde62d03058c14f7aaae66723d46303769c253632f860405160405180910390a2506106986113fe565b50565b6106a36113ae565b6106ab611408565b6106b784848484611452565b6106c2838383611a23565b6106ca6113fe565b50505050565b7f000000000000000000000000000000000000000000000000000000000000000081565b60086020528060005260406000206000915054906101000a900460ff1681565b60008282604051602001610729929190612f94565b60405160208183030381529060405280519060200120905092915050565b61075384848484611dc7565b610789576040517f09bde33900000000000000000000000000000000000000000000000000000000815260040160405180910390fd5b60066000846001600281106107c7577f4e487b7100000000000000000000000000000000000000000000000000000000600052603260045260246000fd5b6020020135815260200190815260200160002060000160019054906101000a900473ffffffffffffffffffffffffffffffffffffffff1673ffffffffffffffffffffffffffffffffffffffff163373ffffffffffffffffffffffffffffffffffffffff161415801561086557508173ffffffffffffffffffffffffffffffffffffffff163373ffffffffffffffffffffffffffffffffffffffff1614155b1561089c576040517feff06b9d00000000000000000000000000000000000000000000000000000000815260040160405180910390fd5b600160056000856000600281106108dc577f4e487b7100000000000000000000000000000000000000000000000000000000600052603260045260246000fd5b6020020135815260200190815260200160002060000160006101000a81548160ff02191690831515021790555082600060028110610943577f4e487b7100000000000000000000000000000000000000000000000000000000600052603260045260246000fd5b602002013583600160028110610982577f4e487b7100000000000000000000000000000000000000000000000000000000600052603260045260246000fd5b60200201357f712cb0bffbe0011ec1e8ed62fc42ebf28ffee192ea00fea0c42565b3239504ad846040516109b69190612fd7565b60405180910390a350505050565b6109cc6113ae565b6006600085815260200190815260200160002060000160009054906101000a900460ff1615610a27576040517fbfd7b1b100000000000000000000000000000000000000000000000000000000815260040160405180910390fd5b600073ffffffffffffffffffffffffffffffffffffffff166006600086815260200190815260200160002060000160019054906101000a900473ffffffffffffffffffffffffffffffffffffffff1673ffffffffffffffffffffffffffffffffffffffff1614610ac3576040517f69783db700000000000000000000000000000000000000000000000000000000815260040160405180910390fd5b600073ffffffffffffffffffffffffffffffffffffffff168373ffffffffffffffffffffffffffffffffffffffff161415610b2a576040517fc17540b300000000000000000000000000000000000000000000000000000000815260040160405180910390fd5b6000610b363385610714565b90506008600082815260200190815260200160002060009054906101000a900460ff1615610b90576040517fce92a71500000000000000000000000000000000000000000000000000000000815260040160405180910390fd5b60016008600083815260200190815260200160002060006101000a81548160ff02191690831515021790555084600360003373ffffffffffffffffffffffffffffffffffffffff1673ffffffffffffffffffffffffffffffffffffffff1681526020019081526020016000206000600460003373ffffffffffffffffffffffffffffffffffffffff1673ffffffffffffffffffffffffffffffffffffffff168152602001908152602001600020548152602001908152602001600020819055506001600460003373ffffffffffffffffffffffffffffffffffffffff1673ffffffffffffffffffffffffffffffffffffffff1681526020019081526020016000206000828254610ca091906133af565b9250508190555060016006600087815260200190815260200160002060000160006101000a81548160ff021916908315150217905550336006600087815260200190815260200160002060000160016101000a81548173ffffffffffffffffffffffffffffffffffffffff021916908373ffffffffffffffffffffffffffffffffffffffff160217905550836006600087815260200190815260200160002060010160006101000a81548173ffffffffffffffffffffffffffffffffffffffff021916908373ffffffffffffffffffffffffffffffffffffffff1602179055508282600760008881526020019081526020016000209190610da292919061279d565b508373ffffffffffffffffffffffffffffffffffffffff163373ffffffffffffffffffffffffffffffffffffffff16867f7b8705e3f5851e7e724bd9243be409ac5ad78951258a1f258790356aa2ef44db60405160405180910390a450610e076113fe565b50505050565b6000600160009054906101000a900460ff16905090565b60018054906101000a900473ffffffffffffffffffffffffffffffffffffffff1673ffffffffffffffffffffffffffffffffffffffff163373ffffffffffffffffffffffffffffffffffffffff1614610ea9576040517f5fc483c500000000000000000000000000000000000000000000000000000000815260040160405180910390fd5b8060028190555050565b600080610ecb6002548461225690919063ffffffff16565b9150610ee0828461226c90919063ffffffff16565b9050915091565b6003602052816000526040600020602052806000526040600020600091509150505481565b60018054906101000a900473ffffffffffffffffffffffffffffffffffffffff1681565b60066020528060005260406000206000915090508060000160009054906101000a900460ff16908060000160019054906101000a900473ffffffffffffffffffffffffffffffffffffffff16908060010160009054906101000a900473ffffffffffffffffffffffffffffffffffffffff16908060020154905084565b60018054906101000a900473ffffffffffffffffffffffffffffffffffffffff1673ffffffffffffffffffffffffffffffffffffffff163373ffffffffffffffffffffffffffffffffffffffff1614611032576040517f5fc483c500000000000000000000000000000000000000000000000000000000815260040160405180910390fd5b61103a610e0d565b1561104c57611047612282565b611055565b6110546122e5565b5b565b60046020528060005260406000206000915090505481565b611077612823565b6000600660008481526020019081526020016000206040518060800160405290816000820160009054906101000a900460ff161515151581526020016000820160019054906101000a900473ffffffffffffffffffffffffffffffffffffffff1673ffffffffffffffffffffffffffffffffffffffff1673ffffffffffffffffffffffffffffffffffffffff1681526020016001820160009054906101000a900473ffffffffffffffffffffffffffffffffffffffff1673ffffffffffffffffffffffffffffffffffffffff1673ffffffffffffffffffffffffffffffffffffffff1681526020016002820154815250509050611172612823565b81600001518160000190151590811515815250508160200151816020019073ffffffffffffffffffffffffffffffffffffffff16908173ffffffffffffffffffffffffffffffffffffffff16815250508160400151816040019073ffffffffffffffffffffffffffffffffffffffff16908173ffffffffffffffffffffffffffffffffffffffff1681525050816000015161121c5760008160600181815250508092505050611372565b6000826040015173ffffffffffffffffffffffffffffffffffffffff1663dd62ed3e8460200151306040518363ffffffff1660e01b815260040161126192919061300d565b60206040518083038186803b15801561127957600080fd5b505afa15801561128d573d6000803e3d6000fd5b505050506040513d601f19601f820116820180604052508101906112b19190612b92565b90506000836040015173ffffffffffffffffffffffffffffffffffffffff166370a0823185602001516040518263ffffffff1660e01b81526004016112f69190612fd7565b60206040518083038186803b15801561130e57600080fd5b505afa158015611322573d6000803e3d6000fd5b505050506040513d601f19601f820116820180604052508101906113469190612b92565b90508082111561135f578083606001818152505061136a565b818360600181815250505b829450505050505b919050565b60056020528060005260406000206000915090508060000160009054906101000a900460ff16908060010154908060020154905083565b600260005414156113f4576040517f08c379a00000000000000000000000000000000000000000000000000000000081526004016113eb9061326c565b60405180910390fd5b6002600081905550565b6001600081905550565b611410610e0d565b15611450576040517f08c379a00000000000000000000000000000000000000000000000000000000081526004016114479061320c565b60405180910390fd5b565b6005600084600060028110611490577f4e487b7100000000000000000000000000000000000000000000000000000000600052603260045260246000fd5b6020020135815260200190815260200160002060000160009054906101000a900460ff16156114eb576040517fdc67407a00000000000000000000000000000000000000000000000000000000815260040160405180910390fd5b80600160048110611525577f4e487b7100000000000000000000000000000000000000000000000000000000600052603260045260246000fd5b60200201356005600085600060028110611568577f4e487b7100000000000000000000000000000000000000000000000000000000600052603260045260246000fd5b602002013581526020019081526020016000206001015414156115b7576040517f5c7580fa00000000000000000000000000000000000000000000000000000000815260040160405180910390fd5b60066000846001600281106115f5577f4e487b7100000000000000000000000000000000000000000000000000000000600052603260045260246000fd5b6020020135815260200190815260200160002060000160009054906101000a900460ff1661164f576040517f2be530bc00000000000000000000000000000000000000000000000000000000815260040160405180910390fd5b80600360048110611689577f4e487b7100000000000000000000000000000000000000000000000000000000600052603260045260246000fd5b6020020135816000600481106116c8577f4e487b7100000000000000000000000000000000000000000000000000000000600052603260045260246000fd5b60200201351015611705576040517f95ae795b00000000000000000000000000000000000000000000000000000000815260040160405180910390fd5b6006600084600160028110611743577f4e487b7100000000000000000000000000000000000000000000000000000000600052603260045260246000fd5b6020020135815260200190815260200160002060010160009054906101000a900473ffffffffffffffffffffffffffffffffffffffff1673ffffffffffffffffffffffffffffffffffffffff1663dd62ed3e60066000866001600281106117d3577f4e487b7100000000000000000000000000000000000000000000000000000000600052603260045260246000fd5b6020020135815260200190815260200160002060000160019054906101000a900473ffffffffffffffffffffffffffffffffffffffff16306040518363ffffffff1660e01b815260040161182892919061300d565b60206040518083038186803b15801561184057600080fd5b505afa158015611854573d6000803e3d6000fd5b505050506040513d601f19601f820116820180604052508101906118789190612b92565b816003600481106118b2577f4e487b7100000000000000000000000000000000000000000000000000000000600052603260045260246000fd5b602002013511156118ef576040517fd8d0c64e00000000000000000000000000000000000000000000000000000000815260040160405180910390fd5b426119a36201518083600260048110611931577f4e487b7100000000000000000000000000000000000000000000000000000000600052603260045260246000fd5b60200201356119409190613436565b600560008760006002811061197e577f4e487b7100000000000000000000000000000000000000000000000000000000600052603260045260246000fd5b602002013581526020019081526020016000206002015461234790919063ffffffff16565b11156119db576040517f4747bf0000000000000000000000000000000000000000000000000000000000815260040160405180910390fd5b6119e784848484611dc7565b611a1d576040517f09bde33900000000000000000000000000000000000000000000000000000000815260040160405180910390fd5b50505050565b600080611a6d83600360048110611a63577f4e487b7100000000000000000000000000000000000000000000000000000000600052603260045260246000fd5b6020020135610eb3565b9150915060016005600087600060028110611ab1577f4e487b7100000000000000000000000000000000000000000000000000000000600052603260045260246000fd5b602002013581526020019081526020016000206001016000828254611ad691906133af565b92505081905550426005600087600060028110611b1c577f4e487b7100000000000000000000000000000000000000000000000000000000600052603260045260246000fd5b6020020135815260200190815260200160002060020181905550600073ffffffffffffffffffffffffffffffffffffffff166006600087600160028110611b8c577f4e487b7100000000000000000000000000000000000000000000000000000000600052603260045260246000fd5b6020020135815260200190815260200160002060010160009054906101000a900473ffffffffffffffffffffffffffffffffffffffff1673ffffffffffffffffffffffffffffffffffffffff1614611c9557611c2785600160028110611c1b577f4e487b7100000000000000000000000000000000000000000000000000000000600052603260045260246000fd5b6020020135858361235d565b611c9085600160028110611c64577f4e487b7100000000000000000000000000000000000000000000000000000000600052603260045260246000fd5b602002013560018054906101000a900473ffffffffffffffffffffffffffffffffffffffff168461235d565b611d48565b611cde85600160028110611cd2577f4e487b7100000000000000000000000000000000000000000000000000000000600052603260045260246000fd5b602002013585836123fb565b611d4785600160028110611d1b577f4e487b7100000000000000000000000000000000000000000000000000000000600052603260045260246000fd5b602002013560018054906101000a900473ffffffffffffffffffffffffffffffffffffffff16846123fb565b5b84600160028110611d82577f4e487b7100000000000000000000000000000000000000000000000000000000600052603260045260246000fd5b60200201357f3e0b49f5477938c9df20e76b46ba488cba6c52af1e25a905bd3a5fd16866483d8583604051611db892919061306d565b60405180910390a25050505050565b60007f000000000000000000000000000000000000000000000000000000000000000073ffffffffffffffffffffffffffffffffffffffff1663f398789b604051806040016040528088600060088110611e4a577f4e487b7100000000000000000000000000000000000000000000000000000000600052603260045260246000fd5b6020020135815260200188600160088110611e8e577f4e487b7100000000000000000000000000000000000000000000000000000000600052603260045260246000fd5b6020020135815250604051806040016040528060405180604001604052808b600260088110611ee6577f4e487b7100000000000000000000000000000000000000000000000000000000600052603260045260246000fd5b602002013581526020018b600360088110611f2a577f4e487b7100000000000000000000000000000000000000000000000000000000600052603260045260246000fd5b6020020135815250815260200160405180604001604052808b600460088110611f7c577f4e487b7100000000000000000000000000000000000000000000000000000000600052603260045260246000fd5b602002013581526020018b600560088110611fc0577f4e487b7100000000000000000000000000000000000000000000000000000000600052603260045260246000fd5b602002013581525081525060405180604001604052808a600660088110612010577f4e487b7100000000000000000000000000000000000000000000000000000000600052603260045260246000fd5b602002013581526020018a600760088110612054577f4e487b7100000000000000000000000000000000000000000000000000000000600052603260045260246000fd5b60200201358152506040518060c001604052808a6000600281106120a1577f4e487b7100000000000000000000000000000000000000000000000000000000600052603260045260246000fd5b602002013560001c81526020018a6001600281106120e8577f4e487b7100000000000000000000000000000000000000000000000000000000600052603260045260246000fd5b602002013560001c81526020018973ffffffffffffffffffffffffffffffffffffffff1681526020018860006004811061214b577f4e487b7100000000000000000000000000000000000000000000000000000000600052603260045260246000fd5b602002013581526020018860016004811061218f577f4e487b7100000000000000000000000000000000000000000000000000000000600052603260045260246000fd5b60200201358152602001886002600481106121d3577f4e487b7100000000000000000000000000000000000000000000000000000000600052603260045260246000fd5b60200201358152506040518563ffffffff1660e01b81526004016121fa9493929190613096565b602060405180830381600087803b15801561221457600080fd5b505af1158015612228573d6000803e3d6000fd5b505050506040513d601f19601f8201168201806040525081019061224c9190612aab565b9050949350505050565b600081836122649190613405565b905092915050565b6000818361227a9190613490565b905092915050565b61228a61242d565b6000600160006101000a81548160ff0219169083151502179055507f5db9ee0a495bf2e6ff9c91a7834c1ba4fdd244a5e8aa4e537bd38aeae4b073aa6122ce612476565b6040516122db9190612fd7565b60405180910390a1565b6122ed611408565b60018060006101000a81548160ff0219169083151502179055507f62e78cea01bee320cd4e420270b5ea74000d11b0c9f74754ebdbfc544b05a258612330612476565b60405161233d9190612fd7565b60405180910390a1565b6000818361235591906133af565b905092915050565b6123f66006600085815260200190815260200160002060000160019054906101000a900473ffffffffffffffffffffffffffffffffffffffff1683836006600088815260200190815260200160002060010160009054906101000a900473ffffffffffffffffffffffffffffffffffffffff1673ffffffffffffffffffffffffffffffffffffffff1661247e909392919063ffffffff16565b505050565b6040517fd37a223a00000000000000000000000000000000000000000000000000000000815260040160405180910390fd5b612435610e0d565b612474576040517f08c379a000000000000000000000000000000000000000000000000000000000815260040161246b906131cc565b60405180910390fd5b565b600033905090565b612501846323b872dd60e01b85858560405160240161249f93929190613036565b604051602081830303815290604052907bffffffffffffffffffffffffffffffffffffffffffffffffffffffff19166020820180517bffffffffffffffffffffffffffffffffffffffffffffffffffffffff8381831617835250505050612507565b50505050565b6000612569826040518060400160405280602081526020017f5361666545524332303a206c6f772d6c6576656c2063616c6c206661696c65648152508573ffffffffffffffffffffffffffffffffffffffff166125cf9092919063ffffffff16565b905060008151148061258b57508080602001905181019061258a9190612aab565b5b6125ca576040517f08c379a00000000000000000000000000000000000000000000000000000000081526004016125c19061324c565b60405180910390fd5b505050565b60606125de84846000856125e7565b90509392505050565b60608247101561262c576040517f08c379a0000000000000000000000000000000000000000000000000000000008152600401612623906131ec565b60405180910390fd5b6000808673ffffffffffffffffffffffffffffffffffffffff1685876040516126559190612fc0565b60006040518083038185875af1925050503d8060008114612692576040519150601f19603f3d011682016040523d82523d6000602084013e612697565b606091505b50915091506126a8878383876126b4565b92505050949350505050565b606083156127175760008351141561270f576126cf8561272a565b61270e576040517f08c379a00000000000000000000000000000000000000000000000000000000081526004016127059061322c565b60405180910390fd5b5b829050612722565b612721838361274d565b5b949350505050565b6000808273ffffffffffffffffffffffffffffffffffffffff163b119050919050565b6000825111156127605781518083602001fd5b806040517f08c379a000000000000000000000000000000000000000000000000000000000815260040161279491906131aa565b60405180910390fd5b8280546127a9906135a3565b90600052602060002090601f0160209004810192826127cb5760008555612812565b82601f106127e457803560ff1916838001178555612812565b82800160010185558215612812579182015b828111156128115782358255916020019190600101906127f6565b5b50905061281f9190612879565b5090565b6040518060800160405280600015158152602001600073ffffffffffffffffffffffffffffffffffffffff168152602001600073ffffffffffffffffffffffffffffffffffffffff168152602001600081525090565b5b8082111561289257600081600090555060010161287a565b5090565b6000813590506128a5816137e6565b92915050565b6000819050826020600202820111156128c357600080fd5b92915050565b6000819050826020600402820111156128e157600080fd5b92915050565b6000819050826020600802820111156128ff57600080fd5b92915050565b600081519050612914816137fd565b92915050565b60008135905061292981613814565b92915050565b60008083601f84011261294157600080fd5b8235905067ffffffffffffffff81111561295a57600080fd5b60208301915083600182028301111561297257600080fd5b9250929050565b6000813590506129888161382b565b92915050565b60008151905061299d8161382b565b92915050565b6000602082840312156129b557600080fd5b60006129c384828501612896565b91505092915050565b600080604083850312156129df57600080fd5b60006129ed85828601612896565b92505060206129fe85828601612896565b9150509250929050565b60008060408385031215612a1b57600080fd5b6000612a2985828601612896565b9250506020612a3a85828601612979565b9150509250929050565b6000806000806101e08587031215612a5b57600080fd5b6000612a69878288016128e7565b945050610100612a7b878288016128ab565b935050610140612a8d87828801612896565b925050610160612a9f878288016128c9565b91505092959194509250565b600060208284031215612abd57600080fd5b6000612acb84828501612905565b91505092915050565b600060208284031215612ae657600080fd5b6000612af48482850161291a565b91505092915050565b60008060008060608587031215612b1357600080fd5b6000612b218782880161291a565b9450506020612b3287828801612896565b935050604085013567ffffffffffffffff811115612b4f57600080fd5b612b5b8782880161292f565b925092505092959194509250565b600060208284031215612b7b57600080fd5b6000612b8984828501612979565b91505092915050565b600060208284031215612ba457600080fd5b6000612bb28482850161298e565b91505092915050565b6000612bc78383612c86565b60408301905092915050565b6000612bdf8383612f76565b60208301905092915050565b612bf4816134d6565b82525050565b612c03816134c4565b82525050565b612c12816134c4565b82525050565b612c29612c24826134c4565b6135d5565b82525050565b612c3881613309565b612c428184613367565b9250612c4d826132eb565b8060005b83811015612c7e578151612c658782612bbb565b9650612c7083613340565b925050600181019050612c51565b505050505050565b612c8f81613314565b612c998184613372565b9250612ca4826132f5565b8060005b83811015612cd5578151612cbc8782612bd3565b9650612cc78361334d565b925050600181019050612ca8565b505050505050565b612ce681613314565b612cf0818461337d565b9250612cfb826132f5565b8060005b83811015612d2c578151612d138782612bd3565b9650612d1e8361334d565b925050600181019050612cff565b505050505050565b612d3d8161331f565b612d478184613388565b9250612d52826132ff565b8060005b83811015612d83578151612d6a8782612bd3565b9650612d758361335a565b925050600181019050612d56565b505050505050565b612d94816134e8565b82525050565b612da3816134e8565b82525050565b612db2816134f4565b82525050565b6000612dc38261332a565b612dcd8185613393565b9350612ddd818560208601613570565b80840191505092915050565b612df281613528565b82525050565b612e0181613528565b82525050565b612e108161354c565b82525050565b6000612e2182613335565b612e2b818561339e565b9350612e3b818560208601613570565b612e4481613686565b840191505092915050565b6000612e5c60148361339e565b9150612e67826136a4565b602082019050919050565b6000612e7f60268361339e565b9150612e8a826136cd565b604082019050919050565b6000612ea260108361339e565b9150612ead8261371c565b602082019050919050565b6000612ec5601d8361339e565b9150612ed082613745565b602082019050919050565b6000612ee8602a8361339e565b9150612ef38261376e565b604082019050919050565b6000612f0b601f8361339e565b9150612f16826137bd565b602082019050919050565b608082016000820151612f376000850182612d8b565b506020820151612f4a6020850182612bfa565b506040820151612f5d6040850182612de9565b506060820151612f706060850182612f76565b50505050565b612f7f8161351e565b82525050565b612f8e8161351e565b82525050565b6000612fa08285612c18565b601482019150612fb08284612c18565b6014820191508190509392505050565b6000612fcc8284612db8565b915081905092915050565b6000602082019050612fec6000830184612c09565b92915050565b60006020820190506130076000830184612beb565b92915050565b60006040820190506130226000830185612c09565b61302f6020830184612c09565b9392505050565b600060608201905061304b6000830186612c09565b6130586020830185612c09565b6130656040830184612f85565b949350505050565b60006040820190506130826000830185612c09565b61308f6020830184612f85565b9392505050565b60006101c0820190506130ac6000830187612cdd565b6130b96040830186612c2f565b6130c660c0830185612cdd565b6130d4610100830184612d34565b95945050505050565b60006020820190506130f26000830184612d9a565b92915050565b600060808201905061310d6000830187612d9a565b61311a6020830186612c09565b6131276040830185612df8565b6131346060830184612f85565b95945050505050565b60006060820190506131526000830186612d9a565b61315f6020830185612f85565b61316c6040830184612f85565b949350505050565b60006020820190506131896000830184612da9565b92915050565b60006020820190506131a46000830184612e07565b92915050565b600060208201905081810360008301526131c48184612e16565b905092915050565b600060208201905081810360008301526131e581612e4f565b9050919050565b6000602082019050818103600083015261320581612e72565b9050919050565b6000602082019050818103600083015261322581612e95565b9050919050565b6000602082019050818103600083015261324581612eb8565b9050919050565b6000602082019050818103600083015261326581612edb565b9050919050565b6000602082019050818103600083015261328581612efe565b9050919050565b60006080820190506132a16000830184612f21565b92915050565b60006020820190506132bc6000830184612f85565b92915050565b60006040820190506132d76000830185612f85565b6132e46020830184612f85565b9392505050565b6000819050919050565b6000819050919050565b6000819050919050565b600060029050919050565b600060029050919050565b600060069050919050565b600081519050919050565b600081519050919050565b6000602082019050919050565b6000602082019050919050565b6000602082019050919050565b600081905092915050565b600081905092915050565b600081905092915050565b600081905092915050565b600081905092915050565b600082825260208201905092915050565b60006133ba8261351e565b91506133c58361351e565b9250827fffffffffffffffffffffffffffffffffffffffffffffffffffffffffffffffff038211156133fa576133f96135f9565b5b828201905092915050565b60006134108261351e565b915061341b8361351e565b92508261342b5761342a613628565b5b828204905092915050565b60006134418261351e565b915061344c8361351e565b9250817fffffffffffffffffffffffffffffffffffffffffffffffffffffffffffffffff0483118215151615613485576134846135f9565b5b828202905092915050565b600061349b8261351e565b91506134a68361351e565b9250828210156134b9576134b86135f9565b5b828203905092915050565b60006134cf826134fe565b9050919050565b60006134e1826134fe565b9050919050565b60008115159050919050565b6000819050919050565b600073ffffffffffffffffffffffffffffffffffffffff82169050919050565b6000819050919050565b60006135338261353a565b9050919050565b6000613545826134fe565b9050919050565b60006135578261355e565b9050919050565b6000613569826134fe565b9050919050565b60005b8381101561358e578082015181840152602081019050613573565b8381111561359d576000848401525b50505050565b600060028204905060018216806135bb57607f821691505b602082108114156135cf576135ce613657565b5b50919050565b60006135e0826135e7565b9050919050565b60006135f282613697565b9050919050565b7f4e487b7100000000000000000000000000000000000000000000000000000000600052601160045260246000fd5b7f4e487b7100000000000000000000000000000000000000000000000000000000600052601260045260246000fd5b7f4e487b7100000000000000000000000000000000000000000000000000000000600052602260045260246000fd5b6000601f19601f8301169050919050565b60008160601b9050919050565b7f5061757361626c653a206e6f7420706175736564000000000000000000000000600082015250565b7f416464726573733a20696e73756666696369656e742062616c616e636520666f60008201527f722063616c6c0000000000000000000000000000000000000000000000000000602082015250565b7f5061757361626c653a2070617573656400000000000000000000000000000000600082015250565b7f416464726573733a2063616c6c20746f206e6f6e2d636f6e7472616374000000600082015250565b7f5361666545524332303a204552433230206f7065726174696f6e20646964206e60008201527f6f74207375636365656400000000000000000000000000000000000000000000602082015250565b7f5265656e7472616e637947756172643a207265656e7472616e742063616c6c00600082015250565b6137ef816134c4565b81146137fa57600080fd5b50565b613806816134e8565b811461381157600080fd5b50565b61381d816134f4565b811461382857600080fd5b50565b6138348161351e565b811461383f57600080fd5b5056fea2646970667358221220443596104d3bbcb8efdaaf5cc324895c3b9784be5e3669819529188f0bf590a564736f6c63430008040033",
  "linkReferences": {},
  "deployedLinkReferences": {}
}