{
  "_format": "hh-sol-artifact-1",
  "contractName": "ConnectedWallets",
  "sourceName": "contracts/ConnectedWallets.sol",
  "abi": [
    {
      "inputs": [
        {
          "internalType": "contract IVerifier",
          "name": "_verifier",
          "type": "address"
        }
      ],
      "stateMutability": "nonpayable",
      "type": "constructor"
    },
    {
      "inputs": [],
      "name": "AccountAlreadyActive",
      "type": "error"
    },
    {
      "inputs": [],
      "name": "AccountAlreadyExists",
      "type": "error"
    },
    {
      "inputs": [],
      "name": "CommitmentMismatch",
      "type": "error"
    },
    {
      "inputs": [],
      "name": "EarlyPaymentNotAllowed",
      "type": "error"
    },
    {
      "inputs": [],
      "name": "FunctionNotSupported",
      "type": "error"
    },
    {
      "inputs": [],
      "name": "InactiveAccount",
      "type": "error"
    },
    {
      "inputs": [],
      "name": "InvalidProof",
      "type": "error"
    },
    {
      "inputs": [],
      "name": "NotEnoughAccountBalance",
      "type": "error"
    },
    {
      "inputs": [],
      "name": "NotEnoughValue",
      "type": "error"
    },
    {
      "inputs": [],
      "name": "NotEthAccount",
      "type": "error"
    },
    {
      "inputs": [],
      "name": "NotTokenAccount",
      "type": "error"
    },
    {
      "inputs": [],
      "name": "OnlyAccountOwner",
      "type": "error"
    },
    {
      "inputs": [],
      "name": "OnlyOwner",
      "type": "error"
    },
    {
      "inputs": [],
      "name": "OnlyRelatedPartiesCanCancel",
      "type": "error"
    },
    {
      "inputs": [],
      "name": "PaymentIntentExpired",
      "type": "error"
    },
    {
      "inputs": [],
      "name": "PaymentIntentNullified",
      "type": "error"
    },
    {
      "inputs": [],
      "name": "PaymentNotAuthorized",
      "type": "error"
    },
    {
      "inputs": [],
      "name": "ZeroAddressConnected",
      "type": "error"
    },
    {
      "inputs": [],
      "name": "ZeroTopup",
      "type": "error"
    },
    {
      "anonymous": false,
      "inputs": [
        {
          "indexed": true,
          "internalType": "bytes32",
          "name": "commitment",
          "type": "bytes32"
        }
      ],
      "name": "AccountClosed",
      "type": "event"
    },
    {
      "anonymous": false,
      "inputs": [
        {
          "indexed": true,
          "internalType": "bytes32",
          "name": "commitment",
          "type": "bytes32"
        },
        {
          "indexed": false,
          "internalType": "address",
          "name": "payee",
          "type": "address"
        },
        {
          "indexed": false,
          "internalType": "uint256",
          "name": "payment",
          "type": "uint256"
        }
      ],
      "name": "AccountDebited",
      "type": "event"
    },
    {
      "anonymous": false,
      "inputs": [
        {
          "indexed": true,
          "internalType": "bytes32",
          "name": "commitment",
          "type": "bytes32"
        },
        {
          "indexed": false,
          "internalType": "address",
          "name": "depositFor",
          "type": "address"
        },
        {
          "indexed": false,
          "internalType": "uint256",
          "name": "balance",
          "type": "uint256"
        }
      ],
      "name": "NewEthAccount",
      "type": "event"
    },
    {
      "anonymous": false,
      "inputs": [
        {
          "indexed": true,
          "internalType": "bytes32",
          "name": "commitment",
          "type": "bytes32"
        },
        {
          "indexed": false,
          "internalType": "address",
          "name": "depositFor",
          "type": "address"
        },
        {
          "indexed": false,
          "internalType": "uint256",
          "name": "amount",
          "type": "uint256"
        },
        {
          "indexed": false,
          "internalType": "address",
          "name": "token",
          "type": "address"
        }
      ],
      "name": "NewTokenAccount",
      "type": "event"
    },
    {
      "anonymous": false,
      "inputs": [
        {
          "indexed": true,
          "internalType": "bytes32",
          "name": "commitment",
          "type": "bytes32"
        },
        {
          "indexed": true,
          "internalType": "address",
          "name": "creator",
          "type": "address"
        },
        {
          "indexed": true,
          "internalType": "address",
          "name": "token",
          "type": "address"
        }
      ],
      "name": "NewWalletConnected",
      "type": "event"
    },
    {
      "anonymous": false,
      "inputs": [
        {
          "indexed": true,
          "internalType": "bytes32",
          "name": "commitment",
          "type": "bytes32"
        },
        {
          "indexed": true,
          "internalType": "bytes32",
          "name": "paymentIntent",
          "type": "bytes32"
        },
        {
          "indexed": false,
          "internalType": "address",
          "name": "payee",
          "type": "address"
        }
      ],
      "name": "PaymentIntentCancelled",
      "type": "event"
    },
    {
      "anonymous": false,
      "inputs": [
        {
          "indexed": true,
          "internalType": "bytes32",
          "name": "commitment",
          "type": "bytes32"
        },
        {
          "indexed": false,
          "internalType": "uint256",
          "name": "balance",
          "type": "uint256"
        }
      ],
      "name": "TopUpETH",
      "type": "event"
    },
    {
      "anonymous": false,
      "inputs": [
        {
          "indexed": true,
          "internalType": "bytes32",
          "name": "commitment",
          "type": "bytes32"
        },
        {
          "indexed": false,
          "internalType": "uint256",
          "name": "amount",
          "type": "uint256"
        },
        {
          "indexed": false,
          "internalType": "address",
          "name": "token",
          "type": "address"
        }
      ],
      "name": "TopUpToken",
      "type": "event"
    },
    {
      "inputs": [],
      "name": "_owner",
      "outputs": [
        {
          "internalType": "address payable",
          "name": "",
          "type": "address"
        }
      ],
      "stateMutability": "view",
      "type": "function"
    },
    {
      "inputs": [
        {
          "internalType": "address",
          "name": "",
          "type": "address"
        }
      ],
      "name": "accountCounter",
      "outputs": [
        {
          "internalType": "uint256",
          "name": "",
          "type": "uint256"
        }
      ],
      "stateMutability": "view",
      "type": "function"
    },
    {
      "inputs": [
        {
          "internalType": "bytes32",
          "name": "",
          "type": "bytes32"
        }
      ],
      "name": "accounts",
      "outputs": [
        {
          "internalType": "bool",
          "name": "active",
          "type": "bool"
        },
        {
          "internalType": "address",
          "name": "creator",
          "type": "address"
        },
        {
          "internalType": "contract IERC20",
          "name": "token",
          "type": "address"
        },
        {
          "internalType": "uint256",
          "name": "balance",
          "type": "uint256"
        }
      ],
      "stateMutability": "view",
      "type": "function"
    },
    {
      "inputs": [
        {
          "internalType": "uint256",
          "name": "amount",
          "type": "uint256"
        }
      ],
      "name": "calculateFee",
      "outputs": [
        {
          "internalType": "uint256",
          "name": "ownerFee",
          "type": "uint256"
        },
        {
          "internalType": "uint256",
          "name": "payment",
          "type": "uint256"
        }
      ],
      "stateMutability": "view",
      "type": "function"
    },
    {
      "inputs": [
        {
          "internalType": "uint256[8]",
          "name": "proof",
          "type": "uint256[8]"
        },
        {
          "internalType": "bytes32[2]",
          "name": "hashes",
          "type": "bytes32[2]"
        },
        {
          "internalType": "address",
          "name": "payee",
          "type": "address"
        },
        {
          "internalType": "uint256[4]",
          "name": "debit",
          "type": "uint256[4]"
        }
      ],
      "name": "cancelPaymentIntent",
      "outputs": [],
      "stateMutability": "nonpayable",
      "type": "function"
    },
    {
      "inputs": [
        {
          "internalType": "address",
          "name": "",
          "type": "address"
        },
        {
          "internalType": "uint256",
          "name": "",
          "type": "uint256"
        }
      ],
      "name": "commitments",
      "outputs": [
        {
          "internalType": "bytes32",
          "name": "",
          "type": "bytes32"
        }
      ],
      "stateMutability": "view",
      "type": "function"
    },
    {
      "inputs": [
        {
          "internalType": "bytes32",
          "name": "_commitment",
          "type": "bytes32"
        },
        {
          "internalType": "address",
          "name": "token",
          "type": "address"
        },
        {
          "internalType": "string",
          "name": "encryptedNote",
          "type": "string"
        }
      ],
      "name": "connectWallet",
      "outputs": [],
      "stateMutability": "nonpayable",
      "type": "function"
    },
    {
      "inputs": [
        {
          "internalType": "uint256[8]",
          "name": "proof",
          "type": "uint256[8]"
        },
        {
          "internalType": "bytes32[2]",
          "name": "hashes",
          "type": "bytes32[2]"
        },
        {
          "internalType": "address",
          "name": "payee",
          "type": "address"
        },
        {
          "internalType": "uint256[4]",
          "name": "debit",
          "type": "uint256[4]"
        }
      ],
      "name": "directdebit",
      "outputs": [],
      "stateMutability": "nonpayable",
      "type": "function"
    },
    {
      "inputs": [
        {
          "internalType": "bytes32",
          "name": "commitment",
          "type": "bytes32"
        }
      ],
      "name": "disconnectWallet",
      "outputs": [],
      "stateMutability": "nonpayable",
      "type": "function"
    },
    {
      "inputs": [
        {
          "internalType": "bytes32",
          "name": "",
          "type": "bytes32"
        }
      ],
      "name": "encryptedNotes",
      "outputs": [
        {
          "internalType": "string",
          "name": "",
          "type": "string"
        }
      ],
      "stateMutability": "view",
      "type": "function"
    },
    {
      "inputs": [
        {
          "internalType": "bytes32",
          "name": "commitment",
          "type": "bytes32"
        }
      ],
      "name": "getAccount",
      "outputs": [
        {
          "components": [
            {
              "internalType": "bool",
              "name": "active",
              "type": "bool"
            },
            {
              "internalType": "address",
              "name": "creator",
              "type": "address"
            },
            {
              "internalType": "contract IERC20",
              "name": "token",
              "type": "address"
            },
            {
              "internalType": "uint256",
              "name": "balance",
              "type": "uint256"
            }
          ],
          "internalType": "struct AccountData",
          "name": "",
          "type": "tuple"
        }
      ],
      "stateMutability": "view",
      "type": "function"
    },
    {
      "inputs": [],
      "name": "ownerFeeDivider",
      "outputs": [
        {
          "internalType": "uint256",
          "name": "",
          "type": "uint256"
        }
      ],
      "stateMutability": "view",
      "type": "function"
    },
    {
      "inputs": [
        {
          "internalType": "bytes32",
          "name": "",
          "type": "bytes32"
        }
      ],
      "name": "paymentIntents",
      "outputs": [
        {
          "internalType": "bool",
          "name": "isNullified",
          "type": "bool"
        },
        {
          "internalType": "uint256",
          "name": "withdrawalCount",
          "type": "uint256"
        },
        {
          "internalType": "uint256",
          "name": "lastDate",
          "type": "uint256"
        }
      ],
      "stateMutability": "view",
      "type": "function"
    },
    {
      "inputs": [
        {
          "internalType": "uint256",
          "name": "newFeeDivider",
          "type": "uint256"
        }
      ],
      "name": "updateFee",
      "outputs": [],
      "stateMutability": "nonpayable",
      "type": "function"
    },
    {
      "inputs": [],
      "name": "verifier",
      "outputs": [
        {
          "internalType": "contract IVerifier",
          "name": "",
          "type": "address"
        }
      ],
      "stateMutability": "view",
      "type": "function"
    }
  ],
  "bytecode": "0x60a060405260646002553480156200001657600080fd5b50604051620034033803806200340383398181016040528101906200003c9190620000dc565b8060016000819055508073ffffffffffffffffffffffffffffffffffffffff1660808173ffffffffffffffffffffffffffffffffffffffff1660601b8152505033600160006101000a81548173ffffffffffffffffffffffffffffffffffffffff021916908373ffffffffffffffffffffffffffffffffffffffff16021790555050506200016a565b600081519050620000d68162000150565b92915050565b600060208284031215620000ef57600080fd5b6000620000ff84828501620000c5565b91505092915050565b6000620001158262000130565b9050919050565b6000620001298262000108565b9050919050565b600073ffffffffffffffffffffffffffffffffffffffff82169050919050565b6200015b816200011c565b81146200016757600080fd5b50565b60805160601c613273620001906000396000818161056f0152611a7f01526132736000f3fe608060405234801561001057600080fd5b50600436106100f55760003560e01c80639012c4a811610097578063bc529c4311610066578063bc529c4314610271578063cc8887f1146102a4578063d1de5011146102d4578063fb60c31a14610304576100f5565b80639012c4a8146101d657806399a5d747146101f257806399ca856c14610223578063b2bdfa7b14610253576100f5565b80632a28c268116100d35780632a28c268146101645780632b7ac3f314610180578063344649221461019e57806354bc3958146101ba576100f5565b8063094b4b6d146100fa57806314107a9414610118578063209fe78314610148575b600080fd5b610102610336565b60405161010f9190612d25565b60405180910390f35b610132600480360381019061012d9190612636565b61033c565b60405161013f9190612c68565b60405180910390f35b610162600480360381019061015d9190612636565b6103dc565b005b61017e600480360381019061017991906125a6565b610540565b005b61018861056d565b6040516101959190612c4d565b60405180910390f35b6101b860048036038101906101b391906125a6565b610591565b005b6101d460048036038101906101cf919061265f565b61080e565b005b6101f060048036038101906101eb91906126cb565b610bc4565b005b61020c600480360381019061020791906126cb565b610c55565b60405161021a929190612d40565b60405180910390f35b61023d6004803603810190610238919061256a565b610c89565b60405161024a9190612c32565b60405180910390f35b61025b610cae565b6040516102689190612acb565b60405180910390f35b61028b60048036038101906102869190612636565b610cd4565b60405161029b9493929190612bb6565b60405180910390f35b6102be60048036038101906102b99190612541565b610d51565b6040516102cb9190612d25565b60405180910390f35b6102ee60048036038101906102e99190612636565b610d69565b6040516102fb9190612d0a565b60405180910390f35b61031e60048036038101906103199190612636565b611071565b60405161032d93929190612bfb565b60405180910390f35b60025481565b6007602052806000526040600020600091509050805461035b90613021565b80601f016020809104026020016040519081016040528092919081815260200182805461038790613021565b80156103d45780601f106103a9576101008083540402835291602001916103d4565b820191906000526020600020905b8154815290600101906020018083116103b757829003601f168201915b505050505081565b6103e46110a8565b6006600082815260200190815260200160002060000160009054906101000a900460ff1661043e576040517f2be530bc00000000000000000000000000000000000000000000000000000000815260040160405180910390fd5b6006600082815260200190815260200160002060000160019054906101000a900473ffffffffffffffffffffffffffffffffffffffff1673ffffffffffffffffffffffffffffffffffffffff163373ffffffffffffffffffffffffffffffffffffffff16146104d9576040517f244e5fa600000000000000000000000000000000000000000000000000000000815260040160405180910390fd5b60006006600083815260200190815260200160002060000160006101000a81548160ff021916908315150217905550807f871b627720fc9f3ba5602fde62d03058c14f7aaae66723d46303769c253632f860405160405180910390a261053d6110f8565b50565b6105486110a8565b61055484848484611102565b61055f8383836116d3565b6105676110f8565b50505050565b7f000000000000000000000000000000000000000000000000000000000000000081565b61059d84848484611a7b565b6105d3576040517f09bde33900000000000000000000000000000000000000000000000000000000815260040160405180910390fd5b6006600084600160028110610611577f4e487b7100000000000000000000000000000000000000000000000000000000600052603260045260246000fd5b6020020135815260200190815260200160002060000160019054906101000a900473ffffffffffffffffffffffffffffffffffffffff1673ffffffffffffffffffffffffffffffffffffffff163373ffffffffffffffffffffffffffffffffffffffff16141580156106af57508173ffffffffffffffffffffffffffffffffffffffff163373ffffffffffffffffffffffffffffffffffffffff1614155b156106e6576040517feff06b9d00000000000000000000000000000000000000000000000000000000815260040160405180910390fd5b60016005600085600060028110610726577f4e487b7100000000000000000000000000000000000000000000000000000000600052603260045260246000fd5b6020020135815260200190815260200160002060000160006101000a81548160ff0219169083151502179055508260006002811061078d577f4e487b7100000000000000000000000000000000000000000000000000000000600052603260045260246000fd5b6020020135836001600281106107cc577f4e487b7100000000000000000000000000000000000000000000000000000000600052603260045260246000fd5b60200201357f712cb0bffbe0011ec1e8ed62fc42ebf28ffee192ea00fea0c42565b3239504ad846040516108009190612ab0565b60405180910390a350505050565b6108166110a8565b6006600085815260200190815260200160002060000160009054906101000a900460ff1615610871576040517fbfd7b1b100000000000000000000000000000000000000000000000000000000815260040160405180910390fd5b600073ffffffffffffffffffffffffffffffffffffffff166006600086815260200190815260200160002060000160019054906101000a900473ffffffffffffffffffffffffffffffffffffffff1673ffffffffffffffffffffffffffffffffffffffff161461090d576040517f69783db700000000000000000000000000000000000000000000000000000000815260040160405180910390fd5b600073ffffffffffffffffffffffffffffffffffffffff168373ffffffffffffffffffffffffffffffffffffffff161415610974576040517fc17540b300000000000000000000000000000000000000000000000000000000815260040160405180910390fd5b83600360003373ffffffffffffffffffffffffffffffffffffffff1673ffffffffffffffffffffffffffffffffffffffff1681526020019081526020016000206000600460003373ffffffffffffffffffffffffffffffffffffffff1673ffffffffffffffffffffffffffffffffffffffff168152602001908152602001600020548152602001908152602001600020819055506001600460003373ffffffffffffffffffffffffffffffffffffffff1673ffffffffffffffffffffffffffffffffffffffff1681526020019081526020016000206000828254610a589190612e2d565b9250508190555060016006600086815260200190815260200160002060000160006101000a81548160ff021916908315150217905550336006600086815260200190815260200160002060000160016101000a81548173ffffffffffffffffffffffffffffffffffffffff021916908373ffffffffffffffffffffffffffffffffffffffff160217905550826006600086815260200190815260200160002060010160006101000a81548173ffffffffffffffffffffffffffffffffffffffff021916908373ffffffffffffffffffffffffffffffffffffffff1602179055508181600760008781526020019081526020016000209190610b5a92919061233b565b508273ffffffffffffffffffffffffffffffffffffffff163373ffffffffffffffffffffffffffffffffffffffff16857f7b8705e3f5851e7e724bd9243be409ac5ad78951258a1f258790356aa2ef44db60405160405180910390a4610bbe6110f8565b50505050565b600160009054906101000a900473ffffffffffffffffffffffffffffffffffffffff1673ffffffffffffffffffffffffffffffffffffffff163373ffffffffffffffffffffffffffffffffffffffff1614610c4b576040517f5fc483c500000000000000000000000000000000000000000000000000000000815260040160405180910390fd5b8060028190555050565b600080610c6d60025484611f0a90919063ffffffff16565b9150610c828284611f2090919063ffffffff16565b9050915091565b6003602052816000526040600020602052806000526040600020600091509150505481565b600160009054906101000a900473ffffffffffffffffffffffffffffffffffffffff1681565b60066020528060005260406000206000915090508060000160009054906101000a900460ff16908060000160019054906101000a900473ffffffffffffffffffffffffffffffffffffffff16908060010160009054906101000a900473ffffffffffffffffffffffffffffffffffffffff16908060020154905084565b60046020528060005260406000206000915090505481565b610d716123c1565b6000600660008481526020019081526020016000206040518060800160405290816000820160009054906101000a900460ff161515151581526020016000820160019054906101000a900473ffffffffffffffffffffffffffffffffffffffff1673ffffffffffffffffffffffffffffffffffffffff1673ffffffffffffffffffffffffffffffffffffffff1681526020016001820160009054906101000a900473ffffffffffffffffffffffffffffffffffffffff1673ffffffffffffffffffffffffffffffffffffffff1673ffffffffffffffffffffffffffffffffffffffff1681526020016002820154815250509050610e6c6123c1565b81600001518160000190151590811515815250508160200151816020019073ffffffffffffffffffffffffffffffffffffffff16908173ffffffffffffffffffffffffffffffffffffffff16815250508160400151816040019073ffffffffffffffffffffffffffffffffffffffff16908173ffffffffffffffffffffffffffffffffffffffff16815250508160000151610f16576000816060018181525050809250505061106c565b6000826040015173ffffffffffffffffffffffffffffffffffffffff1663dd62ed3e8460200151306040518363ffffffff1660e01b8152600401610f5b929190612ae6565b60206040518083038186803b158015610f7357600080fd5b505afa158015610f87573d6000803e3d6000fd5b505050506040513d601f19601f82011682018060405250810190610fab91906126f4565b90506000836040015173ffffffffffffffffffffffffffffffffffffffff166370a0823185602001516040518263ffffffff1660e01b8152600401610ff09190612ab0565b60206040518083038186803b15801561100857600080fd5b505afa15801561101c573d6000803e3d6000fd5b505050506040513d601f19601f8201168201806040525081019061104091906126f4565b9050808211156110595780836060018181525050611064565b818360600181815250505b829450505050505b919050565b60056020528060005260406000206000915090508060000160009054906101000a900460ff16908060010154908060020154905083565b600260005414156110ee576040517f08c379a00000000000000000000000000000000000000000000000000000000081526004016110e590612cea565b60405180910390fd5b6002600081905550565b6001600081905550565b6005600084600060028110611140577f4e487b7100000000000000000000000000000000000000000000000000000000600052603260045260246000fd5b6020020135815260200190815260200160002060000160009054906101000a900460ff161561119b576040517fdc67407a00000000000000000000000000000000000000000000000000000000815260040160405180910390fd5b806001600481106111d5577f4e487b7100000000000000000000000000000000000000000000000000000000600052603260045260246000fd5b60200201356005600085600060028110611218577f4e487b7100000000000000000000000000000000000000000000000000000000600052603260045260246000fd5b60200201358152602001908152602001600020600101541415611267576040517f5c7580fa00000000000000000000000000000000000000000000000000000000815260040160405180910390fd5b60066000846001600281106112a5577f4e487b7100000000000000000000000000000000000000000000000000000000600052603260045260246000fd5b6020020135815260200190815260200160002060000160009054906101000a900460ff166112ff576040517f2be530bc00000000000000000000000000000000000000000000000000000000815260040160405180910390fd5b80600360048110611339577f4e487b7100000000000000000000000000000000000000000000000000000000600052603260045260246000fd5b602002013581600060048110611378577f4e487b7100000000000000000000000000000000000000000000000000000000600052603260045260246000fd5b602002013510156113b5576040517f95ae795b00000000000000000000000000000000000000000000000000000000815260040160405180910390fd5b60066000846001600281106113f3577f4e487b7100000000000000000000000000000000000000000000000000000000600052603260045260246000fd5b6020020135815260200190815260200160002060010160009054906101000a900473ffffffffffffffffffffffffffffffffffffffff1673ffffffffffffffffffffffffffffffffffffffff1663dd62ed3e6006600086600160028110611483577f4e487b7100000000000000000000000000000000000000000000000000000000600052603260045260246000fd5b6020020135815260200190815260200160002060000160019054906101000a900473ffffffffffffffffffffffffffffffffffffffff16306040518363ffffffff1660e01b81526004016114d8929190612ae6565b60206040518083038186803b1580156114f057600080fd5b505afa158015611504573d6000803e3d6000fd5b505050506040513d601f19601f8201168201806040525081019061152891906126f4565b81600360048110611562577f4e487b7100000000000000000000000000000000000000000000000000000000600052603260045260246000fd5b6020020135111561159f576040517fd8d0c64e00000000000000000000000000000000000000000000000000000000815260040160405180910390fd5b4261165362015180836002600481106115e1577f4e487b7100000000000000000000000000000000000000000000000000000000600052603260045260246000fd5b60200201356115f09190612eb4565b600560008760006002811061162e577f4e487b7100000000000000000000000000000000000000000000000000000000600052603260045260246000fd5b6020020135815260200190815260200160002060020154611f3690919063ffffffff16565b111561168b576040517f4747bf0000000000000000000000000000000000000000000000000000000000815260040160405180910390fd5b61169784848484611a7b565b6116cd576040517f09bde33900000000000000000000000000000000000000000000000000000000815260040160405180910390fd5b50505050565b60008061171d83600360048110611713577f4e487b7100000000000000000000000000000000000000000000000000000000600052603260045260246000fd5b6020020135610c55565b9150915060016005600087600060028110611761577f4e487b7100000000000000000000000000000000000000000000000000000000600052603260045260246000fd5b6020020135815260200190815260200160002060010160008282546117869190612e2d565b925050819055504260056000876000600281106117cc577f4e487b7100000000000000000000000000000000000000000000000000000000600052603260045260246000fd5b6020020135815260200190815260200160002060020181905550600073ffffffffffffffffffffffffffffffffffffffff16600660008760016002811061183c577f4e487b7100000000000000000000000000000000000000000000000000000000600052603260045260246000fd5b6020020135815260200190815260200160002060010160009054906101000a900473ffffffffffffffffffffffffffffffffffffffff1673ffffffffffffffffffffffffffffffffffffffff1614611947576118d7856001600281106118cb577f4e487b7100000000000000000000000000000000000000000000000000000000600052603260045260246000fd5b60200201358583611f4c565b61194285600160028110611914577f4e487b7100000000000000000000000000000000000000000000000000000000600052603260045260246000fd5b6020020135600160009054906101000a900473ffffffffffffffffffffffffffffffffffffffff1684611f4c565b6119fc565b61199085600160028110611984577f4e487b7100000000000000000000000000000000000000000000000000000000600052603260045260246000fd5b60200201358583611fea565b6119fb856001600281106119cd577f4e487b7100000000000000000000000000000000000000000000000000000000600052603260045260246000fd5b6020020135600160009054906101000a900473ffffffffffffffffffffffffffffffffffffffff1684611fea565b5b84600160028110611a36577f4e487b7100000000000000000000000000000000000000000000000000000000600052603260045260246000fd5b60200201357f3e0b49f5477938c9df20e76b46ba488cba6c52af1e25a905bd3a5fd16866483d8583604051611a6c929190612b46565b60405180910390a25050505050565b60007f000000000000000000000000000000000000000000000000000000000000000073ffffffffffffffffffffffffffffffffffffffff1663f398789b604051806040016040528088600060088110611afe577f4e487b7100000000000000000000000000000000000000000000000000000000600052603260045260246000fd5b6020020135815260200188600160088110611b42577f4e487b7100000000000000000000000000000000000000000000000000000000600052603260045260246000fd5b6020020135815250604051806040016040528060405180604001604052808b600260088110611b9a577f4e487b7100000000000000000000000000000000000000000000000000000000600052603260045260246000fd5b602002013581526020018b600360088110611bde577f4e487b7100000000000000000000000000000000000000000000000000000000600052603260045260246000fd5b6020020135815250815260200160405180604001604052808b600460088110611c30577f4e487b7100000000000000000000000000000000000000000000000000000000600052603260045260246000fd5b602002013581526020018b600560088110611c74577f4e487b7100000000000000000000000000000000000000000000000000000000600052603260045260246000fd5b602002013581525081525060405180604001604052808a600660088110611cc4577f4e487b7100000000000000000000000000000000000000000000000000000000600052603260045260246000fd5b602002013581526020018a600760088110611d08577f4e487b7100000000000000000000000000000000000000000000000000000000600052603260045260246000fd5b60200201358152506040518060c001604052808a600060028110611d55577f4e487b7100000000000000000000000000000000000000000000000000000000600052603260045260246000fd5b602002013560001c81526020018a600160028110611d9c577f4e487b7100000000000000000000000000000000000000000000000000000000600052603260045260246000fd5b602002013560001c81526020018973ffffffffffffffffffffffffffffffffffffffff16815260200188600060048110611dff577f4e487b7100000000000000000000000000000000000000000000000000000000600052603260045260246000fd5b6020020135815260200188600160048110611e43577f4e487b7100000000000000000000000000000000000000000000000000000000600052603260045260246000fd5b6020020135815260200188600260048110611e87577f4e487b7100000000000000000000000000000000000000000000000000000000600052603260045260246000fd5b60200201358152506040518563ffffffff1660e01b8152600401611eae9493929190612b6f565b602060405180830381600087803b158015611ec857600080fd5b505af1158015611edc573d6000803e3d6000fd5b505050506040513d601f19601f82011682018060405250810190611f00919061260d565b9050949350505050565b60008183611f189190612e83565b905092915050565b60008183611f2e9190612f0e565b905092915050565b60008183611f449190612e2d565b905092915050565b611fe56006600085815260200190815260200160002060000160019054906101000a900473ffffffffffffffffffffffffffffffffffffffff1683836006600088815260200190815260200160002060010160009054906101000a900473ffffffffffffffffffffffffffffffffffffffff1673ffffffffffffffffffffffffffffffffffffffff1661201c909392919063ffffffff16565b505050565b6040517fd37a223a00000000000000000000000000000000000000000000000000000000815260040160405180910390fd5b61209f846323b872dd60e01b85858560405160240161203d93929190612b0f565b604051602081830303815290604052907bffffffffffffffffffffffffffffffffffffffffffffffffffffffff19166020820180517bffffffffffffffffffffffffffffffffffffffffffffffffffffffff83818316178352505050506120a5565b50505050565b6000612107826040518060400160405280602081526020017f5361666545524332303a206c6f772d6c6576656c2063616c6c206661696c65648152508573ffffffffffffffffffffffffffffffffffffffff1661216d9092919063ffffffff16565b9050600081511480612129575080806020019051810190612128919061260d565b5b612168576040517f08c379a000000000000000000000000000000000000000000000000000000000815260040161215f90612cca565b60405180910390fd5b505050565b606061217c8484600085612185565b90509392505050565b6060824710156121ca576040517f08c379a00000000000000000000000000000000000000000000000000000000081526004016121c190612c8a565b60405180910390fd5b6000808673ffffffffffffffffffffffffffffffffffffffff1685876040516121f39190612a99565b60006040518083038185875af1925050503d8060008114612230576040519150601f19603f3d011682016040523d82523d6000602084013e612235565b606091505b509150915061224687838387612252565b92505050949350505050565b606083156122b5576000835114156122ad5761226d856122c8565b6122ac576040517f08c379a00000000000000000000000000000000000000000000000000000000081526004016122a390612caa565b60405180910390fd5b5b8290506122c0565b6122bf83836122eb565b5b949350505050565b6000808273ffffffffffffffffffffffffffffffffffffffff163b119050919050565b6000825111156122fe5781518083602001fd5b806040517f08c379a00000000000000000000000000000000000000000000000000000000081526004016123329190612c68565b60405180910390fd5b82805461234790613021565b90600052602060002090601f01602090048101928261236957600085556123b0565b82601f1061238257803560ff19168380011785556123b0565b828001600101855582156123b0579182015b828111156123af578235825591602001919060010190612394565b5b5090506123bd9190612417565b5090565b6040518060800160405280600015158152602001600073ffffffffffffffffffffffffffffffffffffffff168152602001600073ffffffffffffffffffffffffffffffffffffffff168152602001600081525090565b5b80821115612430576000816000905550600101612418565b5090565b600081359050612443816131e1565b92915050565b60008190508260206002028201111561246157600080fd5b92915050565b60008190508260206004028201111561247f57600080fd5b92915050565b60008190508260206008028201111561249d57600080fd5b92915050565b6000815190506124b2816131f8565b92915050565b6000813590506124c78161320f565b92915050565b60008083601f8401126124df57600080fd5b8235905067ffffffffffffffff8111156124f857600080fd5b60208301915083600182028301111561251057600080fd5b9250929050565b60008135905061252681613226565b92915050565b60008151905061253b81613226565b92915050565b60006020828403121561255357600080fd5b600061256184828501612434565b91505092915050565b6000806040838503121561257d57600080fd5b600061258b85828601612434565b925050602061259c85828601612517565b9150509250929050565b6000806000806101e085870312156125bd57600080fd5b60006125cb87828801612485565b9450506101006125dd87828801612449565b9350506101406125ef87828801612434565b92505061016061260187828801612467565b91505092959194509250565b60006020828403121561261f57600080fd5b600061262d848285016124a3565b91505092915050565b60006020828403121561264857600080fd5b6000612656848285016124b8565b91505092915050565b6000806000806060858703121561267557600080fd5b6000612683878288016124b8565b945050602061269487828801612434565b935050604085013567ffffffffffffffff8111156126b157600080fd5b6126bd878288016124cd565b925092505092959194509250565b6000602082840312156126dd57600080fd5b60006126eb84828501612517565b91505092915050565b60006020828403121561270657600080fd5b60006127148482850161252c565b91505092915050565b600061272983836127d1565b60408301905092915050565b60006127418383612a7b565b60208301905092915050565b61275681612f54565b82525050565b61276581612f42565b82525050565b61277481612f42565b82525050565b61278381612d87565b61278d8184612de5565b925061279882612d69565b8060005b838110156127c95781516127b0878261271d565b96506127bb83612dbe565b92505060018101905061279c565b505050505050565b6127da81612d92565b6127e48184612df0565b92506127ef82612d73565b8060005b838110156128205781516128078782612735565b965061281283612dcb565b9250506001810190506127f3565b505050505050565b61283181612d92565b61283b8184612dfb565b925061284682612d73565b8060005b8381101561287757815161285e8782612735565b965061286983612dcb565b92505060018101905061284a565b505050505050565b61288881612d9d565b6128928184612e06565b925061289d82612d7d565b8060005b838110156128ce5781516128b58782612735565b96506128c083612dd8565b9250506001810190506128a1565b505050505050565b6128df81612f66565b82525050565b6128ee81612f66565b82525050565b6128fd81612f72565b82525050565b600061290e82612da8565b6129188185612e11565b9350612928818560208601612fee565b80840191505092915050565b61293d81612fa6565b82525050565b61294c81612fa6565b82525050565b61295b81612fca565b82525050565b600061296c82612db3565b6129768185612e1c565b9350612986818560208601612fee565b61298f816130e0565b840191505092915050565b60006129a7602683612e1c565b91506129b2826130f1565b604082019050919050565b60006129ca601d83612e1c565b91506129d582613140565b602082019050919050565b60006129ed602a83612e1c565b91506129f882613169565b604082019050919050565b6000612a10601f83612e1c565b9150612a1b826131b8565b602082019050919050565b608082016000820151612a3c60008501826128d6565b506020820151612a4f602085018261275c565b506040820151612a626040850182612934565b506060820151612a756060850182612a7b565b50505050565b612a8481612f9c565b82525050565b612a9381612f9c565b82525050565b6000612aa58284612903565b915081905092915050565b6000602082019050612ac5600083018461276b565b92915050565b6000602082019050612ae0600083018461274d565b92915050565b6000604082019050612afb600083018561276b565b612b08602083018461276b565b9392505050565b6000606082019050612b24600083018661276b565b612b31602083018561276b565b612b3e6040830184612a8a565b949350505050565b6000604082019050612b5b600083018561276b565b612b686020830184612a8a565b9392505050565b60006101c082019050612b856000830187612828565b612b92604083018661277a565b612b9f60c0830185612828565b612bad61010083018461287f565b95945050505050565b6000608082019050612bcb60008301876128e5565b612bd8602083018661276b565b612be56040830185612943565b612bf26060830184612a8a565b95945050505050565b6000606082019050612c1060008301866128e5565b612c1d6020830185612a8a565b612c2a6040830184612a8a565b949350505050565b6000602082019050612c4760008301846128f4565b92915050565b6000602082019050612c626000830184612952565b92915050565b60006020820190508181036000830152612c828184612961565b905092915050565b60006020820190508181036000830152612ca38161299a565b9050919050565b60006020820190508181036000830152612cc3816129bd565b9050919050565b60006020820190508181036000830152612ce3816129e0565b9050919050565b60006020820190508181036000830152612d0381612a03565b9050919050565b6000608082019050612d1f6000830184612a26565b92915050565b6000602082019050612d3a6000830184612a8a565b92915050565b6000604082019050612d556000830185612a8a565b612d626020830184612a8a565b9392505050565b6000819050919050565b6000819050919050565b6000819050919050565b600060029050919050565b600060029050919050565b600060069050919050565b600081519050919050565b600081519050919050565b6000602082019050919050565b6000602082019050919050565b6000602082019050919050565b600081905092915050565b600081905092915050565b600081905092915050565b600081905092915050565b600081905092915050565b600082825260208201905092915050565b6000612e3882612f9c565b9150612e4383612f9c565b9250827fffffffffffffffffffffffffffffffffffffffffffffffffffffffffffffffff03821115612e7857612e77613053565b5b828201905092915050565b6000612e8e82612f9c565b9150612e9983612f9c565b925082612ea957612ea8613082565b5b828204905092915050565b6000612ebf82612f9c565b9150612eca83612f9c565b9250817fffffffffffffffffffffffffffffffffffffffffffffffffffffffffffffffff0483118215151615612f0357612f02613053565b5b828202905092915050565b6000612f1982612f9c565b9150612f2483612f9c565b925082821015612f3757612f36613053565b5b828203905092915050565b6000612f4d82612f7c565b9050919050565b6000612f5f82612f7c565b9050919050565b60008115159050919050565b6000819050919050565b600073ffffffffffffffffffffffffffffffffffffffff82169050919050565b6000819050919050565b6000612fb182612fb8565b9050919050565b6000612fc382612f7c565b9050919050565b6000612fd582612fdc565b9050919050565b6000612fe782612f7c565b9050919050565b60005b8381101561300c578082015181840152602081019050612ff1565b8381111561301b576000848401525b50505050565b6000600282049050600182168061303957607f821691505b6020821081141561304d5761304c6130b1565b5b50919050565b7f4e487b7100000000000000000000000000000000000000000000000000000000600052601160045260246000fd5b7f4e487b7100000000000000000000000000000000000000000000000000000000600052601260045260246000fd5b7f4e487b7100000000000000000000000000000000000000000000000000000000600052602260045260246000fd5b6000601f19601f8301169050919050565b7f416464726573733a20696e73756666696369656e742062616c616e636520666f60008201527f722063616c6c0000000000000000000000000000000000000000000000000000602082015250565b7f416464726573733a2063616c6c20746f206e6f6e2d636f6e7472616374000000600082015250565b7f5361666545524332303a204552433230206f7065726174696f6e20646964206e60008201527f6f74207375636365656400000000000000000000000000000000000000000000602082015250565b7f5265656e7472616e637947756172643a207265656e7472616e742063616c6c00600082015250565b6131ea81612f42565b81146131f557600080fd5b50565b61320181612f66565b811461320c57600080fd5b50565b61321881612f72565b811461322357600080fd5b50565b61322f81612f9c565b811461323a57600080fd5b5056fea2646970667358221220d3beac302612c09227e9297b2ac40a14174793d3bbba3658eee2fd6eec4147e064736f6c63430008040033",
  "linkReferences": {},
  "deployedLinkReferences": {}
}