{
  "_format": "hh-sol-artifact-1",
  "contractName": "ConnectedWallets",
  "sourceName": "contracts/ConnectedWallets.sol",
  "abi": [
    {
      "inputs": [
        {
          "internalType": "contract IVerifier",
          "name": "_verifier",
          "type": "address"
        }
      ],
      "stateMutability": "nonpayable",
      "type": "constructor"
    },
    {
      "inputs": [],
      "name": "AccountAlreadyActive",
      "type": "error"
    },
    {
      "inputs": [],
      "name": "AccountAlreadyExists",
      "type": "error"
    },
    {
      "inputs": [],
      "name": "CommitmentMismatch",
      "type": "error"
    },
    {
      "inputs": [],
      "name": "EarlyPaymentNotAllowed",
      "type": "error"
    },
    {
      "inputs": [],
      "name": "FunctionNotSupported",
      "type": "error"
    },
    {
      "inputs": [],
      "name": "InactiveAccount",
      "type": "error"
    },
    {
      "inputs": [],
      "name": "InvalidProof",
      "type": "error"
    },
    {
      "inputs": [],
      "name": "NotEnoughAccountBalance",
      "type": "error"
    },
    {
      "inputs": [],
      "name": "NotEnoughValue",
      "type": "error"
    },
    {
      "inputs": [],
      "name": "NotEthAccount",
      "type": "error"
    },
    {
      "inputs": [],
      "name": "NotTokenAccount",
      "type": "error"
    },
    {
      "inputs": [],
      "name": "OnlyAccountOwner",
      "type": "error"
    },
    {
      "inputs": [],
      "name": "OnlyOwner",
      "type": "error"
    },
    {
      "inputs": [],
      "name": "OnlyRelatedPartiesCanCancel",
      "type": "error"
    },
    {
      "inputs": [],
      "name": "PaymentIntentExpired",
      "type": "error"
    },
    {
      "inputs": [],
      "name": "PaymentIntentNullified",
      "type": "error"
    },
    {
      "inputs": [],
      "name": "PaymentNotAuthorized",
      "type": "error"
    },
    {
      "inputs": [],
      "name": "WalletAlreadyConnected",
      "type": "error"
    },
    {
      "inputs": [],
      "name": "ZeroAddressConnected",
      "type": "error"
    },
    {
      "inputs": [],
      "name": "ZeroTopup",
      "type": "error"
    },
    {
      "anonymous": false,
      "inputs": [
        {
          "indexed": true,
          "internalType": "bytes32",
          "name": "commitment",
          "type": "bytes32"
        }
      ],
      "name": "AccountClosed",
      "type": "event"
    },
    {
      "anonymous": false,
      "inputs": [
        {
          "indexed": true,
          "internalType": "bytes32",
          "name": "commitment",
          "type": "bytes32"
        },
        {
          "indexed": false,
          "internalType": "address",
          "name": "payee",
          "type": "address"
        },
        {
          "indexed": false,
          "internalType": "uint256",
          "name": "payment",
          "type": "uint256"
        }
      ],
      "name": "AccountDebited",
      "type": "event"
    },
    {
      "anonymous": false,
      "inputs": [
        {
          "indexed": true,
          "internalType": "bytes32",
          "name": "commitment",
          "type": "bytes32"
        },
        {
          "indexed": false,
          "internalType": "address",
          "name": "depositFor",
          "type": "address"
        },
        {
          "indexed": false,
          "internalType": "uint256",
          "name": "balance",
          "type": "uint256"
        }
      ],
      "name": "NewEthAccount",
      "type": "event"
    },
    {
      "anonymous": false,
      "inputs": [
        {
          "indexed": true,
          "internalType": "bytes32",
          "name": "commitment",
          "type": "bytes32"
        },
        {
          "indexed": false,
          "internalType": "address",
          "name": "depositFor",
          "type": "address"
        },
        {
          "indexed": false,
          "internalType": "uint256",
          "name": "amount",
          "type": "uint256"
        },
        {
          "indexed": false,
          "internalType": "address",
          "name": "token",
          "type": "address"
        }
      ],
      "name": "NewTokenAccount",
      "type": "event"
    },
    {
      "anonymous": false,
      "inputs": [
        {
          "indexed": true,
          "internalType": "bytes32",
          "name": "commitment",
          "type": "bytes32"
        },
        {
          "indexed": true,
          "internalType": "address",
          "name": "creator",
          "type": "address"
        },
        {
          "indexed": true,
          "internalType": "address",
          "name": "token",
          "type": "address"
        }
      ],
      "name": "NewWalletConnected",
      "type": "event"
    },
    {
      "anonymous": false,
      "inputs": [
        {
          "indexed": true,
          "internalType": "address",
          "name": "previousOwner",
          "type": "address"
        },
        {
          "indexed": true,
          "internalType": "address",
          "name": "newOwner",
          "type": "address"
        }
      ],
      "name": "OwnershipTransferred",
      "type": "event"
    },
    {
      "anonymous": false,
      "inputs": [
        {
          "indexed": false,
          "internalType": "address",
          "name": "account",
          "type": "address"
        }
      ],
      "name": "Paused",
      "type": "event"
    },
    {
      "anonymous": false,
      "inputs": [
        {
          "indexed": true,
          "internalType": "bytes32",
          "name": "commitment",
          "type": "bytes32"
        },
        {
          "indexed": true,
          "internalType": "bytes32",
          "name": "paymentIntent",
          "type": "bytes32"
        },
        {
          "indexed": false,
          "internalType": "address",
          "name": "payee",
          "type": "address"
        }
      ],
      "name": "PaymentIntentCancelled",
      "type": "event"
    },
    {
      "anonymous": false,
      "inputs": [
        {
          "indexed": true,
          "internalType": "bytes32",
          "name": "commitment",
          "type": "bytes32"
        },
        {
          "indexed": false,
          "internalType": "uint256",
          "name": "balance",
          "type": "uint256"
        }
      ],
      "name": "TopUpETH",
      "type": "event"
    },
    {
      "anonymous": false,
      "inputs": [
        {
          "indexed": true,
          "internalType": "bytes32",
          "name": "commitment",
          "type": "bytes32"
        },
        {
          "indexed": false,
          "internalType": "uint256",
          "name": "amount",
          "type": "uint256"
        },
        {
          "indexed": false,
          "internalType": "address",
          "name": "token",
          "type": "address"
        }
      ],
      "name": "TopUpToken",
      "type": "event"
    },
    {
      "anonymous": false,
      "inputs": [
        {
          "indexed": false,
          "internalType": "address",
          "name": "account",
          "type": "address"
        }
      ],
      "name": "Unpaused",
      "type": "event"
    },
    {
      "inputs": [
        {
          "internalType": "address",
          "name": "",
          "type": "address"
        }
      ],
      "name": "accountCounter",
      "outputs": [
        {
          "internalType": "uint256",
          "name": "",
          "type": "uint256"
        }
      ],
      "stateMutability": "view",
      "type": "function"
    },
    {
      "inputs": [
        {
          "internalType": "bytes32",
          "name": "",
          "type": "bytes32"
        }
      ],
      "name": "accounts",
      "outputs": [
        {
          "internalType": "bool",
          "name": "active",
          "type": "bool"
        },
        {
          "internalType": "address",
          "name": "creator",
          "type": "address"
        },
        {
          "internalType": "contract IERC20",
          "name": "token",
          "type": "address"
        },
        {
          "internalType": "uint256",
          "name": "balance",
          "type": "uint256"
        }
      ],
      "stateMutability": "view",
      "type": "function"
    },
    {
      "inputs": [
        {
          "internalType": "uint256",
          "name": "amount",
          "type": "uint256"
        }
      ],
      "name": "calculateFee",
      "outputs": [
        {
          "internalType": "uint256",
          "name": "ownerFee",
          "type": "uint256"
        },
        {
          "internalType": "uint256",
          "name": "payment",
          "type": "uint256"
        }
      ],
      "stateMutability": "view",
      "type": "function"
    },
    {
      "inputs": [
        {
          "internalType": "uint256[8]",
          "name": "proof",
          "type": "uint256[8]"
        },
        {
          "internalType": "bytes32[2]",
          "name": "hashes",
          "type": "bytes32[2]"
        },
        {
          "internalType": "address",
          "name": "payee",
          "type": "address"
        },
        {
          "internalType": "uint256[4]",
          "name": "debit",
          "type": "uint256[4]"
        }
      ],
      "name": "cancelPaymentIntent",
      "outputs": [],
      "stateMutability": "nonpayable",
      "type": "function"
    },
    {
      "inputs": [
        {
          "internalType": "address",
          "name": "",
          "type": "address"
        },
        {
          "internalType": "uint256",
          "name": "",
          "type": "uint256"
        }
      ],
      "name": "commitments",
      "outputs": [
        {
          "internalType": "bytes32",
          "name": "",
          "type": "bytes32"
        }
      ],
      "stateMutability": "view",
      "type": "function"
    },
    {
      "inputs": [
        {
          "internalType": "bytes32",
          "name": "_commitment",
          "type": "bytes32"
        },
        {
          "internalType": "address",
          "name": "token",
          "type": "address"
        },
        {
          "internalType": "string",
          "name": "encryptedNote",
          "type": "string"
        }
      ],
      "name": "connectWallet",
      "outputs": [],
      "stateMutability": "nonpayable",
      "type": "function"
    },
    {
      "inputs": [
        {
          "internalType": "bytes32",
          "name": "",
          "type": "bytes32"
        }
      ],
      "name": "connectedWalletAlready",
      "outputs": [
        {
          "internalType": "bool",
          "name": "",
          "type": "bool"
        }
      ],
      "stateMutability": "view",
      "type": "function"
    },
    {
      "inputs": [
        {
          "internalType": "uint256[8]",
          "name": "proof",
          "type": "uint256[8]"
        },
        {
          "internalType": "bytes32[2]",
          "name": "hashes",
          "type": "bytes32[2]"
        },
        {
          "internalType": "address",
          "name": "payee",
          "type": "address"
        },
        {
          "internalType": "uint256[4]",
          "name": "debit",
          "type": "uint256[4]"
        }
      ],
      "name": "directdebit",
      "outputs": [],
      "stateMutability": "nonpayable",
      "type": "function"
    },
    {
      "inputs": [
        {
          "internalType": "bytes32",
          "name": "commitment",
          "type": "bytes32"
        }
      ],
      "name": "disconnectWallet",
      "outputs": [],
      "stateMutability": "nonpayable",
      "type": "function"
    },
    {
      "inputs": [
        {
          "internalType": "bytes32",
          "name": "",
          "type": "bytes32"
        }
      ],
      "name": "encryptedNotes",
      "outputs": [
        {
          "internalType": "string",
          "name": "",
          "type": "string"
        }
      ],
      "stateMutability": "view",
      "type": "function"
    },
    {
      "inputs": [
        {
          "internalType": "bytes32",
          "name": "commitment",
          "type": "bytes32"
        }
      ],
      "name": "getAccount",
      "outputs": [
        {
          "components": [
            {
              "internalType": "bool",
              "name": "active",
              "type": "bool"
            },
            {
              "internalType": "address",
              "name": "creator",
              "type": "address"
            },
            {
              "internalType": "contract IERC20",
              "name": "token",
              "type": "address"
            },
            {
              "internalType": "uint256",
              "name": "balance",
              "type": "uint256"
            }
          ],
          "internalType": "struct AccountData",
          "name": "",
          "type": "tuple"
        }
      ],
      "stateMutability": "view",
      "type": "function"
    },
    {
      "inputs": [
        {
          "internalType": "address",
          "name": "_creator",
          "type": "address"
        },
        {
          "internalType": "address",
          "name": "_token",
          "type": "address"
        }
      ],
      "name": "getHashByAddresses",
      "outputs": [
        {
          "internalType": "bytes32",
          "name": "",
          "type": "bytes32"
        }
      ],
      "stateMutability": "pure",
      "type": "function"
    },
    {
      "inputs": [],
      "name": "owner",
      "outputs": [
        {
          "internalType": "address",
          "name": "",
          "type": "address"
        }
      ],
      "stateMutability": "view",
      "type": "function"
    },
    {
      "inputs": [],
      "name": "ownerFeeDivider",
      "outputs": [
        {
          "internalType": "uint256",
          "name": "",
          "type": "uint256"
        }
      ],
      "stateMutability": "view",
      "type": "function"
    },
    {
      "inputs": [],
      "name": "paused",
      "outputs": [
        {
          "internalType": "bool",
          "name": "",
          "type": "bool"
        }
      ],
      "stateMutability": "view",
      "type": "function"
    },
    {
      "inputs": [
        {
          "internalType": "bytes32",
          "name": "",
          "type": "bytes32"
        }
      ],
      "name": "paymentIntents",
      "outputs": [
        {
          "internalType": "bool",
          "name": "isNullified",
          "type": "bool"
        },
        {
          "internalType": "uint256",
          "name": "withdrawalCount",
          "type": "uint256"
        },
        {
          "internalType": "uint256",
          "name": "lastDate",
          "type": "uint256"
        }
      ],
      "stateMutability": "view",
      "type": "function"
    },
    {
      "inputs": [],
      "name": "renounceOwnership",
      "outputs": [],
      "stateMutability": "nonpayable",
      "type": "function"
    },
    {
      "inputs": [],
      "name": "togglePause",
      "outputs": [],
      "stateMutability": "nonpayable",
      "type": "function"
    },
    {
      "inputs": [
        {
          "internalType": "address",
          "name": "newOwner",
          "type": "address"
        }
      ],
      "name": "transferOwnership",
      "outputs": [],
      "stateMutability": "nonpayable",
      "type": "function"
    },
    {
      "inputs": [
        {
          "internalType": "uint256",
          "name": "newFeeDivider",
          "type": "uint256"
        }
      ],
      "name": "updateFee",
      "outputs": [],
      "stateMutability": "nonpayable",
      "type": "function"
    },
    {
      "inputs": [],
      "name": "verifier",
      "outputs": [
        {
          "internalType": "contract IVerifier",
          "name": "",
          "type": "address"
        }
      ],
      "stateMutability": "view",
      "type": "function"
    }
  ],
  "bytecode": "0x60a060405260646002553480156200001657600080fd5b5060405162001e5b38038062001e5b8339810160408190526200003991620000c5565b60016000819055805460ff191690558062000054336200006b565b60601b6001600160601b03191660805250620000f5565b600180546001600160a01b03838116610100818102610100600160a81b031985161790945560405193909204169182907f8be0079c531659141344cd1fd0a4f28419497f9722a3daafe3b4186f6b6457e090600090a35050565b600060208284031215620000d7578081fd5b81516001600160a01b0381168114620000ee578182fd5b9392505050565b60805160601c611d406200011b600039600081816101e501526111d50152611d406000f3fe608060405234801561001057600080fd5b50600436106101775760003560e01c8063715018a6116100d8578063bc529c431161008c578063d1de501111610066578063d1de5011146103fd578063f2fde38b14610453578063fb60c31a1461046657600080fd5b8063bc529c431461035f578063c4ae3168146103d5578063cc8887f1146103dd57600080fd5b80639012c4a8116100bd5780639012c4a8146102f957806399a5d7471461030c57806399ca856c1461033457600080fd5b8063715018a6146102db5780638da5cb5b146102e357600080fd5b80632da720691161012f578063344649221161011457806334464922146102aa57806354bc3958146102bd5780635c975abb146102d057600080fd5b80632da720691461021f5780633281a7121461025257600080fd5b8063209fe78311610160578063209fe783146101b85780632a28c268146101cd5780632b7ac3f3146101e057600080fd5b8063094b4b6d1461017c57806314107a9414610198575b600080fd5b61018560025481565b6040519081526020015b60405180910390f35b6101ab6101a6366004611a77565b6104b6565b60405161018f9190611bec565b6101cb6101c6366004611a77565b610550565b005b6101cb6101db3660046119ee565b61068d565b6102077f000000000000000000000000000000000000000000000000000000000000000081565b6040516001600160a01b03909116815260200161018f565b61024261022d366004611a77565b60086020526000908152604090205460ff1681565b604051901515815260200161018f565b610185610260366004611993565b6040516bffffffffffffffffffffffff19606084811b8216602084015283901b16603482015260009060480160405160208183030381529060405280519060200120905092915050565b6101cb6102b83660046119ee565b6106c4565b6101cb6102cb366004611a8f565b6107c2565b60015460ff16610242565b6101cb610a6b565b60015461010090046001600160a01b0316610207565b6101cb610307366004611a77565b610a7f565b61031f61031a366004611a77565b610a8c565b6040805192835260208301919091520161018f565b6101856103423660046119c5565b600360209081526000928352604080842090915290825290205481565b6103a361036d366004611a77565b60066020526000908152604090208054600182015460029092015460ff8216926001600160a01b03610100909304831692169084565b60405161018f949392919093151584526001600160a01b03928316602085015291166040830152606082015260800190565b6101cb610ab7565b6101856103eb366004611979565b60046020526000908152604090205481565b61041061040b366004611a77565b610ada565b604080518251151581526020808401516001600160a01b03908116918301919091528383015116918101919091526060918201519181019190915260800161018f565b6101cb610461366004611979565b610ce8565b610499610474366004611a77565b60056020526000908152604090208054600182015460029092015460ff909116919083565b60408051931515845260208401929092529082015260600161018f565b600760205260009081526040902080546104cf90611cb9565b80601f01602080910402602001604051908101604052809291908181526020018280546104fb90611cb9565b80156105485780601f1061051d57610100808354040283529160200191610548565b820191906000526020600020905b81548152906001019060200180831161052b57829003601f168201915b505050505081565b610558610d7a565b60008181526006602052604090205460ff1661058757604051630af94c2f60e21b815260040160405180910390fd5b60008181526006602052604090205461010090046001600160a01b031633146105dc576040517f244e5fa600000000000000000000000000000000000000000000000000000000815260040160405180910390fd5b6000818152600660209081526040808320805460ff19168082556001909101548251610100909204606090811b6bffffffffffffffffffffffff199081168487015291901b1660348201528151602881830301815260489091019091528051910120600081815260086020526040808220805460ff191690555191925083917f871b627720fc9f3ba5602fde62d03058c14f7aaae66723d46303769c253632f89190a25061068a6001600055565b50565b610695610d7a565b61069d610dd4565b6106a984848484610e27565b6106b48383836110a7565b6106be6001600055565b50505050565b6106d0848484846111d1565b6106ed576040516309bde33960e01b815260040160405180910390fd5b60208381013560009081526006909152604090205461010090046001600160a01b031633148015906107285750336001600160a01b03831614155b1561075f576040517feff06b9d00000000000000000000000000000000000000000000000000000000815260040160405180910390fd5b8235600081815260056020908152604091829020805460ff1916600117905581516001600160a01b0386168152915181870135927f712cb0bffbe0011ec1e8ed62fc42ebf28ffee192ea00fea0c42565b3239504ad92908290030190a350505050565b6107ca610d7a565b60008481526006602052604090205460ff1615610813576040517fbfd7b1b100000000000000000000000000000000000000000000000000000000815260040160405180910390fd5b60008481526006602052604090205461010090046001600160a01b031615610867576040517f69783db700000000000000000000000000000000000000000000000000000000815260040160405180910390fd5b6001600160a01b0383166108a7576040517fc17540b300000000000000000000000000000000000000000000000000000000815260040160405180910390fd5b60006108f833856040516bffffffffffffffffffffffff19606084811b8216602084015283901b16603482015260009060480160405160208183030381529060405280519060200120905092915050565b60008181526008602052604090205490915060ff1615610944576040517fce92a71500000000000000000000000000000000000000000000000000000000815260040160405180910390fd5b6000818152600860209081526040808320805460ff1916600190811790915533808552600384528285206004808652848720805488529186529386208b90559085529190925280549192909161099b908490611c1f565b90915550506000858152600660209081526040808320805460017fffffffffffffffffffffff000000000000000000000000000000000000000000909116610100330217811782550180547fffffffffffffffffffffffff0000000000000000000000000000000000000000166001600160a01b03891617905560079091529020610a279084846118c4565b506040516001600160a01b03851690339087907f7b8705e3f5851e7e724bd9243be409ac5ad78951258a1f258790356aa2ef44db90600090a4506106be6001600055565b610a73611405565b610a7d6000611465565b565b610a87611405565b600255565b600080610aa4600254846114d690919063ffffffff16565b9150610ab083836114e9565b9050915091565b610abf611405565b60015460ff1615610ad257610a7d6114f5565b610a7d611547565b60408051608080820183526000808352602080840182905283850182905260608085018390528683526006825285832086518086018852815460ff81161515825261010090046001600160a01b0390811682860190815260018401548216838b019081526002909401548386015289519788018a52868852948701868152988701868152938701959095528051151586529251841690965294519091169093528251919291610b9157600060608201529392505050565b60408083015160208401519151636eb1769f60e11b81526001600160a01b0392831660048201523060248201526000929091169063dd62ed3e9060440160206040518083038186803b158015610be657600080fd5b505afa158015610bfa573d6000803e3d6000fd5b505050506040513d601f19601f82011682018060405250810190610c1e9190611b11565b604080850151602086015191517f70a082310000000000000000000000000000000000000000000000000000000081526001600160a01b0392831660048201529293506000929116906370a082319060240160206040518083038186803b158015610c8857600080fd5b505afa158015610c9c573d6000803e3d6000fd5b505050506040513d601f19601f82011682018060405250810190610cc09190611b11565b905080821115610cd65760608301819052610cde565b606083018290525b5090949350505050565b610cf0611405565b6001600160a01b038116610d715760405162461bcd60e51b815260206004820152602660248201527f4f776e61626c653a206e6577206f776e657220697320746865207a65726f206160448201527f646472657373000000000000000000000000000000000000000000000000000060648201526084015b60405180910390fd5b61068a81611465565b60026000541415610dcd5760405162461bcd60e51b815260206004820152601f60248201527f5265656e7472616e637947756172643a207265656e7472616e742063616c6c006044820152606401610d68565b6002600055565b60015460ff1615610a7d5760405162461bcd60e51b815260206004820152601060248201527f5061757361626c653a20706175736564000000000000000000000000000000006044820152606401610d68565b823560009081526005602052604090205460ff1615610e72576040517fdc67407a00000000000000000000000000000000000000000000000000000000815260040160405180910390fd5b8235600090815260056020908152604090912060010154908201351415610ec5576040517f5c7580fa00000000000000000000000000000000000000000000000000000000815260040160405180910390fd5b60208084013560009081526006909152604090205460ff16610efa57604051630af94c2f60e21b815260040160405180910390fd5b606081013581351015610f39576040517f95ae795b00000000000000000000000000000000000000000000000000000000815260040160405180910390fd5b602083810135600090815260068252604090819020600181015490548251636eb1769f60e11b81526001600160a01b0361010090920482166004820152306024820152925191169263dd62ed3e9260448082019391829003018186803b158015610fa257600080fd5b505afa158015610fb6573d6000803e3d6000fd5b505050506040513d601f19601f82011682018060405250810190610fda9190611b11565b60608201351115611017576040517fd8d0c64e00000000000000000000000000000000000000000000000000000000815260040160405180910390fd5b4261104661102c604084013562015180611c57565b853560009081526005602052604090206002015490611582565b111561107e576040517f4747bf0000000000000000000000000000000000000000000000000000000000815260040160405180910390fd5b61108a848484846111d1565b6106be576040516309bde33960e01b815260040160405180910390fd5b6000806110b76060840135610a8c565b8635600090815260056020526040812060019081018054949650929450926110e0908490611c1f565b9091555050843560009081526005602090815260408083204260029091015581880135835260069091529020600101546001600160a01b0316156111535761112d6020860135858361158e565b60015461114e9060208701359061010090046001600160a01b03168461158e565b611183565b611162602086013585836115c7565b6001546111839060208701359061010090046001600160a01b0316846115c7565b604080516001600160a01b03861681526020818101849052870135917f3e0b49f5477938c9df20e76b46ba488cba6c52af1e25a905bd3a5fd16866483d910160405180910390a25050505050565b60007f00000000000000000000000000000000000000000000000000000000000000006001600160a01b031663f398789b60405180604001604052808860006008811061122e57634e487b7160e01b600052603260045260246000fd5b602002013581526020018860016008811061125957634e487b7160e01b600052603260045260246000fd5b602002013590526040805160808101825289820135918101918252908190606082018b60036020020135815250815260200160405180604001604052808b6004600881106112b757634e487b7160e01b600052603260045260246000fd5b602002013581526020018b6005600881106112e257634e487b7160e01b600052603260045260246000fd5b60200201359052905260408051808201909152808a6006602002013581526020018a60076008811061132457634e487b7160e01b600052603260045260246000fd5b602090810291909101359091526040805160c0810182528b3581528b830135818401526001600160a01b038b1681830152893560608201529189013560808301528881013560a0830152517fffffffff0000000000000000000000000000000000000000000000000000000060e087901b1681526113a89493929190600401611b68565b602060405180830381600087803b1580156113c257600080fd5b505af11580156113d6573d6000803e3d6000fd5b505050506040513d601f19601f820116820180604052508101906113fa9190611a57565b90505b949350505050565b6001546001600160a01b03610100909104163314610a7d5760405162461bcd60e51b815260206004820181905260248201527f4f776e61626c653a2063616c6c6572206973206e6f7420746865206f776e65726044820152606401610d68565b600180546001600160a01b038381166101008181027fffffffffffffffffffffff0000000000000000000000000000000000000000ff85161790945560405193909204169182907f8be0079c531659141344cd1fd0a4f28419497f9722a3daafe3b4186f6b6457e090600090a35050565b60006114e28284611c37565b9392505050565b60006114e28284611c76565b6114fd6115f9565b6001805460ff191690557f5db9ee0a495bf2e6ff9c91a7834c1ba4fdd244a5e8aa4e537bd38aeae4b073aa335b6040516001600160a01b03909116815260200160405180910390a1565b61154f610dd4565b6001805460ff1916811790557f62e78cea01bee320cd4e420270b5ea74000d11b0c9f74754ebdbfc544b05a2583361152a565b60006114e28284611c1f565b600083815260066020526040902080546001909101546115c2916001600160a01b039182169161010090910416848461164b565b505050565b6040517fd37a223a00000000000000000000000000000000000000000000000000000000815260040160405180910390fd5b60015460ff16610a7d5760405162461bcd60e51b815260206004820152601460248201527f5061757361626c653a206e6f74207061757365640000000000000000000000006044820152606401610d68565b604080516001600160a01b038581166024830152848116604483015260648083018590528351808403909101815260849092018352602080830180517bffffffffffffffffffffffffffffffffffffffffffffffffffffffff167f23b872dd0000000000000000000000000000000000000000000000000000000017905283518085019094528084527f5361666545524332303a206c6f772d6c6576656c2063616c6c206661696c6564908401526106be928792916000916117119185169084906117a4565b90508051600014806117325750808060200190518101906117329190611a57565b6115c25760405162461bcd60e51b815260206004820152602a60248201527f5361666545524332303a204552433230206f7065726174696f6e20646964206e60448201527f6f742073756363656564000000000000000000000000000000000000000000006064820152608401610d68565b60606113fd848460008585600080866001600160a01b031685876040516117cb9190611b4c565b60006040518083038185875af1925050503d8060008114611808576040519150601f19603f3d011682016040523d82523d6000602084013e61180d565b606091505b509150915061181e87838387611829565b979650505050505050565b6060831561189557825161188e576001600160a01b0385163b61188e5760405162461bcd60e51b815260206004820152601d60248201527f416464726573733a2063616c6c20746f206e6f6e2d636f6e74726163740000006044820152606401610d68565b50816113fd565b6113fd83838151156118aa5781518083602001fd5b8060405162461bcd60e51b8152600401610d689190611bec565b8280546118d090611cb9565b90600052602060002090601f0160209004810192826118f25760008555611938565b82601f1061190b5782800160ff19823516178555611938565b82800160010185558215611938579182015b8281111561193857823582559160200191906001019061191d565b50611944929150611948565b5090565b5b808211156119445760008155600101611949565b80356001600160a01b038116811461197457600080fd5b919050565b60006020828403121561198a578081fd5b6114e28261195d565b600080604083850312156119a5578081fd5b6119ae8361195d565b91506119bc6020840161195d565b90509250929050565b600080604083850312156119d7578182fd5b6119e08361195d565b946020939093013593505050565b6000806000806101e0808688031215611a05578283fd5b610100860187811115611a16578384fd5b869550610140870188811115611a2a578485fd5b819550611a368161195d565b94505050868187011115611a48578182fd5b50929591945092610160019150565b600060208284031215611a68578081fd5b815180151581146114e2578182fd5b600060208284031215611a88578081fd5b5035919050565b60008060008060608587031215611aa4578384fd5b84359350611ab46020860161195d565b9250604085013567ffffffffffffffff80821115611ad0578384fd5b818701915087601f830112611ae3578384fd5b813581811115611af1578485fd5b886020828501011115611b02578485fd5b95989497505060200194505050565b600060208284031215611b22578081fd5b5051919050565b8060005b60028110156106be578151845260209384019390910190600101611b2d565b60008251611b5e818460208701611c8d565b9190910192915050565b6101c08101611b778287611b29565b60408083018660005b6002811015611ba757611b94838351611b29565b9183019160209190910190600101611b80565b50505050611bb860c0830185611b29565b61010082018360005b6006811015611be0578151835260209283019290910190600101611bc1565b50505095945050505050565b6020815260008251806020840152611c0b816040850160208701611c8d565b601f01601f19169190910160400192915050565b60008219821115611c3257611c32611cf4565b500190565b600082611c5257634e487b7160e01b81526012600452602481fd5b500490565b6000816000190483118215151615611c7157611c71611cf4565b500290565b600082821015611c8857611c88611cf4565b500390565b60005b83811015611ca8578181015183820152602001611c90565b838111156106be5750506000910152565b600181811c90821680611ccd57607f821691505b60208210811415611cee57634e487b7160e01b600052602260045260246000fd5b50919050565b634e487b7160e01b600052601160045260246000fdfea26469706673582212204692cdd4b3f63e9aa44ddaa44924dccd6da874e02ff7ff0f3be0463cc5312b3664736f6c63430008040033",
  "linkReferences": {},
  "deployedLinkReferences": {}
}