{
  "_format": "hh-sol-artifact-1",
  "contractName": "ConnectedWallets",
  "sourceName": "contracts/ConnectedWallets.sol",
  "abi": [
    {
      "inputs": [
        {
          "internalType": "contract IVerifier",
          "name": "_verifier",
          "type": "address"
        }
      ],
      "stateMutability": "nonpayable",
      "type": "constructor"
    },
    {
      "inputs": [],
      "name": "AccountAlreadyActive",
      "type": "error"
    },
    {
      "inputs": [],
      "name": "AccountAlreadyExists",
      "type": "error"
    },
    {
      "inputs": [],
      "name": "CommitmentMismatch",
      "type": "error"
    },
    {
      "inputs": [],
      "name": "EarlyPaymentNotAllowed",
      "type": "error"
    },
    {
      "inputs": [],
      "name": "FunctionNotSupported",
      "type": "error"
    },
    {
      "inputs": [],
      "name": "InactiveAccount",
      "type": "error"
    },
    {
      "inputs": [],
      "name": "InvalidProof",
      "type": "error"
    },
    {
      "inputs": [],
      "name": "NotEnoughAccountBalance",
      "type": "error"
    },
    {
      "inputs": [],
      "name": "NotEnoughValue",
      "type": "error"
    },
    {
      "inputs": [],
      "name": "NotEthAccount",
      "type": "error"
    },
    {
      "inputs": [],
      "name": "NotTokenAccount",
      "type": "error"
    },
    {
      "inputs": [],
      "name": "OnlyAccountOwner",
      "type": "error"
    },
    {
      "inputs": [],
      "name": "OnlyOwner",
      "type": "error"
    },
    {
      "inputs": [],
      "name": "OnlyRelatedPartiesCanCancel",
      "type": "error"
    },
    {
      "inputs": [],
      "name": "PaymentIntentExpired",
      "type": "error"
    },
    {
      "inputs": [],
      "name": "PaymentIntentNullified",
      "type": "error"
    },
    {
      "inputs": [],
      "name": "PaymentNotAuthorized",
      "type": "error"
    },
    {
      "inputs": [],
      "name": "ZeroAddressConnected",
      "type": "error"
    },
    {
      "inputs": [],
      "name": "ZeroTopup",
      "type": "error"
    },
    {
      "anonymous": false,
      "inputs": [
        {
          "indexed": true,
          "internalType": "bytes32",
          "name": "commitment",
          "type": "bytes32"
        }
      ],
      "name": "AccountClosed",
      "type": "event"
    },
    {
      "anonymous": false,
      "inputs": [
        {
          "indexed": true,
          "internalType": "bytes32",
          "name": "commitment",
          "type": "bytes32"
        },
        {
          "indexed": false,
          "internalType": "address",
          "name": "payee",
          "type": "address"
        },
        {
          "indexed": false,
          "internalType": "uint256",
          "name": "payment",
          "type": "uint256"
        }
      ],
      "name": "AccountDebited",
      "type": "event"
    },
    {
      "anonymous": false,
      "inputs": [
        {
          "indexed": true,
          "internalType": "bytes32",
          "name": "commitment",
          "type": "bytes32"
        },
        {
          "indexed": false,
          "internalType": "address",
          "name": "depositFor",
          "type": "address"
        },
        {
          "indexed": false,
          "internalType": "uint256",
          "name": "balance",
          "type": "uint256"
        }
      ],
      "name": "NewEthAccount",
      "type": "event"
    },
    {
      "anonymous": false,
      "inputs": [
        {
          "indexed": true,
          "internalType": "bytes32",
          "name": "commitment",
          "type": "bytes32"
        },
        {
          "indexed": false,
          "internalType": "address",
          "name": "depositFor",
          "type": "address"
        },
        {
          "indexed": false,
          "internalType": "uint256",
          "name": "amount",
          "type": "uint256"
        },
        {
          "indexed": false,
          "internalType": "address",
          "name": "token",
          "type": "address"
        }
      ],
      "name": "NewTokenAccount",
      "type": "event"
    },
    {
      "anonymous": false,
      "inputs": [
        {
          "indexed": true,
          "internalType": "bytes32",
          "name": "commitment",
          "type": "bytes32"
        },
        {
          "indexed": true,
          "internalType": "address",
          "name": "creator",
          "type": "address"
        },
        {
          "indexed": true,
          "internalType": "address",
          "name": "token",
          "type": "address"
        }
      ],
      "name": "NewWalletConnected",
      "type": "event"
    },
    {
      "anonymous": false,
      "inputs": [
        {
          "indexed": true,
          "internalType": "bytes32",
          "name": "commitment",
          "type": "bytes32"
        },
        {
          "indexed": true,
          "internalType": "bytes32",
          "name": "paymentIntent",
          "type": "bytes32"
        },
        {
          "indexed": false,
          "internalType": "address",
          "name": "payee",
          "type": "address"
        }
      ],
      "name": "PaymentIntentCancelled",
      "type": "event"
    },
    {
      "anonymous": false,
      "inputs": [
        {
          "indexed": true,
          "internalType": "bytes32",
          "name": "commitment",
          "type": "bytes32"
        },
        {
          "indexed": false,
          "internalType": "uint256",
          "name": "balance",
          "type": "uint256"
        }
      ],
      "name": "TopUpETH",
      "type": "event"
    },
    {
      "anonymous": false,
      "inputs": [
        {
          "indexed": true,
          "internalType": "bytes32",
          "name": "commitment",
          "type": "bytes32"
        },
        {
          "indexed": false,
          "internalType": "uint256",
          "name": "amount",
          "type": "uint256"
        },
        {
          "indexed": false,
          "internalType": "address",
          "name": "token",
          "type": "address"
        }
      ],
      "name": "TopUpToken",
      "type": "event"
    },
    {
      "inputs": [],
      "name": "_owner",
      "outputs": [
        {
          "internalType": "address payable",
          "name": "",
          "type": "address"
        }
      ],
      "stateMutability": "view",
      "type": "function"
    },
    {
      "inputs": [
        {
          "internalType": "address",
          "name": "",
          "type": "address"
        }
      ],
      "name": "accountCounter",
      "outputs": [
        {
          "internalType": "uint256",
          "name": "",
          "type": "uint256"
        }
      ],
      "stateMutability": "view",
      "type": "function"
    },
    {
      "inputs": [
        {
          "internalType": "bytes32",
          "name": "",
          "type": "bytes32"
        }
      ],
      "name": "accounts",
      "outputs": [
        {
          "internalType": "bool",
          "name": "active",
          "type": "bool"
        },
        {
          "internalType": "address",
          "name": "creator",
          "type": "address"
        },
        {
          "internalType": "contract IERC20",
          "name": "token",
          "type": "address"
        },
        {
          "internalType": "uint256",
          "name": "balance",
          "type": "uint256"
        }
      ],
      "stateMutability": "view",
      "type": "function"
    },
    {
      "inputs": [
        {
          "internalType": "uint256",
          "name": "amount",
          "type": "uint256"
        }
      ],
      "name": "calculateFee",
      "outputs": [
        {
          "internalType": "uint256",
          "name": "ownerFee",
          "type": "uint256"
        },
        {
          "internalType": "uint256",
          "name": "payment",
          "type": "uint256"
        }
      ],
      "stateMutability": "view",
      "type": "function"
    },
    {
      "inputs": [
        {
          "internalType": "uint256[8]",
          "name": "proof",
          "type": "uint256[8]"
        },
        {
          "internalType": "bytes32[2]",
          "name": "hashes",
          "type": "bytes32[2]"
        },
        {
          "internalType": "address",
          "name": "payee",
          "type": "address"
        },
        {
          "internalType": "uint256[4]",
          "name": "debit",
          "type": "uint256[4]"
        }
      ],
      "name": "cancelPaymentIntent",
      "outputs": [],
      "stateMutability": "nonpayable",
      "type": "function"
    },
    {
      "inputs": [
        {
          "internalType": "address",
          "name": "",
          "type": "address"
        },
        {
          "internalType": "uint256",
          "name": "",
          "type": "uint256"
        }
      ],
      "name": "commitments",
      "outputs": [
        {
          "internalType": "bytes32",
          "name": "",
          "type": "bytes32"
        }
      ],
      "stateMutability": "view",
      "type": "function"
    },
    {
      "inputs": [
        {
          "internalType": "bytes32",
          "name": "_commitment",
          "type": "bytes32"
        },
        {
          "internalType": "address",
          "name": "token",
          "type": "address"
        },
        {
          "internalType": "string",
          "name": "encryptedNote",
          "type": "string"
        }
      ],
      "name": "connectWallet",
      "outputs": [],
      "stateMutability": "nonpayable",
      "type": "function"
    },
    {
      "inputs": [
        {
          "internalType": "uint256[8]",
          "name": "proof",
          "type": "uint256[8]"
        },
        {
          "internalType": "bytes32[2]",
          "name": "hashes",
          "type": "bytes32[2]"
        },
        {
          "internalType": "address",
          "name": "payee",
          "type": "address"
        },
        {
          "internalType": "uint256[4]",
          "name": "debit",
          "type": "uint256[4]"
        }
      ],
      "name": "directdebit",
      "outputs": [],
      "stateMutability": "nonpayable",
      "type": "function"
    },
    {
      "inputs": [
        {
          "internalType": "bytes32",
          "name": "commitment",
          "type": "bytes32"
        }
      ],
      "name": "disconnectWallet",
      "outputs": [],
      "stateMutability": "nonpayable",
      "type": "function"
    },
    {
      "inputs": [
        {
          "internalType": "bytes32",
          "name": "",
          "type": "bytes32"
        }
      ],
      "name": "encryptedNotes",
      "outputs": [
        {
          "internalType": "string",
          "name": "",
          "type": "string"
        }
      ],
      "stateMutability": "view",
      "type": "function"
    },
    {
      "inputs": [],
      "name": "ownerFeeDivider",
      "outputs": [
        {
          "internalType": "uint256",
          "name": "",
          "type": "uint256"
        }
      ],
      "stateMutability": "view",
      "type": "function"
    },
    {
      "inputs": [
        {
          "internalType": "bytes32",
          "name": "",
          "type": "bytes32"
        }
      ],
      "name": "paymentIntents",
      "outputs": [
        {
          "internalType": "bool",
          "name": "isNullified",
          "type": "bool"
        },
        {
          "internalType": "uint256",
          "name": "withdrawalCount",
          "type": "uint256"
        },
        {
          "internalType": "uint256",
          "name": "lastDate",
          "type": "uint256"
        }
      ],
      "stateMutability": "view",
      "type": "function"
    },
    {
      "inputs": [
        {
          "internalType": "uint256",
          "name": "newFeeDivider",
          "type": "uint256"
        }
      ],
      "name": "updateFee",
      "outputs": [],
      "stateMutability": "nonpayable",
      "type": "function"
    },
    {
      "inputs": [],
      "name": "verifier",
      "outputs": [
        {
          "internalType": "contract IVerifier",
          "name": "",
          "type": "address"
        }
      ],
      "stateMutability": "view",
      "type": "function"
    }
  ],
  "bytecode": "0x60a060405260646002553480156200001657600080fd5b5060405162002fcd38038062002fcd83398181016040528101906200003c9190620000dc565b8060016000819055508073ffffffffffffffffffffffffffffffffffffffff1660808173ffffffffffffffffffffffffffffffffffffffff1660601b8152505033600160006101000a81548173ffffffffffffffffffffffffffffffffffffffff021916908373ffffffffffffffffffffffffffffffffffffffff16021790555050506200016a565b600081519050620000d68162000150565b92915050565b600060208284031215620000ef57600080fd5b6000620000ff84828501620000c5565b91505092915050565b6000620001158262000130565b9050919050565b6000620001298262000108565b9050919050565b600073ffffffffffffffffffffffffffffffffffffffff82169050919050565b6200015b816200011c565b81146200016757600080fd5b50565b60805160601c612e3d6200019060003960008181610534015261173c0152612e3d6000f3fe608060405234801561001057600080fd5b50600436106100ea5760003560e01c80639012c4a81161008c578063b2bdfa7b11610066578063b2bdfa7b14610248578063bc529c4314610266578063cc8887f114610299578063fb60c31a146102c9576100ea565b80639012c4a8146101cb57806399a5d747146101e757806399ca856c14610218576100ea565b80632a28c268116100c85780632a28c268146101595780632b7ac3f314610175578063344649221461019357806354bc3958146101af576100ea565b8063094b4b6d146100ef57806314107a941461010d578063209fe7831461013d575b600080fd5b6100f76102fb565b60405161010491906128ef565b60405180910390f35b6101276004803603810190610122919061229d565b610301565b604051610134919061284d565b60405180910390f35b6101576004803603810190610152919061229d565b6103a1565b005b610173600480360381019061016e919061220d565b610505565b005b61017d610532565b60405161018a9190612832565b60405180910390f35b6101ad60048036038101906101a8919061220d565b610556565b005b6101c960048036038101906101c491906122c6565b6107d3565b005b6101e560048036038101906101e09190612332565b610b89565b005b61020160048036038101906101fc9190612332565b610c1a565b60405161020f92919061290a565b60405180910390f35b610232600480360381019061022d91906121d1565b610c4e565b60405161023f9190612817565b60405180910390f35b610250610c73565b60405161025d91906126b0565b60405180910390f35b610280600480360381019061027b919061229d565b610c99565b604051610290949392919061279b565b60405180910390f35b6102b360048036038101906102ae91906121a8565b610d16565b6040516102c091906128ef565b60405180910390f35b6102e360048036038101906102de919061229d565b610d2e565b6040516102f2939291906127e0565b60405180910390f35b60025481565b6007602052806000526040600020600091509050805461032090612beb565b80601f016020809104026020016040519081016040528092919081815260200182805461034c90612beb565b80156103995780601f1061036e57610100808354040283529160200191610399565b820191906000526020600020905b81548152906001019060200180831161037c57829003601f168201915b505050505081565b6103a9610d65565b6006600082815260200190815260200160002060000160009054906101000a900460ff16610403576040517f2be530bc00000000000000000000000000000000000000000000000000000000815260040160405180910390fd5b6006600082815260200190815260200160002060000160019054906101000a900473ffffffffffffffffffffffffffffffffffffffff1673ffffffffffffffffffffffffffffffffffffffff163373ffffffffffffffffffffffffffffffffffffffff161461049e576040517f244e5fa600000000000000000000000000000000000000000000000000000000815260040160405180910390fd5b60006006600083815260200190815260200160002060000160006101000a81548160ff021916908315150217905550807f871b627720fc9f3ba5602fde62d03058c14f7aaae66723d46303769c253632f860405160405180910390a2610502610db5565b50565b61050d610d65565b61051984848484610dbf565b610524838383611390565b61052c610db5565b50505050565b7f000000000000000000000000000000000000000000000000000000000000000081565b61056284848484611738565b610598576040517f09bde33900000000000000000000000000000000000000000000000000000000815260040160405180910390fd5b60066000846001600281106105d6577f4e487b7100000000000000000000000000000000000000000000000000000000600052603260045260246000fd5b6020020135815260200190815260200160002060000160019054906101000a900473ffffffffffffffffffffffffffffffffffffffff1673ffffffffffffffffffffffffffffffffffffffff163373ffffffffffffffffffffffffffffffffffffffff161415801561067457508173ffffffffffffffffffffffffffffffffffffffff163373ffffffffffffffffffffffffffffffffffffffff1614155b156106ab576040517feff06b9d00000000000000000000000000000000000000000000000000000000815260040160405180910390fd5b600160056000856000600281106106eb577f4e487b7100000000000000000000000000000000000000000000000000000000600052603260045260246000fd5b6020020135815260200190815260200160002060000160006101000a81548160ff02191690831515021790555082600060028110610752577f4e487b7100000000000000000000000000000000000000000000000000000000600052603260045260246000fd5b602002013583600160028110610791577f4e487b7100000000000000000000000000000000000000000000000000000000600052603260045260246000fd5b60200201357f712cb0bffbe0011ec1e8ed62fc42ebf28ffee192ea00fea0c42565b3239504ad846040516107c59190612695565b60405180910390a350505050565b6107db610d65565b6006600085815260200190815260200160002060000160009054906101000a900460ff1615610836576040517fbfd7b1b100000000000000000000000000000000000000000000000000000000815260040160405180910390fd5b600073ffffffffffffffffffffffffffffffffffffffff166006600086815260200190815260200160002060000160019054906101000a900473ffffffffffffffffffffffffffffffffffffffff1673ffffffffffffffffffffffffffffffffffffffff16146108d2576040517f69783db700000000000000000000000000000000000000000000000000000000815260040160405180910390fd5b600073ffffffffffffffffffffffffffffffffffffffff168373ffffffffffffffffffffffffffffffffffffffff161415610939576040517fc17540b300000000000000000000000000000000000000000000000000000000815260040160405180910390fd5b83600360003373ffffffffffffffffffffffffffffffffffffffff1673ffffffffffffffffffffffffffffffffffffffff1681526020019081526020016000206000600460003373ffffffffffffffffffffffffffffffffffffffff1673ffffffffffffffffffffffffffffffffffffffff168152602001908152602001600020548152602001908152602001600020819055506001600460003373ffffffffffffffffffffffffffffffffffffffff1673ffffffffffffffffffffffffffffffffffffffff1681526020019081526020016000206000828254610a1d91906129f7565b9250508190555060016006600086815260200190815260200160002060000160006101000a81548160ff021916908315150217905550336006600086815260200190815260200160002060000160016101000a81548173ffffffffffffffffffffffffffffffffffffffff021916908373ffffffffffffffffffffffffffffffffffffffff160217905550826006600086815260200190815260200160002060010160006101000a81548173ffffffffffffffffffffffffffffffffffffffff021916908373ffffffffffffffffffffffffffffffffffffffff1602179055508181600760008781526020019081526020016000209190610b1f929190611ff8565b508273ffffffffffffffffffffffffffffffffffffffff163373ffffffffffffffffffffffffffffffffffffffff16857f7b8705e3f5851e7e724bd9243be409ac5ad78951258a1f258790356aa2ef44db60405160405180910390a4610b83610db5565b50505050565b600160009054906101000a900473ffffffffffffffffffffffffffffffffffffffff1673ffffffffffffffffffffffffffffffffffffffff163373ffffffffffffffffffffffffffffffffffffffff1614610c10576040517f5fc483c500000000000000000000000000000000000000000000000000000000815260040160405180910390fd5b8060028190555050565b600080610c3260025484611bc790919063ffffffff16565b9150610c478284611bdd90919063ffffffff16565b9050915091565b6003602052816000526040600020602052806000526040600020600091509150505481565b600160009054906101000a900473ffffffffffffffffffffffffffffffffffffffff1681565b60066020528060005260406000206000915090508060000160009054906101000a900460ff16908060000160019054906101000a900473ffffffffffffffffffffffffffffffffffffffff16908060010160009054906101000a900473ffffffffffffffffffffffffffffffffffffffff16908060020154905084565b60046020528060005260406000206000915090505481565b60056020528060005260406000206000915090508060000160009054906101000a900460ff16908060010154908060020154905083565b60026000541415610dab576040517f08c379a0000000000000000000000000000000000000000000000000000000008152600401610da2906128cf565b60405180910390fd5b6002600081905550565b6001600081905550565b6005600084600060028110610dfd577f4e487b7100000000000000000000000000000000000000000000000000000000600052603260045260246000fd5b6020020135815260200190815260200160002060000160009054906101000a900460ff1615610e58576040517fdc67407a00000000000000000000000000000000000000000000000000000000815260040160405180910390fd5b80600160048110610e92577f4e487b7100000000000000000000000000000000000000000000000000000000600052603260045260246000fd5b60200201356005600085600060028110610ed5577f4e487b7100000000000000000000000000000000000000000000000000000000600052603260045260246000fd5b60200201358152602001908152602001600020600101541415610f24576040517f5c7580fa00000000000000000000000000000000000000000000000000000000815260040160405180910390fd5b6006600084600160028110610f62577f4e487b7100000000000000000000000000000000000000000000000000000000600052603260045260246000fd5b6020020135815260200190815260200160002060000160009054906101000a900460ff16610fbc576040517f2be530bc00000000000000000000000000000000000000000000000000000000815260040160405180910390fd5b80600360048110610ff6577f4e487b7100000000000000000000000000000000000000000000000000000000600052603260045260246000fd5b602002013581600060048110611035577f4e487b7100000000000000000000000000000000000000000000000000000000600052603260045260246000fd5b60200201351015611072576040517f95ae795b00000000000000000000000000000000000000000000000000000000815260040160405180910390fd5b60066000846001600281106110b0577f4e487b7100000000000000000000000000000000000000000000000000000000600052603260045260246000fd5b6020020135815260200190815260200160002060010160009054906101000a900473ffffffffffffffffffffffffffffffffffffffff1673ffffffffffffffffffffffffffffffffffffffff1663dd62ed3e6006600086600160028110611140577f4e487b7100000000000000000000000000000000000000000000000000000000600052603260045260246000fd5b6020020135815260200190815260200160002060000160019054906101000a900473ffffffffffffffffffffffffffffffffffffffff16306040518363ffffffff1660e01b81526004016111959291906126cb565b60206040518083038186803b1580156111ad57600080fd5b505afa1580156111c1573d6000803e3d6000fd5b505050506040513d601f19601f820116820180604052508101906111e5919061235b565b8160036004811061121f577f4e487b7100000000000000000000000000000000000000000000000000000000600052603260045260246000fd5b6020020135111561125c576040517fd8d0c64e00000000000000000000000000000000000000000000000000000000815260040160405180910390fd5b42611310620151808360026004811061129e577f4e487b7100000000000000000000000000000000000000000000000000000000600052603260045260246000fd5b60200201356112ad9190612a7e565b60056000876000600281106112eb577f4e487b7100000000000000000000000000000000000000000000000000000000600052603260045260246000fd5b6020020135815260200190815260200160002060020154611bf390919063ffffffff16565b1115611348576040517f4747bf0000000000000000000000000000000000000000000000000000000000815260040160405180910390fd5b61135484848484611738565b61138a576040517f09bde33900000000000000000000000000000000000000000000000000000000815260040160405180910390fd5b50505050565b6000806113da836003600481106113d0577f4e487b7100000000000000000000000000000000000000000000000000000000600052603260045260246000fd5b6020020135610c1a565b915091506001600560008760006002811061141e577f4e487b7100000000000000000000000000000000000000000000000000000000600052603260045260246000fd5b60200201358152602001908152602001600020600101600082825461144391906129f7565b92505081905550426005600087600060028110611489577f4e487b7100000000000000000000000000000000000000000000000000000000600052603260045260246000fd5b6020020135815260200190815260200160002060020181905550600073ffffffffffffffffffffffffffffffffffffffff1660066000876001600281106114f9577f4e487b7100000000000000000000000000000000000000000000000000000000600052603260045260246000fd5b6020020135815260200190815260200160002060010160009054906101000a900473ffffffffffffffffffffffffffffffffffffffff1673ffffffffffffffffffffffffffffffffffffffff16146116045761159485600160028110611588577f4e487b7100000000000000000000000000000000000000000000000000000000600052603260045260246000fd5b60200201358583611c09565b6115ff856001600281106115d1577f4e487b7100000000000000000000000000000000000000000000000000000000600052603260045260246000fd5b6020020135600160009054906101000a900473ffffffffffffffffffffffffffffffffffffffff1684611c09565b6116b9565b61164d85600160028110611641577f4e487b7100000000000000000000000000000000000000000000000000000000600052603260045260246000fd5b60200201358583611ca7565b6116b88560016002811061168a577f4e487b7100000000000000000000000000000000000000000000000000000000600052603260045260246000fd5b6020020135600160009054906101000a900473ffffffffffffffffffffffffffffffffffffffff1684611ca7565b5b846001600281106116f3577f4e487b7100000000000000000000000000000000000000000000000000000000600052603260045260246000fd5b60200201357f3e0b49f5477938c9df20e76b46ba488cba6c52af1e25a905bd3a5fd16866483d858360405161172992919061272b565b60405180910390a25050505050565b60007f000000000000000000000000000000000000000000000000000000000000000073ffffffffffffffffffffffffffffffffffffffff1663f398789b6040518060400160405280886000600881106117bb577f4e487b7100000000000000000000000000000000000000000000000000000000600052603260045260246000fd5b60200201358152602001886001600881106117ff577f4e487b7100000000000000000000000000000000000000000000000000000000600052603260045260246000fd5b6020020135815250604051806040016040528060405180604001604052808b600260088110611857577f4e487b7100000000000000000000000000000000000000000000000000000000600052603260045260246000fd5b602002013581526020018b60036008811061189b577f4e487b7100000000000000000000000000000000000000000000000000000000600052603260045260246000fd5b6020020135815250815260200160405180604001604052808b6004600881106118ed577f4e487b7100000000000000000000000000000000000000000000000000000000600052603260045260246000fd5b602002013581526020018b600560088110611931577f4e487b7100000000000000000000000000000000000000000000000000000000600052603260045260246000fd5b602002013581525081525060405180604001604052808a600660088110611981577f4e487b7100000000000000000000000000000000000000000000000000000000600052603260045260246000fd5b602002013581526020018a6007600881106119c5577f4e487b7100000000000000000000000000000000000000000000000000000000600052603260045260246000fd5b60200201358152506040518060c001604052808a600060028110611a12577f4e487b7100000000000000000000000000000000000000000000000000000000600052603260045260246000fd5b602002013560001c81526020018a600160028110611a59577f4e487b7100000000000000000000000000000000000000000000000000000000600052603260045260246000fd5b602002013560001c81526020018973ffffffffffffffffffffffffffffffffffffffff16815260200188600060048110611abc577f4e487b7100000000000000000000000000000000000000000000000000000000600052603260045260246000fd5b6020020135815260200188600160048110611b00577f4e487b7100000000000000000000000000000000000000000000000000000000600052603260045260246000fd5b6020020135815260200188600260048110611b44577f4e487b7100000000000000000000000000000000000000000000000000000000600052603260045260246000fd5b60200201358152506040518563ffffffff1660e01b8152600401611b6b9493929190612754565b602060405180830381600087803b158015611b8557600080fd5b505af1158015611b99573d6000803e3d6000fd5b505050506040513d601f19601f82011682018060405250810190611bbd9190612274565b9050949350505050565b60008183611bd59190612a4d565b905092915050565b60008183611beb9190612ad8565b905092915050565b60008183611c0191906129f7565b905092915050565b611ca26006600085815260200190815260200160002060000160019054906101000a900473ffffffffffffffffffffffffffffffffffffffff1683836006600088815260200190815260200160002060010160009054906101000a900473ffffffffffffffffffffffffffffffffffffffff1673ffffffffffffffffffffffffffffffffffffffff16611cd9909392919063ffffffff16565b505050565b6040517fd37a223a00000000000000000000000000000000000000000000000000000000815260040160405180910390fd5b611d5c846323b872dd60e01b858585604051602401611cfa939291906126f4565b604051602081830303815290604052907bffffffffffffffffffffffffffffffffffffffffffffffffffffffff19166020820180517bffffffffffffffffffffffffffffffffffffffffffffffffffffffff8381831617835250505050611d62565b50505050565b6000611dc4826040518060400160405280602081526020017f5361666545524332303a206c6f772d6c6576656c2063616c6c206661696c65648152508573ffffffffffffffffffffffffffffffffffffffff16611e2a9092919063ffffffff16565b9050600081511480611de6575080806020019051810190611de59190612274565b5b611e25576040517f08c379a0000000000000000000000000000000000000000000000000000000008152600401611e1c906128af565b60405180910390fd5b505050565b6060611e398484600085611e42565b90509392505050565b606082471015611e87576040517f08c379a0000000000000000000000000000000000000000000000000000000008152600401611e7e9061286f565b60405180910390fd5b6000808673ffffffffffffffffffffffffffffffffffffffff168587604051611eb0919061267e565b60006040518083038185875af1925050503d8060008114611eed576040519150601f19603f3d011682016040523d82523d6000602084013e611ef2565b606091505b5091509150611f0387838387611f0f565b92505050949350505050565b60608315611f7257600083511415611f6a57611f2a85611f85565b611f69576040517f08c379a0000000000000000000000000000000000000000000000000000000008152600401611f609061288f565b60405180910390fd5b5b829050611f7d565b611f7c8383611fa8565b5b949350505050565b6000808273ffffffffffffffffffffffffffffffffffffffff163b119050919050565b600082511115611fbb5781518083602001fd5b806040517f08c379a0000000000000000000000000000000000000000000000000000000008152600401611fef919061284d565b60405180910390fd5b82805461200490612beb565b90600052602060002090601f016020900481019282612026576000855561206d565b82601f1061203f57803560ff191683800117855561206d565b8280016001018555821561206d579182015b8281111561206c578235825591602001919060010190612051565b5b50905061207a919061207e565b5090565b5b8082111561209757600081600090555060010161207f565b5090565b6000813590506120aa81612dab565b92915050565b6000819050826020600202820111156120c857600080fd5b92915050565b6000819050826020600402820111156120e657600080fd5b92915050565b60008190508260206008028201111561210457600080fd5b92915050565b60008151905061211981612dc2565b92915050565b60008135905061212e81612dd9565b92915050565b60008083601f84011261214657600080fd5b8235905067ffffffffffffffff81111561215f57600080fd5b60208301915083600182028301111561217757600080fd5b9250929050565b60008135905061218d81612df0565b92915050565b6000815190506121a281612df0565b92915050565b6000602082840312156121ba57600080fd5b60006121c88482850161209b565b91505092915050565b600080604083850312156121e457600080fd5b60006121f28582860161209b565b92505060206122038582860161217e565b9150509250929050565b6000806000806101e0858703121561222457600080fd5b6000612232878288016120ec565b945050610100612244878288016120b0565b9350506101406122568782880161209b565b925050610160612268878288016120ce565b91505092959194509250565b60006020828403121561228657600080fd5b60006122948482850161210a565b91505092915050565b6000602082840312156122af57600080fd5b60006122bd8482850161211f565b91505092915050565b600080600080606085870312156122dc57600080fd5b60006122ea8782880161211f565b94505060206122fb8782880161209b565b935050604085013567ffffffffffffffff81111561231857600080fd5b61232487828801612134565b925092505092959194509250565b60006020828403121561234457600080fd5b60006123528482850161217e565b91505092915050565b60006020828403121561236d57600080fd5b600061237b84828501612193565b91505092915050565b60006123908383612429565b60408301905092915050565b60006123a88383612660565b60208301905092915050565b6123bd81612b1e565b82525050565b6123cc81612b0c565b82525050565b6123db81612951565b6123e581846129af565b92506123f082612933565b8060005b838110156124215781516124088782612384565b965061241383612988565b9250506001810190506123f4565b505050505050565b6124328161295c565b61243c81846129ba565b92506124478261293d565b8060005b8381101561247857815161245f878261239c565b965061246a83612995565b92505060018101905061244b565b505050505050565b6124898161295c565b61249381846129c5565b925061249e8261293d565b8060005b838110156124cf5781516124b6878261239c565b96506124c183612995565b9250506001810190506124a2565b505050505050565b6124e081612967565b6124ea81846129d0565b92506124f582612947565b8060005b8381101561252657815161250d878261239c565b9650612518836129a2565b9250506001810190506124f9565b505050505050565b61253781612b30565b82525050565b61254681612b3c565b82525050565b600061255782612972565b61256181856129db565b9350612571818560208601612bb8565b80840191505092915050565b61258681612b70565b82525050565b61259581612b94565b82525050565b60006125a68261297d565b6125b081856129e6565b93506125c0818560208601612bb8565b6125c981612caa565b840191505092915050565b60006125e16026836129e6565b91506125ec82612cbb565b604082019050919050565b6000612604601d836129e6565b915061260f82612d0a565b602082019050919050565b6000612627602a836129e6565b915061263282612d33565b604082019050919050565b600061264a601f836129e6565b915061265582612d82565b602082019050919050565b61266981612b66565b82525050565b61267881612b66565b82525050565b600061268a828461254c565b915081905092915050565b60006020820190506126aa60008301846123c3565b92915050565b60006020820190506126c560008301846123b4565b92915050565b60006040820190506126e060008301856123c3565b6126ed60208301846123c3565b9392505050565b600060608201905061270960008301866123c3565b61271660208301856123c3565b612723604083018461266f565b949350505050565b600060408201905061274060008301856123c3565b61274d602083018461266f565b9392505050565b60006101c08201905061276a6000830187612480565b61277760408301866123d2565b61278460c0830185612480565b6127926101008301846124d7565b95945050505050565b60006080820190506127b0600083018761252e565b6127bd60208301866123c3565b6127ca604083018561257d565b6127d7606083018461266f565b95945050505050565b60006060820190506127f5600083018661252e565b612802602083018561266f565b61280f604083018461266f565b949350505050565b600060208201905061282c600083018461253d565b92915050565b6000602082019050612847600083018461258c565b92915050565b60006020820190508181036000830152612867818461259b565b905092915050565b60006020820190508181036000830152612888816125d4565b9050919050565b600060208201905081810360008301526128a8816125f7565b9050919050565b600060208201905081810360008301526128c88161261a565b9050919050565b600060208201905081810360008301526128e88161263d565b9050919050565b6000602082019050612904600083018461266f565b92915050565b600060408201905061291f600083018561266f565b61292c602083018461266f565b9392505050565b6000819050919050565b6000819050919050565b6000819050919050565b600060029050919050565b600060029050919050565b600060069050919050565b600081519050919050565b600081519050919050565b6000602082019050919050565b6000602082019050919050565b6000602082019050919050565b600081905092915050565b600081905092915050565b600081905092915050565b600081905092915050565b600081905092915050565b600082825260208201905092915050565b6000612a0282612b66565b9150612a0d83612b66565b9250827fffffffffffffffffffffffffffffffffffffffffffffffffffffffffffffffff03821115612a4257612a41612c1d565b5b828201905092915050565b6000612a5882612b66565b9150612a6383612b66565b925082612a7357612a72612c4c565b5b828204905092915050565b6000612a8982612b66565b9150612a9483612b66565b9250817fffffffffffffffffffffffffffffffffffffffffffffffffffffffffffffffff0483118215151615612acd57612acc612c1d565b5b828202905092915050565b6000612ae382612b66565b9150612aee83612b66565b925082821015612b0157612b00612c1d565b5b828203905092915050565b6000612b1782612b46565b9050919050565b6000612b2982612b46565b9050919050565b60008115159050919050565b6000819050919050565b600073ffffffffffffffffffffffffffffffffffffffff82169050919050565b6000819050919050565b6000612b7b82612b82565b9050919050565b6000612b8d82612b46565b9050919050565b6000612b9f82612ba6565b9050919050565b6000612bb182612b46565b9050919050565b60005b83811015612bd6578082015181840152602081019050612bbb565b83811115612be5576000848401525b50505050565b60006002820490506001821680612c0357607f821691505b60208210811415612c1757612c16612c7b565b5b50919050565b7f4e487b7100000000000000000000000000000000000000000000000000000000600052601160045260246000fd5b7f4e487b7100000000000000000000000000000000000000000000000000000000600052601260045260246000fd5b7f4e487b7100000000000000000000000000000000000000000000000000000000600052602260045260246000fd5b6000601f19601f8301169050919050565b7f416464726573733a20696e73756666696369656e742062616c616e636520666f60008201527f722063616c6c0000000000000000000000000000000000000000000000000000602082015250565b7f416464726573733a2063616c6c20746f206e6f6e2d636f6e7472616374000000600082015250565b7f5361666545524332303a204552433230206f7065726174696f6e20646964206e60008201527f6f74207375636365656400000000000000000000000000000000000000000000602082015250565b7f5265656e7472616e637947756172643a207265656e7472616e742063616c6c00600082015250565b612db481612b0c565b8114612dbf57600080fd5b50565b612dcb81612b30565b8114612dd657600080fd5b50565b612de281612b3c565b8114612ded57600080fd5b50565b612df981612b66565b8114612e0457600080fd5b5056fea26469706673582212209f8d664af902009d420625973f0cc02a8f2b829b444d93c20c97481fe42618a764736f6c63430008040033",
  "linkReferences": {},
  "deployedLinkReferences": {}
}