{
  "_format": "hh-sol-artifact-1",
  "contractName": "DirectDebit",
  "sourceName": "contracts/DirectDebit.sol",
  "abi": [
    {
      "inputs": [
        {
          "internalType": "contract IVerifier",
          "name": "_verifier",
          "type": "address"
        }
      ],
      "stateMutability": "nonpayable",
      "type": "constructor"
    },
    {
      "inputs": [],
      "name": "AccountAlreadyActive",
      "type": "error"
    },
    {
      "inputs": [],
      "name": "AccountAlreadyExists",
      "type": "error"
    },
    {
      "inputs": [],
      "name": "CommitmentMismatch",
      "type": "error"
    },
    {
      "inputs": [],
      "name": "EarlyPaymentNotAllowed",
      "type": "error"
    },
    {
      "inputs": [],
      "name": "InactiveAccount",
      "type": "error"
    },
    {
      "inputs": [],
      "name": "InvalidProof",
      "type": "error"
    },
    {
      "inputs": [],
      "name": "NotEnoughAccountBalance",
      "type": "error"
    },
    {
      "inputs": [],
      "name": "NotEnoughValue",
      "type": "error"
    },
    {
      "inputs": [],
      "name": "NotEthAccount",
      "type": "error"
    },
    {
      "inputs": [],
      "name": "NotTokenAccount",
      "type": "error"
    },
    {
      "inputs": [],
      "name": "OnlyAccountOwner",
      "type": "error"
    },
    {
      "inputs": [],
      "name": "OnlyRelatedPartiesCanCancel",
      "type": "error"
    },
    {
      "inputs": [],
      "name": "PaymentIntentExpired",
      "type": "error"
    },
    {
      "inputs": [],
      "name": "PaymentIntentNullified",
      "type": "error"
    },
    {
      "inputs": [],
      "name": "PaymentNotAuthorized",
      "type": "error"
    },
    {
      "inputs": [],
      "name": "ZeroTopup",
      "type": "error"
    },
    {
      "anonymous": false,
      "inputs": [
        {
          "indexed": true,
          "internalType": "bytes32",
          "name": "commitment",
          "type": "bytes32"
        }
      ],
      "name": "AccountClosed",
      "type": "event"
    },
    {
      "anonymous": false,
      "inputs": [
        {
          "indexed": true,
          "internalType": "bytes32",
          "name": "commitment",
          "type": "bytes32"
        },
        {
          "indexed": false,
          "internalType": "address",
          "name": "payee",
          "type": "address"
        },
        {
          "indexed": false,
          "internalType": "uint256",
          "name": "payment",
          "type": "uint256"
        }
      ],
      "name": "AccountDebited",
      "type": "event"
    },
    {
      "anonymous": false,
      "inputs": [
        {
          "indexed": true,
          "internalType": "bytes32",
          "name": "commitment",
          "type": "bytes32"
        },
        {
          "indexed": false,
          "internalType": "uint256",
          "name": "amount",
          "type": "uint256"
        }
      ],
      "name": "Cashback",
      "type": "event"
    },
    {
      "anonymous": false,
      "inputs": [
        {
          "indexed": true,
          "internalType": "bytes32",
          "name": "commitment",
          "type": "bytes32"
        },
        {
          "indexed": false,
          "internalType": "address",
          "name": "depositFor",
          "type": "address"
        },
        {
          "indexed": false,
          "internalType": "uint256",
          "name": "balance",
          "type": "uint256"
        }
      ],
      "name": "NewEthAccount",
      "type": "event"
    },
    {
      "anonymous": false,
      "inputs": [
        {
          "indexed": true,
          "internalType": "bytes32",
          "name": "commitment",
          "type": "bytes32"
        },
        {
          "indexed": false,
          "internalType": "address",
          "name": "depositFor",
          "type": "address"
        },
        {
          "indexed": false,
          "internalType": "uint256",
          "name": "amount",
          "type": "uint256"
        },
        {
          "indexed": false,
          "internalType": "address",
          "name": "token",
          "type": "address"
        }
      ],
      "name": "NewTokenAccount",
      "type": "event"
    },
    {
      "anonymous": false,
      "inputs": [
        {
          "indexed": true,
          "internalType": "bytes32",
          "name": "commitment",
          "type": "bytes32"
        },
        {
          "indexed": true,
          "internalType": "bytes32",
          "name": "paymentIntent",
          "type": "bytes32"
        },
        {
          "indexed": false,
          "internalType": "address",
          "name": "payee",
          "type": "address"
        }
      ],
      "name": "PaymentIntentCancelled",
      "type": "event"
    },
    {
      "anonymous": false,
      "inputs": [
        {
          "indexed": true,
          "internalType": "bytes32",
          "name": "commitment",
          "type": "bytes32"
        },
        {
          "indexed": false,
          "internalType": "uint256",
          "name": "balance",
          "type": "uint256"
        }
      ],
      "name": "TopUpETH",
      "type": "event"
    },
    {
      "anonymous": false,
      "inputs": [
        {
          "indexed": true,
          "internalType": "bytes32",
          "name": "commitment",
          "type": "bytes32"
        },
        {
          "indexed": false,
          "internalType": "uint256",
          "name": "amount",
          "type": "uint256"
        },
        {
          "indexed": false,
          "internalType": "address",
          "name": "token",
          "type": "address"
        }
      ],
      "name": "TopUpToken",
      "type": "event"
    },
    {
      "inputs": [],
      "name": "_owner",
      "outputs": [
        {
          "internalType": "address payable",
          "name": "",
          "type": "address"
        }
      ],
      "stateMutability": "view",
      "type": "function"
    },
    {
      "inputs": [
        {
          "internalType": "address",
          "name": "",
          "type": "address"
        }
      ],
      "name": "accountCounter",
      "outputs": [
        {
          "internalType": "uint256",
          "name": "",
          "type": "uint256"
        }
      ],
      "stateMutability": "view",
      "type": "function"
    },
    {
      "inputs": [
        {
          "internalType": "bytes32",
          "name": "",
          "type": "bytes32"
        }
      ],
      "name": "accounts",
      "outputs": [
        {
          "internalType": "bool",
          "name": "active",
          "type": "bool"
        },
        {
          "internalType": "address",
          "name": "creator",
          "type": "address"
        },
        {
          "internalType": "contract IERC20",
          "name": "token",
          "type": "address"
        },
        {
          "internalType": "uint256",
          "name": "balance",
          "type": "uint256"
        }
      ],
      "stateMutability": "view",
      "type": "function"
    },
    {
      "inputs": [
        {
          "internalType": "uint256",
          "name": "amount",
          "type": "uint256"
        }
      ],
      "name": "calculateFee",
      "outputs": [
        {
          "internalType": "uint256",
          "name": "relayerFee",
          "type": "uint256"
        },
        {
          "internalType": "uint256",
          "name": "ownerFee",
          "type": "uint256"
        },
        {
          "internalType": "uint256",
          "name": "payment",
          "type": "uint256"
        }
      ],
      "stateMutability": "pure",
      "type": "function"
    },
    {
      "inputs": [
        {
          "internalType": "uint256[8]",
          "name": "proof",
          "type": "uint256[8]"
        },
        {
          "internalType": "bytes32[2]",
          "name": "hashes",
          "type": "bytes32[2]"
        },
        {
          "internalType": "address",
          "name": "payee",
          "type": "address"
        },
        {
          "internalType": "uint256[4]",
          "name": "debit",
          "type": "uint256[4]"
        }
      ],
      "name": "cancelPaymentIntent",
      "outputs": [],
      "stateMutability": "nonpayable",
      "type": "function"
    },
    {
      "inputs": [
        {
          "internalType": "address",
          "name": "",
          "type": "address"
        },
        {
          "internalType": "uint256",
          "name": "",
          "type": "uint256"
        }
      ],
      "name": "commitments",
      "outputs": [
        {
          "internalType": "bytes32",
          "name": "",
          "type": "bytes32"
        }
      ],
      "stateMutability": "view",
      "type": "function"
    },
    {
      "inputs": [
        {
          "internalType": "bytes32",
          "name": "_commitment",
          "type": "bytes32"
        },
        {
          "internalType": "uint256",
          "name": "balance",
          "type": "uint256"
        },
        {
          "internalType": "string",
          "name": "encryptedNote",
          "type": "string"
        }
      ],
      "name": "depositEth",
      "outputs": [],
      "stateMutability": "payable",
      "type": "function"
    },
    {
      "inputs": [
        {
          "internalType": "bytes32",
          "name": "_commitment",
          "type": "bytes32"
        },
        {
          "internalType": "uint256",
          "name": "balance",
          "type": "uint256"
        },
        {
          "internalType": "address",
          "name": "token",
          "type": "address"
        },
        {
          "internalType": "string",
          "name": "encryptedNote",
          "type": "string"
        }
      ],
      "name": "depositToken",
      "outputs": [],
      "stateMutability": "nonpayable",
      "type": "function"
    },
    {
      "inputs": [
        {
          "internalType": "uint256[8]",
          "name": "proof",
          "type": "uint256[8]"
        },
        {
          "internalType": "bytes32[2]",
          "name": "hashes",
          "type": "bytes32[2]"
        },
        {
          "internalType": "address",
          "name": "payee",
          "type": "address"
        },
        {
          "internalType": "uint256[4]",
          "name": "debit",
          "type": "uint256[4]"
        }
      ],
      "name": "directdebit",
      "outputs": [],
      "stateMutability": "nonpayable",
      "type": "function"
    },
    {
      "inputs": [
        {
          "internalType": "bytes32",
          "name": "",
          "type": "bytes32"
        }
      ],
      "name": "encryptedNotes",
      "outputs": [
        {
          "internalType": "string",
          "name": "",
          "type": "string"
        }
      ],
      "stateMutability": "view",
      "type": "function"
    },
    {
      "inputs": [],
      "name": "ownerFeeDivider",
      "outputs": [
        {
          "internalType": "uint256",
          "name": "",
          "type": "uint256"
        }
      ],
      "stateMutability": "view",
      "type": "function"
    },
    {
      "inputs": [
        {
          "internalType": "bytes32",
          "name": "",
          "type": "bytes32"
        }
      ],
      "name": "paymentIntents",
      "outputs": [
        {
          "internalType": "bool",
          "name": "isNullified",
          "type": "bool"
        },
        {
          "internalType": "uint256",
          "name": "withdrawalCount",
          "type": "uint256"
        },
        {
          "internalType": "uint256",
          "name": "lastDate",
          "type": "uint256"
        }
      ],
      "stateMutability": "view",
      "type": "function"
    },
    {
      "inputs": [],
      "name": "relayerFeeDivider",
      "outputs": [
        {
          "internalType": "uint256",
          "name": "",
          "type": "uint256"
        }
      ],
      "stateMutability": "view",
      "type": "function"
    },
    {
      "inputs": [
        {
          "internalType": "bytes32",
          "name": "_commitment",
          "type": "bytes32"
        },
        {
          "internalType": "uint256",
          "name": "balance",
          "type": "uint256"
        }
      ],
      "name": "topUpETH",
      "outputs": [],
      "stateMutability": "payable",
      "type": "function"
    },
    {
      "inputs": [
        {
          "internalType": "bytes32",
          "name": "_commitment",
          "type": "bytes32"
        },
        {
          "internalType": "uint256",
          "name": "balance",
          "type": "uint256"
        }
      ],
      "name": "topUpTokens",
      "outputs": [],
      "stateMutability": "nonpayable",
      "type": "function"
    },
    {
      "inputs": [],
      "name": "verifier",
      "outputs": [
        {
          "internalType": "contract IVerifier",
          "name": "",
          "type": "address"
        }
      ],
      "stateMutability": "view",
      "type": "function"
    },
    {
      "inputs": [
        {
          "internalType": "bytes32",
          "name": "commitment",
          "type": "bytes32"
        }
      ],
      "name": "withdraw",
      "outputs": [],
      "stateMutability": "nonpayable",
      "type": "function"
    }
  ],
  "bytecode": "0x60e060405260c860a09081525060c860c0908152503480156200002157600080fd5b5060405162003d6038038062003d608339818101604052810190620000479190620000e5565b60016000819055508073ffffffffffffffffffffffffffffffffffffffff1660808173ffffffffffffffffffffffffffffffffffffffff1660601b8152505033600160006101000a81548173ffffffffffffffffffffffffffffffffffffffff021916908373ffffffffffffffffffffffffffffffffffffffff1602179055505062000173565b600081519050620000df8162000159565b92915050565b600060208284031215620000f857600080fd5b60006200010884828501620000ce565b91505092915050565b60006200011e8262000139565b9050919050565b6000620001328262000111565b9050919050565b600073ffffffffffffffffffffffffffffffffffffffff82169050919050565b620001648162000125565b81146200017057600080fd5b50565b60805160601c60a05160c051613ba5620001bb6000396000818161079201526112ed015260008181610d070152611322015260008181610883015261201d0152613ba56000f3fe6080604052600436106100fd5760003560e01c8063746b9b6611610095578063aaf317b411610064578063aaf317b414610318578063b2bdfa7b14610341578063bc529c431461036c578063cc8887f1146103ac578063fb60c31a146103e9576100fd565b8063746b9b661461024a5780638e19899e1461027357806399a5d7471461029c57806399ca856c146102db576100fd565b80632b7ac3f3116100d15780632b7ac3f3146101af57806334464922146101da57806344f1d5831461020357806373ae30c11461021f576100fd565b8062708d8814610102578063094b4b6d1461011e57806314107a94146101495780632a28c26814610186575b600080fd5b61011c60048036038101906101179190612f33565b610428565b005b34801561012a57600080fd5b50610133610790565b60405161014091906135ff565b60405180910390f35b34801561015557600080fd5b50610170600480360381019061016b9190612e4e565b6107b4565b60405161017d919061351d565b60405180910390f35b34801561019257600080fd5b506101ad60048036038101906101a89190612dbe565b610854565b005b3480156101bb57600080fd5b506101c4610881565b6040516101d19190613502565b60405180910390f35b3480156101e657600080fd5b5061020160048036038101906101fc9190612dbe565b6108a5565b005b61021d60048036038101906102189190612e77565b610b22565b005b34801561022b57600080fd5b50610234610d05565b60405161024191906135ff565b60405180910390f35b34801561025657600080fd5b50610271600480360381019061026c9190612eb3565b610d29565b005b34801561027f57600080fd5b5061029a60048036038101906102959190612e4e565b6110dd565b005b3480156102a857600080fd5b506102c360048036038101906102be9190612f9f565b6112e3565b6040516102d293929190613643565b60405180910390f35b3480156102e757600080fd5b5061030260048036038101906102fd9190612d82565b611380565b60405161030f91906134e7565b60405180910390f35b34801561032457600080fd5b5061033f600480360381019061033a9190612e77565b6113a5565b005b34801561034d57600080fd5b506103566115eb565b6040516103639190613372565b60405180910390f35b34801561037857600080fd5b50610393600480360381019061038e9190612e4e565b611611565b6040516103a3949392919061346b565b60405180910390f35b3480156103b857600080fd5b506103d360048036038101906103ce9190612d59565b61168e565b6040516103e091906135ff565b60405180910390f35b3480156103f557600080fd5b50610410600480360381019061040b9190612e4e565b6116a6565b60405161041f939291906134b0565b60405180910390f35b6104306116dd565b6005600085815260200190815260200160002060000160009054906101000a900460ff161561048b576040517fbfd7b1b100000000000000000000000000000000000000000000000000000000815260040160405180910390fd5b600073ffffffffffffffffffffffffffffffffffffffff166005600086815260200190815260200160002060000160019054906101000a900473ffffffffffffffffffffffffffffffffffffffff1673ffffffffffffffffffffffffffffffffffffffff1614610527576040517f69783db700000000000000000000000000000000000000000000000000000000815260040160405180910390fd5b6000831415610562576040517f751a2bb000000000000000000000000000000000000000000000000000000000815260040160405180910390fd5b34831461059b576040517fe2f844a000000000000000000000000000000000000000000000000000000000815260040160405180910390fd5b83600260003373ffffffffffffffffffffffffffffffffffffffff1673ffffffffffffffffffffffffffffffffffffffff1681526020019081526020016000206000600360003373ffffffffffffffffffffffffffffffffffffffff1673ffffffffffffffffffffffffffffffffffffffff168152602001908152602001600020548152602001908152602001600020819055506001600360003373ffffffffffffffffffffffffffffffffffffffff1673ffffffffffffffffffffffffffffffffffffffff168152602001908152602001600020600082825461067f919061373e565b9250508190555060016005600086815260200190815260200160002060000160006101000a81548160ff021916908315150217905550336005600086815260200190815260200160002060000160016101000a81548173ffffffffffffffffffffffffffffffffffffffff021916908373ffffffffffffffffffffffffffffffffffffffff1602179055508260056000868152602001908152602001600020600201819055508181600660008781526020019081526020016000209190610747929190612bbe565b50837f99c33e0f1016bf1b130f8e7e0fef072ce14459ac655aaf23194c5fa94d59b27d338560405161077a9291906133c4565b60405180910390a261078a61172d565b50505050565b7f000000000000000000000000000000000000000000000000000000000000000081565b600660205280600052604060002060009150905080546107d3906138d8565b80601f01602080910402602001604051908101604052809291908181526020018280546107ff906138d8565b801561084c5780601f106108215761010080835404028352916020019161084c565b820191906000526020600020905b81548152906001019060200180831161082f57829003601f168201915b505050505081565b61085c6116dd565b61086884848484611737565b610873838383611bdc565b61087b61172d565b50505050565b7f000000000000000000000000000000000000000000000000000000000000000081565b6108b184848484612019565b6108e7576040517f09bde33900000000000000000000000000000000000000000000000000000000815260040160405180910390fd5b6005600084600160028110610925577f4e487b7100000000000000000000000000000000000000000000000000000000600052603260045260246000fd5b6020020135815260200190815260200160002060000160019054906101000a900473ffffffffffffffffffffffffffffffffffffffff1673ffffffffffffffffffffffffffffffffffffffff163373ffffffffffffffffffffffffffffffffffffffff16141580156109c357508173ffffffffffffffffffffffffffffffffffffffff163373ffffffffffffffffffffffffffffffffffffffff1614155b156109fa576040517feff06b9d00000000000000000000000000000000000000000000000000000000815260040160405180910390fd5b60016004600085600060028110610a3a577f4e487b7100000000000000000000000000000000000000000000000000000000600052603260045260246000fd5b6020020135815260200190815260200160002060000160006101000a81548160ff02191690831515021790555082600060028110610aa1577f4e487b7100000000000000000000000000000000000000000000000000000000600052603260045260246000fd5b602002013583600160028110610ae0577f4e487b7100000000000000000000000000000000000000000000000000000000600052603260045260246000fd5b60200201357f712cb0bffbe0011ec1e8ed62fc42ebf28ffee192ea00fea0c42565b3239504ad84604051610b149190613357565b60405180910390a350505050565b610b2a6116dd565b6005600083815260200190815260200160002060000160009054906101000a900460ff16610b84576040517f2be530bc00000000000000000000000000000000000000000000000000000000815260040160405180910390fd5b6000811415610bbf576040517f751a2bb000000000000000000000000000000000000000000000000000000000815260040160405180910390fd5b348114610bf8576040517fe2f844a000000000000000000000000000000000000000000000000000000000815260040160405180910390fd5b600073ffffffffffffffffffffffffffffffffffffffff166005600084815260200190815260200160002060010160009054906101000a900473ffffffffffffffffffffffffffffffffffffffff1673ffffffffffffffffffffffffffffffffffffffff1614610c94576040517f304bd81d00000000000000000000000000000000000000000000000000000000815260040160405180910390fd5b80600560008481526020019081526020016000206002016000828254610cba919061373e565b92505081905550817fa744916269eae88a51e1b522154b84a665f9df6ad0750c67647b487501a9d67582604051610cf191906135ff565b60405180910390a2610d0161172d565b5050565b7f000000000000000000000000000000000000000000000000000000000000000081565b610d316116dd565b6005600086815260200190815260200160002060000160009054906101000a900460ff1615610d8c576040517fbfd7b1b100000000000000000000000000000000000000000000000000000000815260040160405180910390fd5b6000841415610dc7576040517f751a2bb000000000000000000000000000000000000000000000000000000000815260040160405180910390fd5b600073ffffffffffffffffffffffffffffffffffffffff166005600087815260200190815260200160002060000160019054906101000a900473ffffffffffffffffffffffffffffffffffffffff1673ffffffffffffffffffffffffffffffffffffffff1614610e63576040517f69783db700000000000000000000000000000000000000000000000000000000815260040160405180910390fd5b84600260003373ffffffffffffffffffffffffffffffffffffffff1673ffffffffffffffffffffffffffffffffffffffff1681526020019081526020016000206000600360003373ffffffffffffffffffffffffffffffffffffffff1673ffffffffffffffffffffffffffffffffffffffff168152602001908152602001600020548152602001908152602001600020819055506001600360003373ffffffffffffffffffffffffffffffffffffffff1673ffffffffffffffffffffffffffffffffffffffff1681526020019081526020016000206000828254610f47919061373e565b9250508190555060016005600087815260200190815260200160002060000160006101000a81548160ff021916908315150217905550336005600087815260200190815260200160002060000160016101000a81548173ffffffffffffffffffffffffffffffffffffffff021916908373ffffffffffffffffffffffffffffffffffffffff160217905550836005600087815260200190815260200160002060020181905550826005600087815260200190815260200160002060010160006101000a81548173ffffffffffffffffffffffffffffffffffffffff021916908373ffffffffffffffffffffffffffffffffffffffff1602179055508181600660008881526020019081526020016000209190611064929190612bbe565b506110923330868673ffffffffffffffffffffffffffffffffffffffff166124a8909392919063ffffffff16565b847f32e90eeb9e9eb67d074a5a9189654727af7f8b57ded124985de30bbb5051cdcd3386866040516110c6939291906133ed565b60405180910390a26110d661172d565b5050505050565b6110e56116dd565b6005600082815260200190815260200160002060000160009054906101000a900460ff1661113f576040517f2be530bc00000000000000000000000000000000000000000000000000000000815260040160405180910390fd5b6005600082815260200190815260200160002060000160019054906101000a900473ffffffffffffffffffffffffffffffffffffffff1673ffffffffffffffffffffffffffffffffffffffff163373ffffffffffffffffffffffffffffffffffffffff16146111da576040517f244e5fa600000000000000000000000000000000000000000000000000000000815260040160405180910390fd5b60006005600083815260200190815260200160002060000160006101000a81548160ff021916908315150217905550600060056000838152602001908152602001600020600201549050600073ffffffffffffffffffffffffffffffffffffffff166005600084815260200190815260200160002060010160009054906101000a900473ffffffffffffffffffffffffffffffffffffffff1673ffffffffffffffffffffffffffffffffffffffff161461129e57611299823383612531565b6112aa565b6112a98233836125c4565b5b817f871b627720fc9f3ba5602fde62d03058c14f7aaae66723d46303769c253632f860405160405180910390a2506112e061172d565b50565b600080600061131b7f00000000000000000000000000000000000000000000000000000000000000008561260090919063ffffffff16565b91506113507f00000000000000000000000000000000000000000000000000000000000000008561260090919063ffffffff16565b925061137783611369848761261690919063ffffffff16565b61261690919063ffffffff16565b90509193909250565b6002602052816000526040600020602052806000526040600020600091509150505481565b6113ad6116dd565b6005600083815260200190815260200160002060000160009054906101000a900460ff16611407576040517f2be530bc00000000000000000000000000000000000000000000000000000000815260040160405180910390fd5b6000811415611442576040517f751a2bb000000000000000000000000000000000000000000000000000000000815260040160405180910390fd5b600073ffffffffffffffffffffffffffffffffffffffff166005600084815260200190815260200160002060010160009054906101000a900473ffffffffffffffffffffffffffffffffffffffff1673ffffffffffffffffffffffffffffffffffffffff1614156114df576040517f68da804f00000000000000000000000000000000000000000000000000000000815260040160405180910390fd5b80600560008481526020019081526020016000206002016000828254611505919061373e565b9250508190555061156f3330836005600087815260200190815260200160002060010160009054906101000a900473ffffffffffffffffffffffffffffffffffffffff1673ffffffffffffffffffffffffffffffffffffffff166124a8909392919063ffffffff16565b817f19a953698442b09a996bcc766cbacf2fc9a9b82be784fd3c90e71f21d067c3e4826005600086815260200190815260200160002060010160009054906101000a900473ffffffffffffffffffffffffffffffffffffffff166040516115d792919061361a565b60405180910390a26115e761172d565b5050565b600160009054906101000a900473ffffffffffffffffffffffffffffffffffffffff1681565b60056020528060005260406000206000915090508060000160009054906101000a900460ff16908060000160019054906101000a900473ffffffffffffffffffffffffffffffffffffffff16908060010160009054906101000a900473ffffffffffffffffffffffffffffffffffffffff16908060020154905084565b60036020528060005260406000206000915090505481565b60046020528060005260406000206000915090508060000160009054906101000a900460ff16908060010154908060020154905083565b60026000541415611723576040517f08c379a000000000000000000000000000000000000000000000000000000000815260040161171a906135df565b60405180910390fd5b6002600081905550565b6001600081905550565b6004600084600060028110611775577f4e487b7100000000000000000000000000000000000000000000000000000000600052603260045260246000fd5b6020020135815260200190815260200160002060000160009054906101000a900460ff16156117d0576040517fdc67407a00000000000000000000000000000000000000000000000000000000815260040160405180910390fd5b8060016004811061180a577f4e487b7100000000000000000000000000000000000000000000000000000000600052603260045260246000fd5b6020020135600460008560006002811061184d577f4e487b7100000000000000000000000000000000000000000000000000000000600052603260045260246000fd5b6020020135815260200190815260200160002060010154141561189c576040517f5c7580fa00000000000000000000000000000000000000000000000000000000815260040160405180910390fd5b60056000846001600281106118da577f4e487b7100000000000000000000000000000000000000000000000000000000600052603260045260246000fd5b6020020135815260200190815260200160002060000160009054906101000a900460ff16611934576040517f2be530bc00000000000000000000000000000000000000000000000000000000815260040160405180910390fd5b8060036004811061196e577f4e487b7100000000000000000000000000000000000000000000000000000000600052603260045260246000fd5b6020020135816000600481106119ad577f4e487b7100000000000000000000000000000000000000000000000000000000600052603260045260246000fd5b602002013510156119ea576040517f95ae795b00000000000000000000000000000000000000000000000000000000815260040160405180910390fd5b6005600084600160028110611a28577f4e487b7100000000000000000000000000000000000000000000000000000000600052603260045260246000fd5b602002013581526020019081526020016000206002015481600360048110611a79577f4e487b7100000000000000000000000000000000000000000000000000000000600052603260045260246000fd5b60200201351115611ab6576040517fd8d0c64e00000000000000000000000000000000000000000000000000000000815260040160405180910390fd5b42611b5c82600260048110611af4577f4e487b7100000000000000000000000000000000000000000000000000000000600052603260045260246000fd5b60200201356004600087600060028110611b37577f4e487b7100000000000000000000000000000000000000000000000000000000600052603260045260246000fd5b602002013581526020019081526020016000206002015461262c90919063ffffffff16565b1115611b94576040517f4747bf0000000000000000000000000000000000000000000000000000000000815260040160405180910390fd5b611ba084848484612019565b611bd6576040517f09bde33900000000000000000000000000000000000000000000000000000000815260040160405180910390fd5b50505050565b6000806000611c2884600360048110611c1e577f4e487b7100000000000000000000000000000000000000000000000000000000600052603260045260246000fd5b60200201356112e3565b92509250925060016004600088600060028110611c6e577f4e487b7100000000000000000000000000000000000000000000000000000000600052603260045260246000fd5b602002013581526020019081526020016000206001016000828254611c93919061373e565b92505081905550426004600088600060028110611cd9577f4e487b7100000000000000000000000000000000000000000000000000000000600052603260045260246000fd5b6020020135815260200190815260200160002060020181905550600073ffffffffffffffffffffffffffffffffffffffff166005600088600160028110611d49577f4e487b7100000000000000000000000000000000000000000000000000000000600052603260045260246000fd5b6020020135815260200190815260200160002060010160009054906101000a900473ffffffffffffffffffffffffffffffffffffffff1673ffffffffffffffffffffffffffffffffffffffff1614611e9c57611de486600160028110611dd8577f4e487b7100000000000000000000000000000000000000000000000000000000600052603260045260246000fd5b60200201358683612531565b611e4f86600160028110611e21577f4e487b7100000000000000000000000000000000000000000000000000000000600052603260045260246000fd5b6020020135600160009054906101000a900473ffffffffffffffffffffffffffffffffffffffff1684612531565b611e9786600160028110611e8c577f4e487b7100000000000000000000000000000000000000000000000000000000600052603260045260246000fd5b602002013584612642565b611f99565b611ee586600160028110611ed9577f4e487b7100000000000000000000000000000000000000000000000000000000600052603260045260246000fd5b602002013586836125c4565b611f5086600160028110611f22577f4e487b7100000000000000000000000000000000000000000000000000000000600052603260045260246000fd5b6020020135600160009054906101000a900473ffffffffffffffffffffffffffffffffffffffff16846125c4565b611f9886600160028110611f8d577f4e487b7100000000000000000000000000000000000000000000000000000000600052603260045260246000fd5b6020020135846126f8565b5b85600160028110611fd3577f4e487b7100000000000000000000000000000000000000000000000000000000600052603260045260246000fd5b60200201357f3e0b49f5477938c9df20e76b46ba488cba6c52af1e25a905bd3a5fd16866483d86836040516120099291906133c4565b60405180910390a2505050505050565b60007f000000000000000000000000000000000000000000000000000000000000000073ffffffffffffffffffffffffffffffffffffffff1663f398789b60405180604001604052808860006008811061209c577f4e487b7100000000000000000000000000000000000000000000000000000000600052603260045260246000fd5b60200201358152602001886001600881106120e0577f4e487b7100000000000000000000000000000000000000000000000000000000600052603260045260246000fd5b6020020135815250604051806040016040528060405180604001604052808b600260088110612138577f4e487b7100000000000000000000000000000000000000000000000000000000600052603260045260246000fd5b602002013581526020018b60036008811061217c577f4e487b7100000000000000000000000000000000000000000000000000000000600052603260045260246000fd5b6020020135815250815260200160405180604001604052808b6004600881106121ce577f4e487b7100000000000000000000000000000000000000000000000000000000600052603260045260246000fd5b602002013581526020018b600560088110612212577f4e487b7100000000000000000000000000000000000000000000000000000000600052603260045260246000fd5b602002013581525081525060405180604001604052808a600660088110612262577f4e487b7100000000000000000000000000000000000000000000000000000000600052603260045260246000fd5b602002013581526020018a6007600881106122a6577f4e487b7100000000000000000000000000000000000000000000000000000000600052603260045260246000fd5b60200201358152506040518060c001604052808a6000600281106122f3577f4e487b7100000000000000000000000000000000000000000000000000000000600052603260045260246000fd5b602002013560001c81526020018a60016002811061233a577f4e487b7100000000000000000000000000000000000000000000000000000000600052603260045260246000fd5b602002013560001c81526020018973ffffffffffffffffffffffffffffffffffffffff1681526020018860006004811061239d577f4e487b7100000000000000000000000000000000000000000000000000000000600052603260045260246000fd5b60200201358152602001886001600481106123e1577f4e487b7100000000000000000000000000000000000000000000000000000000600052603260045260246000fd5b6020020135815260200188600260048110612425577f4e487b7100000000000000000000000000000000000000000000000000000000600052603260045260246000fd5b60200201358152506040518563ffffffff1660e01b815260040161244c9493929190613424565b602060405180830381600087803b15801561246657600080fd5b505af115801561247a573d6000803e3d6000fd5b505050506040513d601f19601f8201168201806040525081019061249e9190612e25565b9050949350505050565b61252b846323b872dd60e01b8585856040516024016124c99392919061338d565b604051602081830303815290604052907bffffffffffffffffffffffffffffffffffffffffffffffffffffffff19166020820180517bffffffffffffffffffffffffffffffffffffffffffffffffffffffff83818316178352505050506127ae565b50505050565b61259282826005600087815260200190815260200160002060010160009054906101000a900473ffffffffffffffffffffffffffffffffffffffff1673ffffffffffffffffffffffffffffffffffffffff166128769092919063ffffffff16565b806005600085815260200190815260200160002060020160008282546125b891906137c5565b92505081905550505050565b6125ce82826128fc565b806005600085815260200190815260200160002060020160008282546125f491906137c5565b92505081905550505050565b6000818361260e9190613794565b905092915050565b6000818361262491906137c5565b905092915050565b6000818361263a919061373e565b905092915050565b6005600083815260200190815260200160002060000160019054906101000a900473ffffffffffffffffffffffffffffffffffffffff1673ffffffffffffffffffffffffffffffffffffffff163373ffffffffffffffffffffffffffffffffffffffff16146126bb576126b6823383612531565b6126f4565b817f06bc89e22cd5f5e88f8b23eb4947b1c3664a0240adca4bc7becfe3e40445e732826040516126eb91906135ff565b60405180910390a25b5050565b6005600083815260200190815260200160002060000160019054906101000a900473ffffffffffffffffffffffffffffffffffffffff1673ffffffffffffffffffffffffffffffffffffffff163373ffffffffffffffffffffffffffffffffffffffff16146127715761276c8233836125c4565b6127aa565b817f06bc89e22cd5f5e88f8b23eb4947b1c3664a0240adca4bc7becfe3e40445e732826040516127a191906135ff565b60405180910390a25b5050565b6000612810826040518060400160405280602081526020017f5361666545524332303a206c6f772d6c6576656c2063616c6c206661696c65648152508573ffffffffffffffffffffffffffffffffffffffff166129f09092919063ffffffff16565b90506000815114806128325750808060200190518101906128319190612e25565b5b612871576040517f08c379a0000000000000000000000000000000000000000000000000000000008152600401612868906135bf565b60405180910390fd5b505050565b6128f78363a9059cbb60e01b84846040516024016128959291906133c4565b604051602081830303815290604052907bffffffffffffffffffffffffffffffffffffffffffffffffffffffff19166020820180517bffffffffffffffffffffffffffffffffffffffffffffffffffffffff83818316178352505050506127ae565b505050565b8047101561293f576040517f08c379a00000000000000000000000000000000000000000000000000000000081526004016129369061355f565b60405180910390fd5b60008273ffffffffffffffffffffffffffffffffffffffff168260405161296590613342565b60006040518083038185875af1925050503d80600081146129a2576040519150601f19603f3d011682016040523d82523d6000602084013e6129a7565b606091505b50509050806129eb576040517f08c379a00000000000000000000000000000000000000000000000000000000081526004016129e29061353f565b60405180910390fd5b505050565b60606129ff8484600085612a08565b90509392505050565b606082471015612a4d576040517f08c379a0000000000000000000000000000000000000000000000000000000008152600401612a449061357f565b60405180910390fd5b6000808673ffffffffffffffffffffffffffffffffffffffff168587604051612a76919061332b565b60006040518083038185875af1925050503d8060008114612ab3576040519150601f19603f3d011682016040523d82523d6000602084013e612ab8565b606091505b5091509150612ac987838387612ad5565b92505050949350505050565b60608315612b3857600083511415612b3057612af085612b4b565b612b2f576040517f08c379a0000000000000000000000000000000000000000000000000000000008152600401612b269061359f565b60405180910390fd5b5b829050612b43565b612b428383612b6e565b5b949350505050565b6000808273ffffffffffffffffffffffffffffffffffffffff163b119050919050565b600082511115612b815781518083602001fd5b806040517f08c379a0000000000000000000000000000000000000000000000000000000008152600401612bb5919061351d565b60405180910390fd5b828054612bca906138d8565b90600052602060002090601f016020900481019282612bec5760008555612c33565b82601f10612c0557803560ff1916838001178555612c33565b82800160010185558215612c33579182015b82811115612c32578235825591602001919060010190612c17565b5b509050612c409190612c44565b5090565b5b80821115612c5d576000816000905550600101612c45565b5090565b600081359050612c7081613b13565b92915050565b600081905082602060020282011115612c8e57600080fd5b92915050565b600081905082602060040282011115612cac57600080fd5b92915050565b600081905082602060080282011115612cca57600080fd5b92915050565b600081519050612cdf81613b2a565b92915050565b600081359050612cf481613b41565b92915050565b60008083601f840112612d0c57600080fd5b8235905067ffffffffffffffff811115612d2557600080fd5b602083019150836001820283011115612d3d57600080fd5b9250929050565b600081359050612d5381613b58565b92915050565b600060208284031215612d6b57600080fd5b6000612d7984828501612c61565b91505092915050565b60008060408385031215612d9557600080fd5b6000612da385828601612c61565b9250506020612db485828601612d44565b9150509250929050565b6000806000806101e08587031215612dd557600080fd5b6000612de387828801612cb2565b945050610100612df587828801612c76565b935050610140612e0787828801612c61565b925050610160612e1987828801612c94565b91505092959194509250565b600060208284031215612e3757600080fd5b6000612e4584828501612cd0565b91505092915050565b600060208284031215612e6057600080fd5b6000612e6e84828501612ce5565b91505092915050565b60008060408385031215612e8a57600080fd5b6000612e9885828601612ce5565b9250506020612ea985828601612d44565b9150509250929050565b600080600080600060808688031215612ecb57600080fd5b6000612ed988828901612ce5565b9550506020612eea88828901612d44565b9450506040612efb88828901612c61565b935050606086013567ffffffffffffffff811115612f1857600080fd5b612f2488828901612cfa565b92509250509295509295909350565b60008060008060608587031215612f4957600080fd5b6000612f5787828801612ce5565b9450506020612f6887828801612d44565b935050604085013567ffffffffffffffff811115612f8557600080fd5b612f9187828801612cfa565b925092505092959194509250565b600060208284031215612fb157600080fd5b6000612fbf84828501612d44565b91505092915050565b6000612fd4838361306d565b60408301905092915050565b6000612fec838361330d565b60208301905092915050565b6130018161380b565b82525050565b613010816137f9565b82525050565b61301f81613698565b61302981846136f6565b92506130348261367a565b8060005b8381101561306557815161304c8782612fc8565b9650613057836136cf565b925050600181019050613038565b505050505050565b613076816136a3565b6130808184613701565b925061308b82613684565b8060005b838110156130bc5781516130a38782612fe0565b96506130ae836136dc565b92505060018101905061308f565b505050505050565b6130cd816136a3565b6130d7818461370c565b92506130e282613684565b8060005b838110156131135781516130fa8782612fe0565b9650613105836136dc565b9250506001810190506130e6565b505050505050565b613124816136ae565b61312e8184613717565b92506131398261368e565b8060005b8381101561316a5781516131518782612fe0565b965061315c836136e9565b92505060018101905061313d565b505050505050565b61317b8161381d565b82525050565b61318a81613829565b82525050565b600061319b826136b9565b6131a58185613722565b93506131b58185602086016138a5565b80840191505092915050565b6131ca8161385d565b82525050565b6131d981613881565b82525050565b60006131ea826136c4565b6131f4818561372d565b93506132048185602086016138a5565b61320d81613997565b840191505092915050565b6000613225603a8361372d565b9150613230826139a8565b604082019050919050565b6000613248601d8361372d565b9150613253826139f7565b602082019050919050565b600061326b60268361372d565b915061327682613a20565b604082019050919050565b600061328e600083613722565b915061329982613a6f565b600082019050919050565b60006132b1601d8361372d565b91506132bc82613a72565b602082019050919050565b60006132d4602a8361372d565b91506132df82613a9b565b604082019050919050565b60006132f7601f8361372d565b915061330282613aea565b602082019050919050565b61331681613853565b82525050565b61332581613853565b82525050565b60006133378284613190565b915081905092915050565b600061334d82613281565b9150819050919050565b600060208201905061336c6000830184613007565b92915050565b60006020820190506133876000830184612ff8565b92915050565b60006060820190506133a26000830186613007565b6133af6020830185613007565b6133bc604083018461331c565b949350505050565b60006040820190506133d96000830185613007565b6133e6602083018461331c565b9392505050565b60006060820190506134026000830186613007565b61340f602083018561331c565b61341c6040830184613007565b949350505050565b60006101c08201905061343a60008301876130c4565b6134476040830186613016565b61345460c08301856130c4565b61346261010083018461311b565b95945050505050565b60006080820190506134806000830187613172565b61348d6020830186613007565b61349a60408301856131c1565b6134a7606083018461331c565b95945050505050565b60006060820190506134c56000830186613172565b6134d2602083018561331c565b6134df604083018461331c565b949350505050565b60006020820190506134fc6000830184613181565b92915050565b600060208201905061351760008301846131d0565b92915050565b6000602082019050818103600083015261353781846131df565b905092915050565b6000602082019050818103600083015261355881613218565b9050919050565b600060208201905081810360008301526135788161323b565b9050919050565b600060208201905081810360008301526135988161325e565b9050919050565b600060208201905081810360008301526135b8816132a4565b9050919050565b600060208201905081810360008301526135d8816132c7565b9050919050565b600060208201905081810360008301526135f8816132ea565b9050919050565b6000602082019050613614600083018461331c565b92915050565b600060408201905061362f600083018561331c565b61363c6020830184613007565b9392505050565b6000606082019050613658600083018661331c565b613665602083018561331c565b613672604083018461331c565b949350505050565b6000819050919050565b6000819050919050565b6000819050919050565b600060029050919050565b600060029050919050565b600060069050919050565b600081519050919050565b600081519050919050565b6000602082019050919050565b6000602082019050919050565b6000602082019050919050565b600081905092915050565b600081905092915050565b600081905092915050565b600081905092915050565b600081905092915050565b600082825260208201905092915050565b600061374982613853565b915061375483613853565b9250827fffffffffffffffffffffffffffffffffffffffffffffffffffffffffffffffff038211156137895761378861390a565b5b828201905092915050565b600061379f82613853565b91506137aa83613853565b9250826137ba576137b9613939565b5b828204905092915050565b60006137d082613853565b91506137db83613853565b9250828210156137ee576137ed61390a565b5b828203905092915050565b600061380482613833565b9050919050565b600061381682613833565b9050919050565b60008115159050919050565b6000819050919050565b600073ffffffffffffffffffffffffffffffffffffffff82169050919050565b6000819050919050565b60006138688261386f565b9050919050565b600061387a82613833565b9050919050565b600061388c82613893565b9050919050565b600061389e82613833565b9050919050565b60005b838110156138c35780820151818401526020810190506138a8565b838111156138d2576000848401525b50505050565b600060028204905060018216806138f057607f821691505b6020821081141561390457613903613968565b5b50919050565b7f4e487b7100000000000000000000000000000000000000000000000000000000600052601160045260246000fd5b7f4e487b7100000000000000000000000000000000000000000000000000000000600052601260045260246000fd5b7f4e487b7100000000000000000000000000000000000000000000000000000000600052602260045260246000fd5b6000601f19601f8301169050919050565b7f416464726573733a20756e61626c6520746f2073656e642076616c75652c207260008201527f6563697069656e74206d61792068617665207265766572746564000000000000602082015250565b7f416464726573733a20696e73756666696369656e742062616c616e6365000000600082015250565b7f416464726573733a20696e73756666696369656e742062616c616e636520666f60008201527f722063616c6c0000000000000000000000000000000000000000000000000000602082015250565b50565b7f416464726573733a2063616c6c20746f206e6f6e2d636f6e7472616374000000600082015250565b7f5361666545524332303a204552433230206f7065726174696f6e20646964206e60008201527f6f74207375636365656400000000000000000000000000000000000000000000602082015250565b7f5265656e7472616e637947756172643a207265656e7472616e742063616c6c00600082015250565b613b1c816137f9565b8114613b2757600080fd5b50565b613b338161381d565b8114613b3e57600080fd5b50565b613b4a81613829565b8114613b5557600080fd5b50565b613b6181613853565b8114613b6c57600080fd5b5056fea264697066735822122077138f93e39d0fa3150a1820d7be3cf9d9b73dee30969110c86bd3af4e9e511c64736f6c63430008040033",
  "linkReferences": {},
  "deployedLinkReferences": {}
}