{
  "_format": "hh-sol-artifact-1",
  "contractName": "RelayerGasTracker",
  "sourceName": "contracts/RelayerGasTracker.sol",
  "abi": [
    {
      "anonymous": false,
      "inputs": [
        {
          "indexed": true,
          "internalType": "address",
          "name": "previousOwner",
          "type": "address"
        },
        {
          "indexed": true,
          "internalType": "address",
          "name": "newOwner",
          "type": "address"
        }
      ],
      "name": "OwnershipTransferred",
      "type": "event"
    },
    {
      "anonymous": false,
      "inputs": [
        {
          "indexed": false,
          "internalType": "address",
          "name": "from",
          "type": "address"
        },
        {
          "indexed": false,
          "internalType": "uint256",
          "name": "amount",
          "type": "uint256"
        }
      ],
      "name": "TopUpEvent",
      "type": "event"
    },
    {
      "inputs": [],
      "name": "owner",
      "outputs": [
        {
          "internalType": "address",
          "name": "",
          "type": "address"
        }
      ],
      "stateMutability": "view",
      "type": "function"
    },
    {
      "inputs": [],
      "name": "relayer",
      "outputs": [
        {
          "internalType": "address payable",
          "name": "",
          "type": "address"
        }
      ],
      "stateMutability": "view",
      "type": "function"
    },
    {
      "inputs": [],
      "name": "renounceOwnership",
      "outputs": [],
      "stateMutability": "nonpayable",
      "type": "function"
    },
    {
      "inputs": [
        {
          "internalType": "address",
          "name": "to",
          "type": "address"
        }
      ],
      "name": "setRelayer",
      "outputs": [],
      "stateMutability": "nonpayable",
      "type": "function"
    },
    {
      "inputs": [],
      "name": "topUpRelayer",
      "outputs": [],
      "stateMutability": "payable",
      "type": "function"
    },
    {
      "inputs": [
        {
          "internalType": "address",
          "name": "",
          "type": "address"
        }
      ],
      "name": "total",
      "outputs": [
        {
          "internalType": "uint256",
          "name": "",
          "type": "uint256"
        }
      ],
      "stateMutability": "view",
      "type": "function"
    },
    {
      "inputs": [
        {
          "internalType": "address",
          "name": "newOwner",
          "type": "address"
        }
      ],
      "name": "transferOwnership",
      "outputs": [],
      "stateMutability": "nonpayable",
      "type": "function"
    }
  ],
  "bytecode": "0x608060405234801561001057600080fd5b5061002d61002261003260201b60201c565b61003a60201b60201c565b6100fe565b600033905090565b60008060009054906101000a900473ffffffffffffffffffffffffffffffffffffffff169050816000806101000a81548173ffffffffffffffffffffffffffffffffffffffff021916908373ffffffffffffffffffffffffffffffffffffffff1602179055508173ffffffffffffffffffffffffffffffffffffffff168173ffffffffffffffffffffffffffffffffffffffff167f8be0079c531659141344cd1fd0a4f28419497f9722a3daafe3b4186f6b6457e060405160405180910390a35050565b610a198061010d6000396000f3fe6080604052600436106100705760003560e01c80638da5cb5b1161004e5780638da5cb5b146100e0578063c2152e301461010b578063d2514e8414610115578063f2fde38b1461015257610070565b80636548e9bc14610075578063715018a61461009e5780638406c079146100b5575b600080fd5b34801561008157600080fd5b5061009c600480360381019061009791906105d6565b61017b565b005b3480156100aa57600080fd5b506100b36101c7565b005b3480156100c157600080fd5b506100ca6101db565b6040516100d7919061070b565b60405180910390f35b3480156100ec57600080fd5b506100f5610201565b60405161010291906106f0565b60405180910390f35b61011361022a565b005b34801561012157600080fd5b5061013c600480360381019061013791906105d6565b6102e7565b60405161014991906107cf565b60405180910390f35b34801561015e57600080fd5b50610179600480360381019061017491906105d6565b6102ff565b005b610183610383565b80600160006101000a81548173ffffffffffffffffffffffffffffffffffffffff021916908373ffffffffffffffffffffffffffffffffffffffff16021790555050565b6101cf610383565b6101d96000610401565b565b600160009054906101000a900473ffffffffffffffffffffffffffffffffffffffff1681565b60008060009054906101000a900473ffffffffffffffffffffffffffffffffffffffff16905090565b34600260003373ffffffffffffffffffffffffffffffffffffffff1673ffffffffffffffffffffffffffffffffffffffff16815260200190815260200160002060008282546102799190610806565b925050819055506102ac600160009054906101000a900473ffffffffffffffffffffffffffffffffffffffff16346104c5565b7fbbc5df8c05783e14fb0b7b85fb94e55270ea33faef5076c6960aa23b88c270c333346040516102dd929190610726565b60405180910390a1565b60026020528060005260406000206000915090505481565b610307610383565b600073ffffffffffffffffffffffffffffffffffffffff168173ffffffffffffffffffffffffffffffffffffffff161415610377576040517f08c379a000000000000000000000000000000000000000000000000000000000815260040161036e9061074f565b60405180910390fd5b61038081610401565b50565b61038b6105b9565b73ffffffffffffffffffffffffffffffffffffffff166103a9610201565b73ffffffffffffffffffffffffffffffffffffffff16146103ff576040517f08c379a00000000000000000000000000000000000000000000000000000000081526004016103f6906107af565b60405180910390fd5b565b60008060009054906101000a900473ffffffffffffffffffffffffffffffffffffffff169050816000806101000a81548173ffffffffffffffffffffffffffffffffffffffff021916908373ffffffffffffffffffffffffffffffffffffffff1602179055508173ffffffffffffffffffffffffffffffffffffffff168173ffffffffffffffffffffffffffffffffffffffff167f8be0079c531659141344cd1fd0a4f28419497f9722a3daafe3b4186f6b6457e060405160405180910390a35050565b80471015610508576040517f08c379a00000000000000000000000000000000000000000000000000000000081526004016104ff9061078f565b60405180910390fd5b60008273ffffffffffffffffffffffffffffffffffffffff168260405161052e906106db565b60006040518083038185875af1925050503d806000811461056b576040519150601f19603f3d011682016040523d82523d6000602084013e610570565b606091505b50509050806105b4576040517f08c379a00000000000000000000000000000000000000000000000000000000081526004016105ab9061076f565b60405180910390fd5b505050565b600033905090565b6000813590506105d0816109cc565b92915050565b6000602082840312156105e857600080fd5b60006105f6848285016105c1565b91505092915050565b6106088161086e565b82525050565b6106178161085c565b82525050565b600061062a6026836107f5565b9150610635826108d9565b604082019050919050565b600061064d603a836107f5565b915061065882610928565b604082019050919050565b6000610670601d836107f5565b915061067b82610977565b602082019050919050565b60006106936020836107f5565b915061069e826109a0565b602082019050919050565b60006106b66000836107ea565b91506106c1826109c9565b600082019050919050565b6106d5816108a0565b82525050565b60006106e6826106a9565b9150819050919050565b6000602082019050610705600083018461060e565b92915050565b600060208201905061072060008301846105ff565b92915050565b600060408201905061073b600083018561060e565b61074860208301846106cc565b9392505050565b600060208201905081810360008301526107688161061d565b9050919050565b6000602082019050818103600083015261078881610640565b9050919050565b600060208201905081810360008301526107a881610663565b9050919050565b600060208201905081810360008301526107c881610686565b9050919050565b60006020820190506107e460008301846106cc565b92915050565b600081905092915050565b600082825260208201905092915050565b6000610811826108a0565b915061081c836108a0565b9250827fffffffffffffffffffffffffffffffffffffffffffffffffffffffffffffffff03821115610851576108506108aa565b5b828201905092915050565b600061086782610880565b9050919050565b600061087982610880565b9050919050565b600073ffffffffffffffffffffffffffffffffffffffff82169050919050565b6000819050919050565b7f4e487b7100000000000000000000000000000000000000000000000000000000600052601160045260246000fd5b7f4f776e61626c653a206e6577206f776e657220697320746865207a65726f206160008201527f6464726573730000000000000000000000000000000000000000000000000000602082015250565b7f416464726573733a20756e61626c6520746f2073656e642076616c75652c207260008201527f6563697069656e74206d61792068617665207265766572746564000000000000602082015250565b7f416464726573733a20696e73756666696369656e742062616c616e6365000000600082015250565b7f4f776e61626c653a2063616c6c6572206973206e6f7420746865206f776e6572600082015250565b50565b6109d58161085c565b81146109e057600080fd5b5056fea264697066735822122083df8c341ece138156bb49ef2c34b7f0a56da35a0754a0dc2350f1e34fafa51864736f6c63430008040033",
  "linkReferences": {},
  "deployedLinkReferences": {}
}