{
  "_format": "hh-sol-artifact-1",
  "contractName": "RelayerGasTracker",
  "sourceName": "contracts/RelayerGasTracker.sol",
  "abi": [
    {
      "anonymous": false,
      "inputs": [
        {
          "indexed": true,
          "internalType": "address",
          "name": "previousOwner",
          "type": "address"
        },
        {
          "indexed": true,
          "internalType": "address",
          "name": "newOwner",
          "type": "address"
        }
      ],
      "name": "OwnershipTransferred",
      "type": "event"
    },
    {
      "anonymous": false,
      "inputs": [
        {
          "indexed": true,
          "internalType": "address",
          "name": "from",
          "type": "address"
        },
        {
          "indexed": true,
          "internalType": "uint256",
          "name": "amount",
          "type": "uint256"
        }
      ],
      "name": "TopUpEvent",
      "type": "event"
    },
    {
      "inputs": [],
      "name": "owner",
      "outputs": [
        {
          "internalType": "address",
          "name": "",
          "type": "address"
        }
      ],
      "stateMutability": "view",
      "type": "function"
    },
    {
      "inputs": [],
      "name": "relayer",
      "outputs": [
        {
          "internalType": "address payable",
          "name": "",
          "type": "address"
        }
      ],
      "stateMutability": "view",
      "type": "function"
    },
    {
      "inputs": [],
      "name": "renounceOwnership",
      "outputs": [],
      "stateMutability": "nonpayable",
      "type": "function"
    },
    {
      "inputs": [
        {
          "internalType": "address",
          "name": "to",
          "type": "address"
        }
      ],
      "name": "setRelayer",
      "outputs": [],
      "stateMutability": "nonpayable",
      "type": "function"
    },
    {
      "inputs": [],
      "name": "topUpRelayer",
      "outputs": [],
      "stateMutability": "payable",
      "type": "function"
    },
    {
      "inputs": [
        {
          "internalType": "address",
          "name": "",
          "type": "address"
        }
      ],
      "name": "total",
      "outputs": [
        {
          "internalType": "uint256",
          "name": "",
          "type": "uint256"
        }
      ],
      "stateMutability": "view",
      "type": "function"
    },
    {
      "inputs": [
        {
          "internalType": "address",
          "name": "newOwner",
          "type": "address"
        }
      ],
      "name": "transferOwnership",
      "outputs": [],
      "stateMutability": "nonpayable",
      "type": "function"
    }
  ],
  "bytecode": "0x608060405234801561001057600080fd5b5061002d61002261003260201b60201c565b61003a60201b60201c565b6100fe565b600033905090565b60008060009054906101000a900473ffffffffffffffffffffffffffffffffffffffff169050816000806101000a81548173ffffffffffffffffffffffffffffffffffffffff021916908373ffffffffffffffffffffffffffffffffffffffff1602179055508173ffffffffffffffffffffffffffffffffffffffff168173ffffffffffffffffffffffffffffffffffffffff167f8be0079c531659141344cd1fd0a4f28419497f9722a3daafe3b4186f6b6457e060405160405180910390a35050565b6109fb8061010d6000396000f3fe6080604052600436106100705760003560e01c80638da5cb5b1161004e5780638da5cb5b146100e0578063c2152e301461010b578063d2514e8414610115578063f2fde38b1461015257610070565b80636548e9bc14610075578063715018a61461009e5780638406c079146100b5575b600080fd5b34801561008157600080fd5b5061009c600480360381019061009791906105e1565b61017b565b005b3480156100aa57600080fd5b506100b36101c7565b005b3480156100c157600080fd5b506100ca6101db565b6040516100d79190610716565b60405180910390f35b3480156100ec57600080fd5b506100f5610201565b60405161010291906106fb565b60405180910390f35b61011361022a565b005b34801561012157600080fd5b5061013c600480360381019061013791906105e1565b6102f2565b60405161014991906107b1565b60405180910390f35b34801561015e57600080fd5b50610179600480360381019061017491906105e1565b61030a565b005b61018361038e565b80600160006101000a81548173ffffffffffffffffffffffffffffffffffffffff021916908373ffffffffffffffffffffffffffffffffffffffff16021790555050565b6101cf61038e565b6101d9600061040c565b565b600160009054906101000a900473ffffffffffffffffffffffffffffffffffffffff1681565b60008060009054906101000a900473ffffffffffffffffffffffffffffffffffffffff16905090565b34600260003373ffffffffffffffffffffffffffffffffffffffff1673ffffffffffffffffffffffffffffffffffffffff168152602001908152602001600020600082825461027991906107e8565b925050819055506102ac600160009054906101000a900473ffffffffffffffffffffffffffffffffffffffff16346104d0565b343373ffffffffffffffffffffffffffffffffffffffff167fbbc5df8c05783e14fb0b7b85fb94e55270ea33faef5076c6960aa23b88c270c360405160405180910390a3565b60026020528060005260406000206000915090505481565b61031261038e565b600073ffffffffffffffffffffffffffffffffffffffff168173ffffffffffffffffffffffffffffffffffffffff161415610382576040517f08c379a000000000000000000000000000000000000000000000000000000000815260040161037990610731565b60405180910390fd5b61038b8161040c565b50565b6103966105c4565b73ffffffffffffffffffffffffffffffffffffffff166103b4610201565b73ffffffffffffffffffffffffffffffffffffffff161461040a576040517f08c379a000000000000000000000000000000000000000000000000000000000815260040161040190610791565b60405180910390fd5b565b60008060009054906101000a900473ffffffffffffffffffffffffffffffffffffffff169050816000806101000a81548173ffffffffffffffffffffffffffffffffffffffff021916908373ffffffffffffffffffffffffffffffffffffffff1602179055508173ffffffffffffffffffffffffffffffffffffffff168173ffffffffffffffffffffffffffffffffffffffff167f8be0079c531659141344cd1fd0a4f28419497f9722a3daafe3b4186f6b6457e060405160405180910390a35050565b80471015610513576040517f08c379a000000000000000000000000000000000000000000000000000000000815260040161050a90610771565b60405180910390fd5b60008273ffffffffffffffffffffffffffffffffffffffff1682604051610539906106e6565b60006040518083038185875af1925050503d8060008114610576576040519150601f19603f3d011682016040523d82523d6000602084013e61057b565b606091505b50509050806105bf576040517f08c379a00000000000000000000000000000000000000000000000000000000081526004016105b690610751565b60405180910390fd5b505050565b600033905090565b6000813590506105db816109ae565b92915050565b6000602082840312156105f357600080fd5b6000610601848285016105cc565b91505092915050565b61061381610850565b82525050565b6106228161083e565b82525050565b60006106356026836107d7565b9150610640826108bb565b604082019050919050565b6000610658603a836107d7565b91506106638261090a565b604082019050919050565b600061067b601d836107d7565b915061068682610959565b602082019050919050565b600061069e6020836107d7565b91506106a982610982565b602082019050919050565b60006106c16000836107cc565b91506106cc826109ab565b600082019050919050565b6106e081610882565b82525050565b60006106f1826106b4565b9150819050919050565b60006020820190506107106000830184610619565b92915050565b600060208201905061072b600083018461060a565b92915050565b6000602082019050818103600083015261074a81610628565b9050919050565b6000602082019050818103600083015261076a8161064b565b9050919050565b6000602082019050818103600083015261078a8161066e565b9050919050565b600060208201905081810360008301526107aa81610691565b9050919050565b60006020820190506107c660008301846106d7565b92915050565b600081905092915050565b600082825260208201905092915050565b60006107f382610882565b91506107fe83610882565b9250827fffffffffffffffffffffffffffffffffffffffffffffffffffffffffffffffff038211156108335761083261088c565b5b828201905092915050565b600061084982610862565b9050919050565b600061085b82610862565b9050919050565b600073ffffffffffffffffffffffffffffffffffffffff82169050919050565b6000819050919050565b7f4e487b7100000000000000000000000000000000000000000000000000000000600052601160045260246000fd5b7f4f776e61626c653a206e6577206f776e657220697320746865207a65726f206160008201527f6464726573730000000000000000000000000000000000000000000000000000602082015250565b7f416464726573733a20756e61626c6520746f2073656e642076616c75652c207260008201527f6563697069656e74206d61792068617665207265766572746564000000000000602082015250565b7f416464726573733a20696e73756666696369656e742062616c616e6365000000600082015250565b7f4f776e61626c653a2063616c6c6572206973206e6f7420746865206f776e6572600082015250565b50565b6109b78161083e565b81146109c257600080fd5b5056fea26469706673582212203065d6bb16164aa29176bce5922e3387b6e80744d9867f11f3e02165fa6f897464736f6c63430008040033",
  "linkReferences": {},
  "deployedLinkReferences": {}
}