{
  "_format": "hh-sol-artifact-1",
  "contractName": "VirtualAccounts",
  "sourceName": "contracts/VirtualAccounts.sol",
  "abi": [
    {
      "inputs": [
        {
          "internalType": "contract IVerifier",
          "name": "_verifier",
          "type": "address"
        }
      ],
      "stateMutability": "nonpayable",
      "type": "constructor"
    },
    {
      "inputs": [],
      "name": "AccountAlreadyActive",
      "type": "error"
    },
    {
      "inputs": [],
      "name": "AccountAlreadyExists",
      "type": "error"
    },
    {
      "inputs": [],
      "name": "CommitmentMismatch",
      "type": "error"
    },
    {
      "inputs": [],
      "name": "EarlyPaymentNotAllowed",
      "type": "error"
    },
    {
      "inputs": [],
      "name": "FunctionNotSupported",
      "type": "error"
    },
    {
      "inputs": [],
      "name": "InactiveAccount",
      "type": "error"
    },
    {
      "inputs": [],
      "name": "InvalidProof",
      "type": "error"
    },
    {
      "inputs": [],
      "name": "NotEnoughAccountBalance",
      "type": "error"
    },
    {
      "inputs": [],
      "name": "NotEnoughValue",
      "type": "error"
    },
    {
      "inputs": [],
      "name": "NotEthAccount",
      "type": "error"
    },
    {
      "inputs": [],
      "name": "NotTokenAccount",
      "type": "error"
    },
    {
      "inputs": [],
      "name": "OnlyAccountOwner",
      "type": "error"
    },
    {
      "inputs": [],
      "name": "OnlyOwner",
      "type": "error"
    },
    {
      "inputs": [],
      "name": "OnlyRelatedPartiesCanCancel",
      "type": "error"
    },
    {
      "inputs": [],
      "name": "PaymentIntentExpired",
      "type": "error"
    },
    {
      "inputs": [],
      "name": "PaymentIntentNullified",
      "type": "error"
    },
    {
      "inputs": [],
      "name": "PaymentNotAuthorized",
      "type": "error"
    },
    {
      "inputs": [],
      "name": "WalletAlreadyConnected",
      "type": "error"
    },
    {
      "inputs": [],
      "name": "ZeroAddressConnected",
      "type": "error"
    },
    {
      "inputs": [],
      "name": "ZeroTopup",
      "type": "error"
    },
    {
      "anonymous": false,
      "inputs": [
        {
          "indexed": true,
          "internalType": "bytes32",
          "name": "commitment",
          "type": "bytes32"
        }
      ],
      "name": "AccountClosed",
      "type": "event"
    },
    {
      "anonymous": false,
      "inputs": [
        {
          "indexed": true,
          "internalType": "bytes32",
          "name": "commitment",
          "type": "bytes32"
        },
        {
          "indexed": false,
          "internalType": "address",
          "name": "payee",
          "type": "address"
        },
        {
          "indexed": false,
          "internalType": "uint256",
          "name": "payment",
          "type": "uint256"
        }
      ],
      "name": "AccountDebited",
      "type": "event"
    },
    {
      "anonymous": false,
      "inputs": [
        {
          "indexed": true,
          "internalType": "bytes32",
          "name": "commitment",
          "type": "bytes32"
        },
        {
          "indexed": false,
          "internalType": "address",
          "name": "depositFor",
          "type": "address"
        },
        {
          "indexed": false,
          "internalType": "uint256",
          "name": "balance",
          "type": "uint256"
        }
      ],
      "name": "NewEthAccount",
      "type": "event"
    },
    {
      "anonymous": false,
      "inputs": [
        {
          "indexed": true,
          "internalType": "bytes32",
          "name": "commitment",
          "type": "bytes32"
        },
        {
          "indexed": false,
          "internalType": "address",
          "name": "depositFor",
          "type": "address"
        },
        {
          "indexed": false,
          "internalType": "uint256",
          "name": "amount",
          "type": "uint256"
        },
        {
          "indexed": false,
          "internalType": "address",
          "name": "token",
          "type": "address"
        }
      ],
      "name": "NewTokenAccount",
      "type": "event"
    },
    {
      "anonymous": false,
      "inputs": [
        {
          "indexed": true,
          "internalType": "bytes32",
          "name": "commitment",
          "type": "bytes32"
        },
        {
          "indexed": true,
          "internalType": "address",
          "name": "creator",
          "type": "address"
        },
        {
          "indexed": true,
          "internalType": "address",
          "name": "token",
          "type": "address"
        }
      ],
      "name": "NewWalletConnected",
      "type": "event"
    },
    {
      "anonymous": false,
      "inputs": [
        {
          "indexed": false,
          "internalType": "address",
          "name": "account",
          "type": "address"
        }
      ],
      "name": "Paused",
      "type": "event"
    },
    {
      "anonymous": false,
      "inputs": [
        {
          "indexed": true,
          "internalType": "bytes32",
          "name": "commitment",
          "type": "bytes32"
        },
        {
          "indexed": true,
          "internalType": "bytes32",
          "name": "paymentIntent",
          "type": "bytes32"
        },
        {
          "indexed": false,
          "internalType": "address",
          "name": "payee",
          "type": "address"
        }
      ],
      "name": "PaymentIntentCancelled",
      "type": "event"
    },
    {
      "anonymous": false,
      "inputs": [
        {
          "indexed": true,
          "internalType": "bytes32",
          "name": "commitment",
          "type": "bytes32"
        },
        {
          "indexed": false,
          "internalType": "uint256",
          "name": "balance",
          "type": "uint256"
        }
      ],
      "name": "TopUpETH",
      "type": "event"
    },
    {
      "anonymous": false,
      "inputs": [
        {
          "indexed": true,
          "internalType": "bytes32",
          "name": "commitment",
          "type": "bytes32"
        },
        {
          "indexed": false,
          "internalType": "uint256",
          "name": "amount",
          "type": "uint256"
        },
        {
          "indexed": false,
          "internalType": "address",
          "name": "token",
          "type": "address"
        }
      ],
      "name": "TopUpToken",
      "type": "event"
    },
    {
      "anonymous": false,
      "inputs": [
        {
          "indexed": false,
          "internalType": "address",
          "name": "account",
          "type": "address"
        }
      ],
      "name": "Unpaused",
      "type": "event"
    },
    {
      "inputs": [],
      "name": "_owner",
      "outputs": [
        {
          "internalType": "address payable",
          "name": "",
          "type": "address"
        }
      ],
      "stateMutability": "view",
      "type": "function"
    },
    {
      "inputs": [
        {
          "internalType": "address",
          "name": "",
          "type": "address"
        }
      ],
      "name": "accountCounter",
      "outputs": [
        {
          "internalType": "uint256",
          "name": "",
          "type": "uint256"
        }
      ],
      "stateMutability": "view",
      "type": "function"
    },
    {
      "inputs": [
        {
          "internalType": "bytes32",
          "name": "",
          "type": "bytes32"
        }
      ],
      "name": "accounts",
      "outputs": [
        {
          "internalType": "bool",
          "name": "active",
          "type": "bool"
        },
        {
          "internalType": "address",
          "name": "creator",
          "type": "address"
        },
        {
          "internalType": "contract IERC20",
          "name": "token",
          "type": "address"
        },
        {
          "internalType": "uint256",
          "name": "balance",
          "type": "uint256"
        }
      ],
      "stateMutability": "view",
      "type": "function"
    },
    {
      "inputs": [
        {
          "internalType": "uint256",
          "name": "amount",
          "type": "uint256"
        }
      ],
      "name": "calculateFee",
      "outputs": [
        {
          "internalType": "uint256",
          "name": "ownerFee",
          "type": "uint256"
        },
        {
          "internalType": "uint256",
          "name": "payment",
          "type": "uint256"
        }
      ],
      "stateMutability": "view",
      "type": "function"
    },
    {
      "inputs": [
        {
          "internalType": "uint256[8]",
          "name": "proof",
          "type": "uint256[8]"
        },
        {
          "internalType": "bytes32[2]",
          "name": "hashes",
          "type": "bytes32[2]"
        },
        {
          "internalType": "address",
          "name": "payee",
          "type": "address"
        },
        {
          "internalType": "uint256[4]",
          "name": "debit",
          "type": "uint256[4]"
        }
      ],
      "name": "cancelPaymentIntent",
      "outputs": [],
      "stateMutability": "nonpayable",
      "type": "function"
    },
    {
      "inputs": [
        {
          "internalType": "address",
          "name": "",
          "type": "address"
        },
        {
          "internalType": "uint256",
          "name": "",
          "type": "uint256"
        }
      ],
      "name": "commitments",
      "outputs": [
        {
          "internalType": "bytes32",
          "name": "",
          "type": "bytes32"
        }
      ],
      "stateMutability": "view",
      "type": "function"
    },
    {
      "inputs": [
        {
          "internalType": "bytes32",
          "name": "_commitment",
          "type": "bytes32"
        },
        {
          "internalType": "uint256",
          "name": "balance",
          "type": "uint256"
        },
        {
          "internalType": "string",
          "name": "encryptedNote",
          "type": "string"
        }
      ],
      "name": "depositEth",
      "outputs": [],
      "stateMutability": "payable",
      "type": "function"
    },
    {
      "inputs": [
        {
          "internalType": "bytes32",
          "name": "_commitment",
          "type": "bytes32"
        },
        {
          "internalType": "uint256",
          "name": "balance",
          "type": "uint256"
        },
        {
          "internalType": "address",
          "name": "token",
          "type": "address"
        },
        {
          "internalType": "string",
          "name": "encryptedNote",
          "type": "string"
        }
      ],
      "name": "depositToken",
      "outputs": [],
      "stateMutability": "nonpayable",
      "type": "function"
    },
    {
      "inputs": [
        {
          "internalType": "uint256[8]",
          "name": "proof",
          "type": "uint256[8]"
        },
        {
          "internalType": "bytes32[2]",
          "name": "hashes",
          "type": "bytes32[2]"
        },
        {
          "internalType": "address",
          "name": "payee",
          "type": "address"
        },
        {
          "internalType": "uint256[4]",
          "name": "debit",
          "type": "uint256[4]"
        }
      ],
      "name": "directdebit",
      "outputs": [],
      "stateMutability": "nonpayable",
      "type": "function"
    },
    {
      "inputs": [
        {
          "internalType": "bytes32",
          "name": "",
          "type": "bytes32"
        }
      ],
      "name": "encryptedNotes",
      "outputs": [
        {
          "internalType": "string",
          "name": "",
          "type": "string"
        }
      ],
      "stateMutability": "view",
      "type": "function"
    },
    {
      "inputs": [
        {
          "internalType": "bytes32",
          "name": "commitment",
          "type": "bytes32"
        }
      ],
      "name": "getAccount",
      "outputs": [
        {
          "components": [
            {
              "internalType": "bool",
              "name": "active",
              "type": "bool"
            },
            {
              "internalType": "address",
              "name": "creator",
              "type": "address"
            },
            {
              "internalType": "contract IERC20",
              "name": "token",
              "type": "address"
            },
            {
              "internalType": "uint256",
              "name": "balance",
              "type": "uint256"
            }
          ],
          "internalType": "struct AccountData",
          "name": "",
          "type": "tuple"
        }
      ],
      "stateMutability": "view",
      "type": "function"
    },
    {
      "inputs": [],
      "name": "ownerFeeDivider",
      "outputs": [
        {
          "internalType": "uint256",
          "name": "",
          "type": "uint256"
        }
      ],
      "stateMutability": "view",
      "type": "function"
    },
    {
      "inputs": [],
      "name": "paused",
      "outputs": [
        {
          "internalType": "bool",
          "name": "",
          "type": "bool"
        }
      ],
      "stateMutability": "view",
      "type": "function"
    },
    {
      "inputs": [
        {
          "internalType": "bytes32",
          "name": "",
          "type": "bytes32"
        }
      ],
      "name": "paymentIntents",
      "outputs": [
        {
          "internalType": "bool",
          "name": "isNullified",
          "type": "bool"
        },
        {
          "internalType": "uint256",
          "name": "withdrawalCount",
          "type": "uint256"
        },
        {
          "internalType": "uint256",
          "name": "lastDate",
          "type": "uint256"
        }
      ],
      "stateMutability": "view",
      "type": "function"
    },
    {
      "inputs": [],
      "name": "togglePause",
      "outputs": [],
      "stateMutability": "nonpayable",
      "type": "function"
    },
    {
      "inputs": [
        {
          "internalType": "bytes32",
          "name": "_commitment",
          "type": "bytes32"
        },
        {
          "internalType": "uint256",
          "name": "balance",
          "type": "uint256"
        }
      ],
      "name": "topUpETH",
      "outputs": [],
      "stateMutability": "payable",
      "type": "function"
    },
    {
      "inputs": [
        {
          "internalType": "bytes32",
          "name": "_commitment",
          "type": "bytes32"
        },
        {
          "internalType": "uint256",
          "name": "balance",
          "type": "uint256"
        }
      ],
      "name": "topUpTokens",
      "outputs": [],
      "stateMutability": "nonpayable",
      "type": "function"
    },
    {
      "inputs": [
        {
          "internalType": "uint256",
          "name": "newFeeDivider",
          "type": "uint256"
        }
      ],
      "name": "updateFee",
      "outputs": [],
      "stateMutability": "nonpayable",
      "type": "function"
    },
    {
      "inputs": [],
      "name": "verifier",
      "outputs": [
        {
          "internalType": "contract IVerifier",
          "name": "",
          "type": "address"
        }
      ],
      "stateMutability": "view",
      "type": "function"
    },
    {
      "inputs": [
        {
          "internalType": "bytes32",
          "name": "commitment",
          "type": "bytes32"
        }
      ],
      "name": "withdraw",
      "outputs": [],
      "stateMutability": "nonpayable",
      "type": "function"
    }
  ],
  "bytecode": "0x60a060405260646002553480156200001657600080fd5b50604051620041303803806200413083398181016040528101906200003c9190620000f6565b8060016000819055506000600160006101000a81548160ff0219169083151502179055508073ffffffffffffffffffffffffffffffffffffffff1660808173ffffffffffffffffffffffffffffffffffffffff1660601b81525050336001806101000a81548173ffffffffffffffffffffffffffffffffffffffff021916908373ffffffffffffffffffffffffffffffffffffffff160217905550505062000184565b600081519050620000f0816200016a565b92915050565b6000602082840312156200010957600080fd5b60006200011984828501620000df565b91505092915050565b60006200012f826200014a565b9050919050565b6000620001438262000122565b9050919050565b600073ffffffffffffffffffffffffffffffffffffffff82169050919050565b620001758162000136565b81146200018157600080fd5b50565b60805160601c613f86620001aa6000396000818161090a01526122220152613f866000f3fe60806040526004361061011e5760003560e01c80639012c4a8116100a0578063bc529c4311610064578063bc529c43146103b5578063c4ae3168146103f5578063cc8887f11461040c578063d1de501114610449578063fb60c31a146104865761011e565b80639012c4a8146102bd57806399a5d747146102e657806399ca856c14610324578063aaf317b414610361578063b2bdfa7b1461038a5761011e565b806334464922116100e757806334464922146101fb57806344f1d583146102245780635c975abb14610240578063746b9b661461026b5780638e19899e146102945761011e565b8062708d8814610123578063094b4b6d1461013f57806314107a941461016a5780632a28c268146101a75780632b7ac3f3146101d0575b600080fd5b61013d60048036038101906101389190613138565b6104c5565b005b34801561014b57600080fd5b5061015461082d565b6040516101619190613942565b60405180910390f35b34801561017657600080fd5b50610191600480360381019061018c9190613053565b610833565b60405161019e9190613805565b60405180910390f35b3480156101b357600080fd5b506101ce60048036038101906101c99190612fc3565b6108d3565b005b3480156101dc57600080fd5b506101e5610908565b6040516101f291906137ea565b60405180910390f35b34801561020757600080fd5b50610222600480360381019061021d9190612fc3565b61092c565b005b61023e6004803603810190610239919061307c565b610ba9565b005b34801561024c57600080fd5b50610255610d8c565b6040516102629190613738565b60405180910390f35b34801561027757600080fd5b50610292600480360381019061028d91906130b8565b610da3565b005b3480156102a057600080fd5b506102bb60048036038101906102b69190613053565b611157565b005b3480156102c957600080fd5b506102e460048036038101906102df91906131a4565b61135d565b005b3480156102f257600080fd5b5061030d600480360381019061030891906131a4565b6113ec565b60405161031b929190613986565b60405180910390f35b34801561033057600080fd5b5061034b60048036038101906103469190612f87565b611420565b60405161035891906137cf565b60405180910390f35b34801561036d57600080fd5b506103886004803603810190610383919061307c565b611445565b005b34801561039657600080fd5b5061039f61168b565b6040516103ac919061363f565b60405180910390f35b3480156103c157600080fd5b506103dc60048036038101906103d79190613053565b6116af565b6040516103ec9493929190613753565b60405180910390f35b34801561040157600080fd5b5061040a61172c565b005b34801561041857600080fd5b50610433600480360381019061042e9190612f5e565b6117d6565b6040516104409190613942565b60405180910390f35b34801561045557600080fd5b50610470600480360381019061046b9190613053565b6117ee565b60405161047d9190613927565b60405180910390f35b34801561049257600080fd5b506104ad60048036038101906104a89190613053565b6118ec565b6040516104bc93929190613798565b60405180910390f35b6104cd611923565b6006600085815260200190815260200160002060000160009054906101000a900460ff1615610528576040517fbfd7b1b100000000000000000000000000000000000000000000000000000000815260040160405180910390fd5b600073ffffffffffffffffffffffffffffffffffffffff166006600086815260200190815260200160002060000160019054906101000a900473ffffffffffffffffffffffffffffffffffffffff1673ffffffffffffffffffffffffffffffffffffffff16146105c4576040517f69783db700000000000000000000000000000000000000000000000000000000815260040160405180910390fd5b60008314156105ff576040517f751a2bb000000000000000000000000000000000000000000000000000000000815260040160405180910390fd5b348314610638576040517fe2f844a000000000000000000000000000000000000000000000000000000000815260040160405180910390fd5b83600360003373ffffffffffffffffffffffffffffffffffffffff1673ffffffffffffffffffffffffffffffffffffffff1681526020019081526020016000206000600460003373ffffffffffffffffffffffffffffffffffffffff1673ffffffffffffffffffffffffffffffffffffffff168152602001908152602001600020548152602001908152602001600020819055506001600460003373ffffffffffffffffffffffffffffffffffffffff1673ffffffffffffffffffffffffffffffffffffffff168152602001908152602001600020600082825461071c9190613a73565b9250508190555060016006600086815260200190815260200160002060000160006101000a81548160ff021916908315150217905550336006600086815260200190815260200160002060000160016101000a81548173ffffffffffffffffffffffffffffffffffffffff021916908373ffffffffffffffffffffffffffffffffffffffff16021790555082600660008681526020019081526020016000206002018190555081816007600087815260200190815260200160002091906107e4929190612d6d565b50837f99c33e0f1016bf1b130f8e7e0fef072ce14459ac655aaf23194c5fa94d59b27d3385604051610817929190613691565b60405180910390a2610827611973565b50505050565b60025481565b6007602052806000526040600020600091509050805461085290613c67565b80601f016020809104026020016040519081016040528092919081815260200182805461087e90613c67565b80156108cb5780601f106108a0576101008083540402835291602001916108cb565b820191906000526020600020905b8154815290600101906020018083116108ae57829003601f168201915b505050505081565b6108db611923565b6108e361197d565b6108ef848484846119c7565b6108fa838383611e7a565b610902611973565b50505050565b7f000000000000000000000000000000000000000000000000000000000000000081565b6109388484848461221e565b61096e576040517f09bde33900000000000000000000000000000000000000000000000000000000815260040160405180910390fd5b60066000846001600281106109ac577f4e487b7100000000000000000000000000000000000000000000000000000000600052603260045260246000fd5b6020020135815260200190815260200160002060000160019054906101000a900473ffffffffffffffffffffffffffffffffffffffff1673ffffffffffffffffffffffffffffffffffffffff163373ffffffffffffffffffffffffffffffffffffffff1614158015610a4a57508173ffffffffffffffffffffffffffffffffffffffff163373ffffffffffffffffffffffffffffffffffffffff1614155b15610a81576040517feff06b9d00000000000000000000000000000000000000000000000000000000815260040160405180910390fd5b60016005600085600060028110610ac1577f4e487b7100000000000000000000000000000000000000000000000000000000600052603260045260246000fd5b6020020135815260200190815260200160002060000160006101000a81548160ff02191690831515021790555082600060028110610b28577f4e487b7100000000000000000000000000000000000000000000000000000000600052603260045260246000fd5b602002013583600160028110610b67577f4e487b7100000000000000000000000000000000000000000000000000000000600052603260045260246000fd5b60200201357f712cb0bffbe0011ec1e8ed62fc42ebf28ffee192ea00fea0c42565b3239504ad84604051610b9b9190613624565b60405180910390a350505050565b610bb1611923565b6006600083815260200190815260200160002060000160009054906101000a900460ff16610c0b576040517f2be530bc00000000000000000000000000000000000000000000000000000000815260040160405180910390fd5b6000811415610c46576040517f751a2bb000000000000000000000000000000000000000000000000000000000815260040160405180910390fd5b348114610c7f576040517fe2f844a000000000000000000000000000000000000000000000000000000000815260040160405180910390fd5b600073ffffffffffffffffffffffffffffffffffffffff166006600084815260200190815260200160002060010160009054906101000a900473ffffffffffffffffffffffffffffffffffffffff1673ffffffffffffffffffffffffffffffffffffffff1614610d1b576040517f304bd81d00000000000000000000000000000000000000000000000000000000815260040160405180910390fd5b80600660008481526020019081526020016000206002016000828254610d419190613a73565b92505081905550817fa744916269eae88a51e1b522154b84a665f9df6ad0750c67647b487501a9d67582604051610d789190613942565b60405180910390a2610d88611973565b5050565b6000600160009054906101000a900460ff16905090565b610dab611923565b6006600086815260200190815260200160002060000160009054906101000a900460ff1615610e06576040517fbfd7b1b100000000000000000000000000000000000000000000000000000000815260040160405180910390fd5b6000841415610e41576040517f751a2bb000000000000000000000000000000000000000000000000000000000815260040160405180910390fd5b600073ffffffffffffffffffffffffffffffffffffffff166006600087815260200190815260200160002060000160019054906101000a900473ffffffffffffffffffffffffffffffffffffffff1673ffffffffffffffffffffffffffffffffffffffff1614610edd576040517f69783db700000000000000000000000000000000000000000000000000000000815260040160405180910390fd5b84600360003373ffffffffffffffffffffffffffffffffffffffff1673ffffffffffffffffffffffffffffffffffffffff1681526020019081526020016000206000600460003373ffffffffffffffffffffffffffffffffffffffff1673ffffffffffffffffffffffffffffffffffffffff168152602001908152602001600020548152602001908152602001600020819055506001600460003373ffffffffffffffffffffffffffffffffffffffff1673ffffffffffffffffffffffffffffffffffffffff1681526020019081526020016000206000828254610fc19190613a73565b9250508190555060016006600087815260200190815260200160002060000160006101000a81548160ff021916908315150217905550336006600087815260200190815260200160002060000160016101000a81548173ffffffffffffffffffffffffffffffffffffffff021916908373ffffffffffffffffffffffffffffffffffffffff160217905550836006600087815260200190815260200160002060020181905550826006600087815260200190815260200160002060010160006101000a81548173ffffffffffffffffffffffffffffffffffffffff021916908373ffffffffffffffffffffffffffffffffffffffff16021790555081816007600088815260200190815260200160002091906110de929190612d6d565b5061110c3330868673ffffffffffffffffffffffffffffffffffffffff166126ad909392919063ffffffff16565b847f32e90eeb9e9eb67d074a5a9189654727af7f8b57ded124985de30bbb5051cdcd338686604051611140939291906136ba565b60405180910390a2611150611973565b5050505050565b61115f611923565b6006600082815260200190815260200160002060000160009054906101000a900460ff166111b9576040517f2be530bc00000000000000000000000000000000000000000000000000000000815260040160405180910390fd5b6006600082815260200190815260200160002060000160019054906101000a900473ffffffffffffffffffffffffffffffffffffffff1673ffffffffffffffffffffffffffffffffffffffff163373ffffffffffffffffffffffffffffffffffffffff1614611254576040517f244e5fa600000000000000000000000000000000000000000000000000000000815260040160405180910390fd5b60006006600083815260200190815260200160002060000160006101000a81548160ff021916908315150217905550600060066000838152602001908152602001600020600201549050600073ffffffffffffffffffffffffffffffffffffffff166006600084815260200190815260200160002060010160009054906101000a900473ffffffffffffffffffffffffffffffffffffffff1673ffffffffffffffffffffffffffffffffffffffff161461131857611313823383612736565b611324565b6113238233836127c9565b5b817f871b627720fc9f3ba5602fde62d03058c14f7aaae66723d46303769c253632f860405160405180910390a25061135a611973565b50565b60018054906101000a900473ffffffffffffffffffffffffffffffffffffffff1673ffffffffffffffffffffffffffffffffffffffff163373ffffffffffffffffffffffffffffffffffffffff16146113e2576040517f5fc483c500000000000000000000000000000000000000000000000000000000815260040160405180910390fd5b8060028190555050565b6000806114046002548461280590919063ffffffff16565b9150611419828461281b90919063ffffffff16565b9050915091565b6003602052816000526040600020602052806000526040600020600091509150505481565b61144d611923565b6006600083815260200190815260200160002060000160009054906101000a900460ff166114a7576040517f2be530bc00000000000000000000000000000000000000000000000000000000815260040160405180910390fd5b60008114156114e2576040517f751a2bb000000000000000000000000000000000000000000000000000000000815260040160405180910390fd5b600073ffffffffffffffffffffffffffffffffffffffff166006600084815260200190815260200160002060010160009054906101000a900473ffffffffffffffffffffffffffffffffffffffff1673ffffffffffffffffffffffffffffffffffffffff16141561157f576040517f68da804f00000000000000000000000000000000000000000000000000000000815260040160405180910390fd5b806006600084815260200190815260200160002060020160008282546115a59190613a73565b9250508190555061160f3330836006600087815260200190815260200160002060010160009054906101000a900473ffffffffffffffffffffffffffffffffffffffff1673ffffffffffffffffffffffffffffffffffffffff166126ad909392919063ffffffff16565b817f19a953698442b09a996bcc766cbacf2fc9a9b82be784fd3c90e71f21d067c3e4826006600086815260200190815260200160002060010160009054906101000a900473ffffffffffffffffffffffffffffffffffffffff1660405161167792919061395d565b60405180910390a2611687611973565b5050565b60018054906101000a900473ffffffffffffffffffffffffffffffffffffffff1681565b60066020528060005260406000206000915090508060000160009054906101000a900460ff16908060000160019054906101000a900473ffffffffffffffffffffffffffffffffffffffff16908060010160009054906101000a900473ffffffffffffffffffffffffffffffffffffffff16908060020154905084565b60018054906101000a900473ffffffffffffffffffffffffffffffffffffffff1673ffffffffffffffffffffffffffffffffffffffff163373ffffffffffffffffffffffffffffffffffffffff16146117b1576040517f5fc483c500000000000000000000000000000000000000000000000000000000815260040160405180910390fd5b6117b9610d8c565b156117cb576117c6612831565b6117d4565b6117d3612894565b5b565b60046020528060005260406000206000915090505481565b6117f6612df3565b600660008381526020019081526020016000206040518060800160405290816000820160009054906101000a900460ff161515151581526020016000820160019054906101000a900473ffffffffffffffffffffffffffffffffffffffff1673ffffffffffffffffffffffffffffffffffffffff1673ffffffffffffffffffffffffffffffffffffffff1681526020016001820160009054906101000a900473ffffffffffffffffffffffffffffffffffffffff1673ffffffffffffffffffffffffffffffffffffffff1673ffffffffffffffffffffffffffffffffffffffff1681526020016002820154815250509050919050565b60056020528060005260406000206000915090508060000160009054906101000a900460ff16908060010154908060020154905083565b60026000541415611969576040517f08c379a000000000000000000000000000000000000000000000000000000000815260040161196090613907565b60405180910390fd5b6002600081905550565b6001600081905550565b611985610d8c565b156119c5576040517f08c379a00000000000000000000000000000000000000000000000000000000081526004016119bc906138a7565b60405180910390fd5b565b6005600084600060028110611a05577f4e487b7100000000000000000000000000000000000000000000000000000000600052603260045260246000fd5b6020020135815260200190815260200160002060000160009054906101000a900460ff1615611a60576040517fdc67407a00000000000000000000000000000000000000000000000000000000815260040160405180910390fd5b80600160048110611a9a577f4e487b7100000000000000000000000000000000000000000000000000000000600052603260045260246000fd5b60200201356005600085600060028110611add577f4e487b7100000000000000000000000000000000000000000000000000000000600052603260045260246000fd5b60200201358152602001908152602001600020600101541415611b2c576040517f5c7580fa00000000000000000000000000000000000000000000000000000000815260040160405180910390fd5b6006600084600160028110611b6a577f4e487b7100000000000000000000000000000000000000000000000000000000600052603260045260246000fd5b6020020135815260200190815260200160002060000160009054906101000a900460ff16611bc4576040517f2be530bc00000000000000000000000000000000000000000000000000000000815260040160405180910390fd5b80600360048110611bfe577f4e487b7100000000000000000000000000000000000000000000000000000000600052603260045260246000fd5b602002013581600060048110611c3d577f4e487b7100000000000000000000000000000000000000000000000000000000600052603260045260246000fd5b60200201351015611c7a576040517f95ae795b00000000000000000000000000000000000000000000000000000000815260040160405180910390fd5b6006600084600160028110611cb8577f4e487b7100000000000000000000000000000000000000000000000000000000600052603260045260246000fd5b602002013581526020019081526020016000206002015481600360048110611d09577f4e487b7100000000000000000000000000000000000000000000000000000000600052603260045260246000fd5b60200201351115611d46576040517fd8d0c64e00000000000000000000000000000000000000000000000000000000815260040160405180910390fd5b42611dfa6201518083600260048110611d88577f4e487b7100000000000000000000000000000000000000000000000000000000600052603260045260246000fd5b6020020135611d979190613afa565b6005600087600060028110611dd5577f4e487b7100000000000000000000000000000000000000000000000000000000600052603260045260246000fd5b60200201358152602001908152602001600020600201546128f690919063ffffffff16565b1115611e32576040517f4747bf0000000000000000000000000000000000000000000000000000000000815260040160405180910390fd5b611e3e8484848461221e565b611e74576040517f09bde33900000000000000000000000000000000000000000000000000000000815260040160405180910390fd5b50505050565b600080611ec483600360048110611eba577f4e487b7100000000000000000000000000000000000000000000000000000000600052603260045260246000fd5b60200201356113ec565b9150915060016005600087600060028110611f08577f4e487b7100000000000000000000000000000000000000000000000000000000600052603260045260246000fd5b602002013581526020019081526020016000206001016000828254611f2d9190613a73565b92505081905550426005600087600060028110611f73577f4e487b7100000000000000000000000000000000000000000000000000000000600052603260045260246000fd5b6020020135815260200190815260200160002060020181905550600073ffffffffffffffffffffffffffffffffffffffff166006600087600160028110611fe3577f4e487b7100000000000000000000000000000000000000000000000000000000600052603260045260246000fd5b6020020135815260200190815260200160002060010160009054906101000a900473ffffffffffffffffffffffffffffffffffffffff1673ffffffffffffffffffffffffffffffffffffffff16146120ec5761207e85600160028110612072577f4e487b7100000000000000000000000000000000000000000000000000000000600052603260045260246000fd5b60200201358583612736565b6120e7856001600281106120bb577f4e487b7100000000000000000000000000000000000000000000000000000000600052603260045260246000fd5b602002013560018054906101000a900473ffffffffffffffffffffffffffffffffffffffff1684612736565b61219f565b61213585600160028110612129577f4e487b7100000000000000000000000000000000000000000000000000000000600052603260045260246000fd5b602002013585836127c9565b61219e85600160028110612172577f4e487b7100000000000000000000000000000000000000000000000000000000600052603260045260246000fd5b602002013560018054906101000a900473ffffffffffffffffffffffffffffffffffffffff16846127c9565b5b846001600281106121d9577f4e487b7100000000000000000000000000000000000000000000000000000000600052603260045260246000fd5b60200201357f3e0b49f5477938c9df20e76b46ba488cba6c52af1e25a905bd3a5fd16866483d858360405161220f929190613691565b60405180910390a25050505050565b60007f000000000000000000000000000000000000000000000000000000000000000073ffffffffffffffffffffffffffffffffffffffff1663f398789b6040518060400160405280886000600881106122a1577f4e487b7100000000000000000000000000000000000000000000000000000000600052603260045260246000fd5b60200201358152602001886001600881106122e5577f4e487b7100000000000000000000000000000000000000000000000000000000600052603260045260246000fd5b6020020135815250604051806040016040528060405180604001604052808b60026008811061233d577f4e487b7100000000000000000000000000000000000000000000000000000000600052603260045260246000fd5b602002013581526020018b600360088110612381577f4e487b7100000000000000000000000000000000000000000000000000000000600052603260045260246000fd5b6020020135815250815260200160405180604001604052808b6004600881106123d3577f4e487b7100000000000000000000000000000000000000000000000000000000600052603260045260246000fd5b602002013581526020018b600560088110612417577f4e487b7100000000000000000000000000000000000000000000000000000000600052603260045260246000fd5b602002013581525081525060405180604001604052808a600660088110612467577f4e487b7100000000000000000000000000000000000000000000000000000000600052603260045260246000fd5b602002013581526020018a6007600881106124ab577f4e487b7100000000000000000000000000000000000000000000000000000000600052603260045260246000fd5b60200201358152506040518060c001604052808a6000600281106124f8577f4e487b7100000000000000000000000000000000000000000000000000000000600052603260045260246000fd5b602002013560001c81526020018a60016002811061253f577f4e487b7100000000000000000000000000000000000000000000000000000000600052603260045260246000fd5b602002013560001c81526020018973ffffffffffffffffffffffffffffffffffffffff168152602001886000600481106125a2577f4e487b7100000000000000000000000000000000000000000000000000000000600052603260045260246000fd5b60200201358152602001886001600481106125e6577f4e487b7100000000000000000000000000000000000000000000000000000000600052603260045260246000fd5b602002013581526020018860026004811061262a577f4e487b7100000000000000000000000000000000000000000000000000000000600052603260045260246000fd5b60200201358152506040518563ffffffff1660e01b815260040161265194939291906136f1565b602060405180830381600087803b15801561266b57600080fd5b505af115801561267f573d6000803e3d6000fd5b505050506040513d601f19601f820116820180604052508101906126a3919061302a565b9050949350505050565b612730846323b872dd60e01b8585856040516024016126ce9392919061365a565b604051602081830303815290604052907bffffffffffffffffffffffffffffffffffffffffffffffffffffffff19166020820180517bffffffffffffffffffffffffffffffffffffffffffffffffffffffff838183161783525050505061290c565b50505050565b61279782826006600087815260200190815260200160002060010160009054906101000a900473ffffffffffffffffffffffffffffffffffffffff1673ffffffffffffffffffffffffffffffffffffffff166129d49092919063ffffffff16565b806006600085815260200190815260200160002060020160008282546127bd9190613b54565b92505081905550505050565b6127d38282612a5a565b806006600085815260200190815260200160002060020160008282546127f99190613b54565b92505081905550505050565b600081836128139190613ac9565b905092915050565b600081836128299190613b54565b905092915050565b612839612b4e565b6000600160006101000a81548160ff0219169083151502179055507f5db9ee0a495bf2e6ff9c91a7834c1ba4fdd244a5e8aa4e537bd38aeae4b073aa61287d612b97565b60405161288a9190613624565b60405180910390a1565b61289c61197d565b60018060006101000a81548160ff0219169083151502179055507f62e78cea01bee320cd4e420270b5ea74000d11b0c9f74754ebdbfc544b05a2586128df612b97565b6040516128ec9190613624565b60405180910390a1565b600081836129049190613a73565b905092915050565b600061296e826040518060400160405280602081526020017f5361666545524332303a206c6f772d6c6576656c2063616c6c206661696c65648152508573ffffffffffffffffffffffffffffffffffffffff16612b9f9092919063ffffffff16565b905060008151148061299057508080602001905181019061298f919061302a565b5b6129cf576040517f08c379a00000000000000000000000000000000000000000000000000000000081526004016129c6906138e7565b60405180910390fd5b505050565b612a558363a9059cbb60e01b84846040516024016129f3929190613691565b604051602081830303815290604052907bffffffffffffffffffffffffffffffffffffffffffffffffffffffff19166020820180517bffffffffffffffffffffffffffffffffffffffffffffffffffffffff838183161783525050505061290c565b505050565b80471015612a9d576040517f08c379a0000000000000000000000000000000000000000000000000000000008152600401612a9490613867565b60405180910390fd5b60008273ffffffffffffffffffffffffffffffffffffffff1682604051612ac39061360f565b60006040518083038185875af1925050503d8060008114612b00576040519150601f19603f3d011682016040523d82523d6000602084013e612b05565b606091505b5050905080612b49576040517f08c379a0000000000000000000000000000000000000000000000000000000008152600401612b4090613847565b60405180910390fd5b505050565b612b56610d8c565b612b95576040517f08c379a0000000000000000000000000000000000000000000000000000000008152600401612b8c90613827565b60405180910390fd5b565b600033905090565b6060612bae8484600085612bb7565b90509392505050565b606082471015612bfc576040517f08c379a0000000000000000000000000000000000000000000000000000000008152600401612bf390613887565b60405180910390fd5b6000808673ffffffffffffffffffffffffffffffffffffffff168587604051612c2591906135f8565b60006040518083038185875af1925050503d8060008114612c62576040519150601f19603f3d011682016040523d82523d6000602084013e612c67565b606091505b5091509150612c7887838387612c84565b92505050949350505050565b60608315612ce757600083511415612cdf57612c9f85612cfa565b612cde576040517f08c379a0000000000000000000000000000000000000000000000000000000008152600401612cd5906138c7565b60405180910390fd5b5b829050612cf2565b612cf18383612d1d565b5b949350505050565b6000808273ffffffffffffffffffffffffffffffffffffffff163b119050919050565b600082511115612d305781518083602001fd5b806040517f08c379a0000000000000000000000000000000000000000000000000000000008152600401612d649190613805565b60405180910390fd5b828054612d7990613c67565b90600052602060002090601f016020900481019282612d9b5760008555612de2565b82601f10612db457803560ff1916838001178555612de2565b82800160010185558215612de2579182015b82811115612de1578235825591602001919060010190612dc6565b5b509050612def9190612e49565b5090565b6040518060800160405280600015158152602001600073ffffffffffffffffffffffffffffffffffffffff168152602001600073ffffffffffffffffffffffffffffffffffffffff168152602001600081525090565b5b80821115612e62576000816000905550600101612e4a565b5090565b600081359050612e7581613ef4565b92915050565b600081905082602060020282011115612e9357600080fd5b92915050565b600081905082602060040282011115612eb157600080fd5b92915050565b600081905082602060080282011115612ecf57600080fd5b92915050565b600081519050612ee481613f0b565b92915050565b600081359050612ef981613f22565b92915050565b60008083601f840112612f1157600080fd5b8235905067ffffffffffffffff811115612f2a57600080fd5b602083019150836001820283011115612f4257600080fd5b9250929050565b600081359050612f5881613f39565b92915050565b600060208284031215612f7057600080fd5b6000612f7e84828501612e66565b91505092915050565b60008060408385031215612f9a57600080fd5b6000612fa885828601612e66565b9250506020612fb985828601612f49565b9150509250929050565b6000806000806101e08587031215612fda57600080fd5b6000612fe887828801612eb7565b945050610100612ffa87828801612e7b565b93505061014061300c87828801612e66565b92505061016061301e87828801612e99565b91505092959194509250565b60006020828403121561303c57600080fd5b600061304a84828501612ed5565b91505092915050565b60006020828403121561306557600080fd5b600061307384828501612eea565b91505092915050565b6000806040838503121561308f57600080fd5b600061309d85828601612eea565b92505060206130ae85828601612f49565b9150509250929050565b6000806000806000608086880312156130d057600080fd5b60006130de88828901612eea565b95505060206130ef88828901612f49565b945050604061310088828901612e66565b935050606086013567ffffffffffffffff81111561311d57600080fd5b61312988828901612eff565b92509250509295509295909350565b6000806000806060858703121561314e57600080fd5b600061315c87828801612eea565b945050602061316d87828801612f49565b935050604085013567ffffffffffffffff81111561318a57600080fd5b61319687828801612eff565b925092505092959194509250565b6000602082840312156131b657600080fd5b60006131c484828501612f49565b91505092915050565b60006131d98383613281565b60408301905092915050565b60006131f183836135da565b60208301905092915050565b61320681613b9a565b82525050565b61321581613b88565b82525050565b61322481613b88565b82525050565b613233816139cd565b61323d8184613a2b565b9250613248826139af565b8060005b8381101561327957815161326087826131cd565b965061326b83613a04565b92505060018101905061324c565b505050505050565b61328a816139d8565b6132948184613a36565b925061329f826139b9565b8060005b838110156132d05781516132b787826131e5565b96506132c283613a11565b9250506001810190506132a3565b505050505050565b6132e1816139d8565b6132eb8184613a41565b92506132f6826139b9565b8060005b8381101561332757815161330e87826131e5565b965061331983613a11565b9250506001810190506132fa565b505050505050565b613338816139e3565b6133428184613a4c565b925061334d826139c3565b8060005b8381101561337e57815161336587826131e5565b965061337083613a1e565b925050600181019050613351565b505050505050565b61338f81613bac565b82525050565b61339e81613bac565b82525050565b6133ad81613bb8565b82525050565b60006133be826139ee565b6133c88185613a57565b93506133d8818560208601613c34565b80840191505092915050565b6133ed81613bec565b82525050565b6133fc81613bec565b82525050565b61340b81613c10565b82525050565b600061341c826139f9565b6134268185613a62565b9350613436818560208601613c34565b61343f81613d26565b840191505092915050565b6000613457601483613a62565b915061346282613d37565b602082019050919050565b600061347a603a83613a62565b915061348582613d60565b604082019050919050565b600061349d601d83613a62565b91506134a882613daf565b602082019050919050565b60006134c0602683613a62565b91506134cb82613dd8565b604082019050919050565b60006134e3601083613a62565b91506134ee82613e27565b602082019050919050565b6000613506600083613a57565b915061351182613e50565b600082019050919050565b6000613529601d83613a62565b915061353482613e53565b602082019050919050565b600061354c602a83613a62565b915061355782613e7c565b604082019050919050565b600061356f601f83613a62565b915061357a82613ecb565b602082019050919050565b60808201600082015161359b6000850182613386565b5060208201516135ae602085018261320c565b5060408201516135c160408501826133e4565b5060608201516135d460608501826135da565b50505050565b6135e381613be2565b82525050565b6135f281613be2565b82525050565b600061360482846133b3565b915081905092915050565b600061361a826134f9565b9150819050919050565b6000602082019050613639600083018461321b565b92915050565b600060208201905061365460008301846131fd565b92915050565b600060608201905061366f600083018661321b565b61367c602083018561321b565b61368960408301846135e9565b949350505050565b60006040820190506136a6600083018561321b565b6136b360208301846135e9565b9392505050565b60006060820190506136cf600083018661321b565b6136dc60208301856135e9565b6136e9604083018461321b565b949350505050565b60006101c08201905061370760008301876132d8565b613714604083018661322a565b61372160c08301856132d8565b61372f61010083018461332f565b95945050505050565b600060208201905061374d6000830184613395565b92915050565b60006080820190506137686000830187613395565b613775602083018661321b565b61378260408301856133f3565b61378f60608301846135e9565b95945050505050565b60006060820190506137ad6000830186613395565b6137ba60208301856135e9565b6137c760408301846135e9565b949350505050565b60006020820190506137e460008301846133a4565b92915050565b60006020820190506137ff6000830184613402565b92915050565b6000602082019050818103600083015261381f8184613411565b905092915050565b600060208201905081810360008301526138408161344a565b9050919050565b600060208201905081810360008301526138608161346d565b9050919050565b6000602082019050818103600083015261388081613490565b9050919050565b600060208201905081810360008301526138a0816134b3565b9050919050565b600060208201905081810360008301526138c0816134d6565b9050919050565b600060208201905081810360008301526138e08161351c565b9050919050565b600060208201905081810360008301526139008161353f565b9050919050565b6000602082019050818103600083015261392081613562565b9050919050565b600060808201905061393c6000830184613585565b92915050565b600060208201905061395760008301846135e9565b92915050565b600060408201905061397260008301856135e9565b61397f602083018461321b565b9392505050565b600060408201905061399b60008301856135e9565b6139a860208301846135e9565b9392505050565b6000819050919050565b6000819050919050565b6000819050919050565b600060029050919050565b600060029050919050565b600060069050919050565b600081519050919050565b600081519050919050565b6000602082019050919050565b6000602082019050919050565b6000602082019050919050565b600081905092915050565b600081905092915050565b600081905092915050565b600081905092915050565b600081905092915050565b600082825260208201905092915050565b6000613a7e82613be2565b9150613a8983613be2565b9250827fffffffffffffffffffffffffffffffffffffffffffffffffffffffffffffffff03821115613abe57613abd613c99565b5b828201905092915050565b6000613ad482613be2565b9150613adf83613be2565b925082613aef57613aee613cc8565b5b828204905092915050565b6000613b0582613be2565b9150613b1083613be2565b9250817fffffffffffffffffffffffffffffffffffffffffffffffffffffffffffffffff0483118215151615613b4957613b48613c99565b5b828202905092915050565b6000613b5f82613be2565b9150613b6a83613be2565b925082821015613b7d57613b7c613c99565b5b828203905092915050565b6000613b9382613bc2565b9050919050565b6000613ba582613bc2565b9050919050565b60008115159050919050565b6000819050919050565b600073ffffffffffffffffffffffffffffffffffffffff82169050919050565b6000819050919050565b6000613bf782613bfe565b9050919050565b6000613c0982613bc2565b9050919050565b6000613c1b82613c22565b9050919050565b6000613c2d82613bc2565b9050919050565b60005b83811015613c52578082015181840152602081019050613c37565b83811115613c61576000848401525b50505050565b60006002820490506001821680613c7f57607f821691505b60208210811415613c9357613c92613cf7565b5b50919050565b7f4e487b7100000000000000000000000000000000000000000000000000000000600052601160045260246000fd5b7f4e487b7100000000000000000000000000000000000000000000000000000000600052601260045260246000fd5b7f4e487b7100000000000000000000000000000000000000000000000000000000600052602260045260246000fd5b6000601f19601f8301169050919050565b7f5061757361626c653a206e6f7420706175736564000000000000000000000000600082015250565b7f416464726573733a20756e61626c6520746f2073656e642076616c75652c207260008201527f6563697069656e74206d61792068617665207265766572746564000000000000602082015250565b7f416464726573733a20696e73756666696369656e742062616c616e6365000000600082015250565b7f416464726573733a20696e73756666696369656e742062616c616e636520666f60008201527f722063616c6c0000000000000000000000000000000000000000000000000000602082015250565b7f5061757361626c653a2070617573656400000000000000000000000000000000600082015250565b50565b7f416464726573733a2063616c6c20746f206e6f6e2d636f6e7472616374000000600082015250565b7f5361666545524332303a204552433230206f7065726174696f6e20646964206e60008201527f6f74207375636365656400000000000000000000000000000000000000000000602082015250565b7f5265656e7472616e637947756172643a207265656e7472616e742063616c6c00600082015250565b613efd81613b88565b8114613f0857600080fd5b50565b613f1481613bac565b8114613f1f57600080fd5b50565b613f2b81613bb8565b8114613f3657600080fd5b50565b613f4281613be2565b8114613f4d57600080fd5b5056fea26469706673582212209bf4d84d198b36fdcf5b9f82937ce3bae7c692e3d1da1a6dbfc5138d0bd5912b64736f6c63430008040033",
  "linkReferences": {},
  "deployedLinkReferences": {}
}