{
  "_format": "hh-sol-artifact-1",
  "contractName": "VirtualAccounts",
  "sourceName": "contracts/VirtualAccounts.sol",
  "abi": [
    {
      "inputs": [
        {
          "internalType": "contract IVerifier",
          "name": "_verifier",
          "type": "address"
        }
      ],
      "stateMutability": "nonpayable",
      "type": "constructor"
    },
    {
      "inputs": [],
      "name": "AccountAlreadyActive",
      "type": "error"
    },
    {
      "inputs": [],
      "name": "AccountAlreadyExists",
      "type": "error"
    },
    {
      "inputs": [],
      "name": "CommitmentMismatch",
      "type": "error"
    },
    {
      "inputs": [],
      "name": "EarlyPaymentNotAllowed",
      "type": "error"
    },
    {
      "inputs": [],
      "name": "FunctionNotSupported",
      "type": "error"
    },
    {
      "inputs": [],
      "name": "InactiveAccount",
      "type": "error"
    },
    {
      "inputs": [],
      "name": "InvalidProof",
      "type": "error"
    },
    {
      "inputs": [],
      "name": "NotEnoughAccountBalance",
      "type": "error"
    },
    {
      "inputs": [],
      "name": "NotEnoughValue",
      "type": "error"
    },
    {
      "inputs": [],
      "name": "NotEthAccount",
      "type": "error"
    },
    {
      "inputs": [],
      "name": "NotTokenAccount",
      "type": "error"
    },
    {
      "inputs": [],
      "name": "OnlyAccountOwner",
      "type": "error"
    },
    {
      "inputs": [],
      "name": "OnlyOwner",
      "type": "error"
    },
    {
      "inputs": [],
      "name": "OnlyRelatedPartiesCanCancel",
      "type": "error"
    },
    {
      "inputs": [],
      "name": "PaymentIntentExpired",
      "type": "error"
    },
    {
      "inputs": [],
      "name": "PaymentIntentNullified",
      "type": "error"
    },
    {
      "inputs": [],
      "name": "PaymentNotAuthorized",
      "type": "error"
    },
    {
      "inputs": [],
      "name": "ZeroAddressConnected",
      "type": "error"
    },
    {
      "inputs": [],
      "name": "ZeroTopup",
      "type": "error"
    },
    {
      "anonymous": false,
      "inputs": [
        {
          "indexed": true,
          "internalType": "bytes32",
          "name": "commitment",
          "type": "bytes32"
        }
      ],
      "name": "AccountClosed",
      "type": "event"
    },
    {
      "anonymous": false,
      "inputs": [
        {
          "indexed": true,
          "internalType": "bytes32",
          "name": "commitment",
          "type": "bytes32"
        },
        {
          "indexed": false,
          "internalType": "address",
          "name": "payee",
          "type": "address"
        },
        {
          "indexed": false,
          "internalType": "uint256",
          "name": "payment",
          "type": "uint256"
        }
      ],
      "name": "AccountDebited",
      "type": "event"
    },
    {
      "anonymous": false,
      "inputs": [
        {
          "indexed": true,
          "internalType": "bytes32",
          "name": "commitment",
          "type": "bytes32"
        },
        {
          "indexed": false,
          "internalType": "address",
          "name": "depositFor",
          "type": "address"
        },
        {
          "indexed": false,
          "internalType": "uint256",
          "name": "balance",
          "type": "uint256"
        }
      ],
      "name": "NewEthAccount",
      "type": "event"
    },
    {
      "anonymous": false,
      "inputs": [
        {
          "indexed": true,
          "internalType": "bytes32",
          "name": "commitment",
          "type": "bytes32"
        },
        {
          "indexed": false,
          "internalType": "address",
          "name": "depositFor",
          "type": "address"
        },
        {
          "indexed": false,
          "internalType": "uint256",
          "name": "amount",
          "type": "uint256"
        },
        {
          "indexed": false,
          "internalType": "address",
          "name": "token",
          "type": "address"
        }
      ],
      "name": "NewTokenAccount",
      "type": "event"
    },
    {
      "anonymous": false,
      "inputs": [
        {
          "indexed": true,
          "internalType": "bytes32",
          "name": "commitment",
          "type": "bytes32"
        },
        {
          "indexed": true,
          "internalType": "address",
          "name": "creator",
          "type": "address"
        },
        {
          "indexed": true,
          "internalType": "address",
          "name": "token",
          "type": "address"
        }
      ],
      "name": "NewWalletConnected",
      "type": "event"
    },
    {
      "anonymous": false,
      "inputs": [
        {
          "indexed": true,
          "internalType": "bytes32",
          "name": "commitment",
          "type": "bytes32"
        },
        {
          "indexed": true,
          "internalType": "bytes32",
          "name": "paymentIntent",
          "type": "bytes32"
        },
        {
          "indexed": false,
          "internalType": "address",
          "name": "payee",
          "type": "address"
        }
      ],
      "name": "PaymentIntentCancelled",
      "type": "event"
    },
    {
      "anonymous": false,
      "inputs": [
        {
          "indexed": true,
          "internalType": "bytes32",
          "name": "commitment",
          "type": "bytes32"
        },
        {
          "indexed": false,
          "internalType": "uint256",
          "name": "balance",
          "type": "uint256"
        }
      ],
      "name": "TopUpETH",
      "type": "event"
    },
    {
      "anonymous": false,
      "inputs": [
        {
          "indexed": true,
          "internalType": "bytes32",
          "name": "commitment",
          "type": "bytes32"
        },
        {
          "indexed": false,
          "internalType": "uint256",
          "name": "amount",
          "type": "uint256"
        },
        {
          "indexed": false,
          "internalType": "address",
          "name": "token",
          "type": "address"
        }
      ],
      "name": "TopUpToken",
      "type": "event"
    },
    {
      "inputs": [],
      "name": "_owner",
      "outputs": [
        {
          "internalType": "address payable",
          "name": "",
          "type": "address"
        }
      ],
      "stateMutability": "view",
      "type": "function"
    },
    {
      "inputs": [
        {
          "internalType": "address",
          "name": "",
          "type": "address"
        }
      ],
      "name": "accountCounter",
      "outputs": [
        {
          "internalType": "uint256",
          "name": "",
          "type": "uint256"
        }
      ],
      "stateMutability": "view",
      "type": "function"
    },
    {
      "inputs": [
        {
          "internalType": "bytes32",
          "name": "",
          "type": "bytes32"
        }
      ],
      "name": "accounts",
      "outputs": [
        {
          "internalType": "bool",
          "name": "active",
          "type": "bool"
        },
        {
          "internalType": "address",
          "name": "creator",
          "type": "address"
        },
        {
          "internalType": "contract IERC20",
          "name": "token",
          "type": "address"
        },
        {
          "internalType": "uint256",
          "name": "balance",
          "type": "uint256"
        }
      ],
      "stateMutability": "view",
      "type": "function"
    },
    {
      "inputs": [
        {
          "internalType": "uint256",
          "name": "amount",
          "type": "uint256"
        }
      ],
      "name": "calculateFee",
      "outputs": [
        {
          "internalType": "uint256",
          "name": "ownerFee",
          "type": "uint256"
        },
        {
          "internalType": "uint256",
          "name": "payment",
          "type": "uint256"
        }
      ],
      "stateMutability": "view",
      "type": "function"
    },
    {
      "inputs": [
        {
          "internalType": "uint256[8]",
          "name": "proof",
          "type": "uint256[8]"
        },
        {
          "internalType": "bytes32[2]",
          "name": "hashes",
          "type": "bytes32[2]"
        },
        {
          "internalType": "address",
          "name": "payee",
          "type": "address"
        },
        {
          "internalType": "uint256[4]",
          "name": "debit",
          "type": "uint256[4]"
        }
      ],
      "name": "cancelPaymentIntent",
      "outputs": [],
      "stateMutability": "nonpayable",
      "type": "function"
    },
    {
      "inputs": [
        {
          "internalType": "address",
          "name": "",
          "type": "address"
        },
        {
          "internalType": "uint256",
          "name": "",
          "type": "uint256"
        }
      ],
      "name": "commitments",
      "outputs": [
        {
          "internalType": "bytes32",
          "name": "",
          "type": "bytes32"
        }
      ],
      "stateMutability": "view",
      "type": "function"
    },
    {
      "inputs": [
        {
          "internalType": "bytes32",
          "name": "_commitment",
          "type": "bytes32"
        },
        {
          "internalType": "uint256",
          "name": "balance",
          "type": "uint256"
        },
        {
          "internalType": "string",
          "name": "encryptedNote",
          "type": "string"
        }
      ],
      "name": "depositEth",
      "outputs": [],
      "stateMutability": "payable",
      "type": "function"
    },
    {
      "inputs": [
        {
          "internalType": "bytes32",
          "name": "_commitment",
          "type": "bytes32"
        },
        {
          "internalType": "uint256",
          "name": "balance",
          "type": "uint256"
        },
        {
          "internalType": "address",
          "name": "token",
          "type": "address"
        },
        {
          "internalType": "string",
          "name": "encryptedNote",
          "type": "string"
        }
      ],
      "name": "depositToken",
      "outputs": [],
      "stateMutability": "nonpayable",
      "type": "function"
    },
    {
      "inputs": [
        {
          "internalType": "uint256[8]",
          "name": "proof",
          "type": "uint256[8]"
        },
        {
          "internalType": "bytes32[2]",
          "name": "hashes",
          "type": "bytes32[2]"
        },
        {
          "internalType": "address",
          "name": "payee",
          "type": "address"
        },
        {
          "internalType": "uint256[4]",
          "name": "debit",
          "type": "uint256[4]"
        }
      ],
      "name": "directdebit",
      "outputs": [],
      "stateMutability": "nonpayable",
      "type": "function"
    },
    {
      "inputs": [
        {
          "internalType": "bytes32",
          "name": "",
          "type": "bytes32"
        }
      ],
      "name": "encryptedNotes",
      "outputs": [
        {
          "internalType": "string",
          "name": "",
          "type": "string"
        }
      ],
      "stateMutability": "view",
      "type": "function"
    },
    {
      "inputs": [
        {
          "internalType": "bytes32",
          "name": "commitment",
          "type": "bytes32"
        }
      ],
      "name": "getAccount",
      "outputs": [
        {
          "components": [
            {
              "internalType": "bool",
              "name": "active",
              "type": "bool"
            },
            {
              "internalType": "address",
              "name": "creator",
              "type": "address"
            },
            {
              "internalType": "contract IERC20",
              "name": "token",
              "type": "address"
            },
            {
              "internalType": "uint256",
              "name": "balance",
              "type": "uint256"
            }
          ],
          "internalType": "struct AccountData",
          "name": "",
          "type": "tuple"
        }
      ],
      "stateMutability": "view",
      "type": "function"
    },
    {
      "inputs": [],
      "name": "ownerFeeDivider",
      "outputs": [
        {
          "internalType": "uint256",
          "name": "",
          "type": "uint256"
        }
      ],
      "stateMutability": "view",
      "type": "function"
    },
    {
      "inputs": [
        {
          "internalType": "bytes32",
          "name": "",
          "type": "bytes32"
        }
      ],
      "name": "paymentIntents",
      "outputs": [
        {
          "internalType": "bool",
          "name": "isNullified",
          "type": "bool"
        },
        {
          "internalType": "uint256",
          "name": "withdrawalCount",
          "type": "uint256"
        },
        {
          "internalType": "uint256",
          "name": "lastDate",
          "type": "uint256"
        }
      ],
      "stateMutability": "view",
      "type": "function"
    },
    {
      "inputs": [
        {
          "internalType": "bytes32",
          "name": "_commitment",
          "type": "bytes32"
        },
        {
          "internalType": "uint256",
          "name": "balance",
          "type": "uint256"
        }
      ],
      "name": "topUpETH",
      "outputs": [],
      "stateMutability": "payable",
      "type": "function"
    },
    {
      "inputs": [
        {
          "internalType": "bytes32",
          "name": "_commitment",
          "type": "bytes32"
        },
        {
          "internalType": "uint256",
          "name": "balance",
          "type": "uint256"
        }
      ],
      "name": "topUpTokens",
      "outputs": [],
      "stateMutability": "nonpayable",
      "type": "function"
    },
    {
      "inputs": [
        {
          "internalType": "uint256",
          "name": "newFeeDivider",
          "type": "uint256"
        }
      ],
      "name": "updateFee",
      "outputs": [],
      "stateMutability": "nonpayable",
      "type": "function"
    },
    {
      "inputs": [],
      "name": "verifier",
      "outputs": [
        {
          "internalType": "contract IVerifier",
          "name": "",
          "type": "address"
        }
      ],
      "stateMutability": "view",
      "type": "function"
    },
    {
      "inputs": [
        {
          "internalType": "bytes32",
          "name": "commitment",
          "type": "bytes32"
        }
      ],
      "name": "withdraw",
      "outputs": [],
      "stateMutability": "nonpayable",
      "type": "function"
    }
  ],
  "bytecode": "0x60a060405260646002553480156200001657600080fd5b5060405162003daa38038062003daa83398181016040528101906200003c9190620000dc565b8060016000819055508073ffffffffffffffffffffffffffffffffffffffff1660808173ffffffffffffffffffffffffffffffffffffffff1660601b8152505033600160006101000a81548173ffffffffffffffffffffffffffffffffffffffff021916908373ffffffffffffffffffffffffffffffffffffffff16021790555050506200016a565b600081519050620000d68162000150565b92915050565b600060208284031215620000ef57600080fd5b6000620000ff84828501620000c5565b91505092915050565b6000620001158262000130565b9050919050565b6000620001298262000108565b9050919050565b600073ffffffffffffffffffffffffffffffffffffffff82169050919050565b6200015b816200011c565b81146200016757600080fd5b50565b60805160601c613c1a62000190600039600081816108aa01526120bf0152613c1a6000f3fe6080604052600436106101085760003560e01c80639012c4a811610095578063b2bdfa7b11610064578063b2bdfa7b14610349578063bc529c4314610374578063cc8887f1146103b4578063d1de5011146103f1578063fb60c31a1461042e57610108565b80639012c4a81461027c57806399a5d747146102a557806399ca856c146102e3578063aaf317b41461032057610108565b80632b7ac3f3116100dc5780632b7ac3f3146101ba57806334464922146101e557806344f1d5831461020e578063746b9b661461022a5780638e19899e1461025357610108565b8062708d881461010d578063094b4b6d1461012957806314107a94146101545780632a28c26814610191575b600080fd5b61012760048036038101906101229190612ebf565b61046d565b005b34801561013557600080fd5b5061013e6107d5565b60405161014b9190613628565b60405180910390f35b34801561016057600080fd5b5061017b60048036038101906101769190612dda565b6107db565b604051610188919061352b565b60405180910390f35b34801561019d57600080fd5b506101b860048036038101906101b39190612d4a565b61087b565b005b3480156101c657600080fd5b506101cf6108a8565b6040516101dc9190613510565b60405180910390f35b3480156101f157600080fd5b5061020c60048036038101906102079190612d4a565b6108cc565b005b61022860048036038101906102239190612e03565b610b49565b005b34801561023657600080fd5b50610251600480360381019061024c9190612e3f565b610d2c565b005b34801561025f57600080fd5b5061027a60048036038101906102759190612dda565b6110e0565b005b34801561028857600080fd5b506102a3600480360381019061029e9190612f2b565b6112e6565b005b3480156102b157600080fd5b506102cc60048036038101906102c79190612f2b565b611377565b6040516102da92919061366c565b60405180910390f35b3480156102ef57600080fd5b5061030a60048036038101906103059190612d0e565b6113ab565b60405161031791906134f5565b60405180910390f35b34801561032c57600080fd5b5061034760048036038101906103429190612e03565b6113d0565b005b34801561035557600080fd5b5061035e611616565b60405161036b9190613380565b60405180910390f35b34801561038057600080fd5b5061039b60048036038101906103969190612dda565b61163c565b6040516103ab9493929190613479565b60405180910390f35b3480156103c057600080fd5b506103db60048036038101906103d69190612ce5565b6116b9565b6040516103e89190613628565b60405180910390f35b3480156103fd57600080fd5b5061041860048036038101906104139190612dda565b6116d1565b604051610425919061360d565b60405180910390f35b34801561043a57600080fd5b5061045560048036038101906104509190612dda565b6117cf565b604051610464939291906134be565b60405180910390f35b610475611806565b6006600085815260200190815260200160002060000160009054906101000a900460ff16156104d0576040517fbfd7b1b100000000000000000000000000000000000000000000000000000000815260040160405180910390fd5b600073ffffffffffffffffffffffffffffffffffffffff166006600086815260200190815260200160002060000160019054906101000a900473ffffffffffffffffffffffffffffffffffffffff1673ffffffffffffffffffffffffffffffffffffffff161461056c576040517f69783db700000000000000000000000000000000000000000000000000000000815260040160405180910390fd5b60008314156105a7576040517f751a2bb000000000000000000000000000000000000000000000000000000000815260040160405180910390fd5b3483146105e0576040517fe2f844a000000000000000000000000000000000000000000000000000000000815260040160405180910390fd5b83600360003373ffffffffffffffffffffffffffffffffffffffff1673ffffffffffffffffffffffffffffffffffffffff1681526020019081526020016000206000600460003373ffffffffffffffffffffffffffffffffffffffff1673ffffffffffffffffffffffffffffffffffffffff168152602001908152602001600020548152602001908152602001600020819055506001600460003373ffffffffffffffffffffffffffffffffffffffff1673ffffffffffffffffffffffffffffffffffffffff16815260200190815260200160002060008282546106c49190613759565b9250508190555060016006600086815260200190815260200160002060000160006101000a81548160ff021916908315150217905550336006600086815260200190815260200160002060000160016101000a81548173ffffffffffffffffffffffffffffffffffffffff021916908373ffffffffffffffffffffffffffffffffffffffff160217905550826006600086815260200190815260200160002060020181905550818160076000878152602001908152602001600020919061078c929190612af4565b50837f99c33e0f1016bf1b130f8e7e0fef072ce14459ac655aaf23194c5fa94d59b27d33856040516107bf9291906133d2565b60405180910390a26107cf611856565b50505050565b60025481565b600760205280600052604060002060009150905080546107fa9061394d565b80601f01602080910402602001604051908101604052809291908181526020018280546108269061394d565b80156108735780601f1061084857610100808354040283529160200191610873565b820191906000526020600020905b81548152906001019060200180831161085657829003601f168201915b505050505081565b610883611806565b61088f84848484611860565b61089a838383611d13565b6108a2611856565b50505050565b7f000000000000000000000000000000000000000000000000000000000000000081565b6108d8848484846120bb565b61090e576040517f09bde33900000000000000000000000000000000000000000000000000000000815260040160405180910390fd5b600660008460016002811061094c577f4e487b7100000000000000000000000000000000000000000000000000000000600052603260045260246000fd5b6020020135815260200190815260200160002060000160019054906101000a900473ffffffffffffffffffffffffffffffffffffffff1673ffffffffffffffffffffffffffffffffffffffff163373ffffffffffffffffffffffffffffffffffffffff16141580156109ea57508173ffffffffffffffffffffffffffffffffffffffff163373ffffffffffffffffffffffffffffffffffffffff1614155b15610a21576040517feff06b9d00000000000000000000000000000000000000000000000000000000815260040160405180910390fd5b60016005600085600060028110610a61577f4e487b7100000000000000000000000000000000000000000000000000000000600052603260045260246000fd5b6020020135815260200190815260200160002060000160006101000a81548160ff02191690831515021790555082600060028110610ac8577f4e487b7100000000000000000000000000000000000000000000000000000000600052603260045260246000fd5b602002013583600160028110610b07577f4e487b7100000000000000000000000000000000000000000000000000000000600052603260045260246000fd5b60200201357f712cb0bffbe0011ec1e8ed62fc42ebf28ffee192ea00fea0c42565b3239504ad84604051610b3b9190613365565b60405180910390a350505050565b610b51611806565b6006600083815260200190815260200160002060000160009054906101000a900460ff16610bab576040517f2be530bc00000000000000000000000000000000000000000000000000000000815260040160405180910390fd5b6000811415610be6576040517f751a2bb000000000000000000000000000000000000000000000000000000000815260040160405180910390fd5b348114610c1f576040517fe2f844a000000000000000000000000000000000000000000000000000000000815260040160405180910390fd5b600073ffffffffffffffffffffffffffffffffffffffff166006600084815260200190815260200160002060010160009054906101000a900473ffffffffffffffffffffffffffffffffffffffff1673ffffffffffffffffffffffffffffffffffffffff1614610cbb576040517f304bd81d00000000000000000000000000000000000000000000000000000000815260040160405180910390fd5b80600660008481526020019081526020016000206002016000828254610ce19190613759565b92505081905550817fa744916269eae88a51e1b522154b84a665f9df6ad0750c67647b487501a9d67582604051610d189190613628565b60405180910390a2610d28611856565b5050565b610d34611806565b6006600086815260200190815260200160002060000160009054906101000a900460ff1615610d8f576040517fbfd7b1b100000000000000000000000000000000000000000000000000000000815260040160405180910390fd5b6000841415610dca576040517f751a2bb000000000000000000000000000000000000000000000000000000000815260040160405180910390fd5b600073ffffffffffffffffffffffffffffffffffffffff166006600087815260200190815260200160002060000160019054906101000a900473ffffffffffffffffffffffffffffffffffffffff1673ffffffffffffffffffffffffffffffffffffffff1614610e66576040517f69783db700000000000000000000000000000000000000000000000000000000815260040160405180910390fd5b84600360003373ffffffffffffffffffffffffffffffffffffffff1673ffffffffffffffffffffffffffffffffffffffff1681526020019081526020016000206000600460003373ffffffffffffffffffffffffffffffffffffffff1673ffffffffffffffffffffffffffffffffffffffff168152602001908152602001600020548152602001908152602001600020819055506001600460003373ffffffffffffffffffffffffffffffffffffffff1673ffffffffffffffffffffffffffffffffffffffff1681526020019081526020016000206000828254610f4a9190613759565b9250508190555060016006600087815260200190815260200160002060000160006101000a81548160ff021916908315150217905550336006600087815260200190815260200160002060000160016101000a81548173ffffffffffffffffffffffffffffffffffffffff021916908373ffffffffffffffffffffffffffffffffffffffff160217905550836006600087815260200190815260200160002060020181905550826006600087815260200190815260200160002060010160006101000a81548173ffffffffffffffffffffffffffffffffffffffff021916908373ffffffffffffffffffffffffffffffffffffffff1602179055508181600760008881526020019081526020016000209190611067929190612af4565b506110953330868673ffffffffffffffffffffffffffffffffffffffff1661254a909392919063ffffffff16565b847f32e90eeb9e9eb67d074a5a9189654727af7f8b57ded124985de30bbb5051cdcd3386866040516110c9939291906133fb565b60405180910390a26110d9611856565b5050505050565b6110e8611806565b6006600082815260200190815260200160002060000160009054906101000a900460ff16611142576040517f2be530bc00000000000000000000000000000000000000000000000000000000815260040160405180910390fd5b6006600082815260200190815260200160002060000160019054906101000a900473ffffffffffffffffffffffffffffffffffffffff1673ffffffffffffffffffffffffffffffffffffffff163373ffffffffffffffffffffffffffffffffffffffff16146111dd576040517f244e5fa600000000000000000000000000000000000000000000000000000000815260040160405180910390fd5b60006006600083815260200190815260200160002060000160006101000a81548160ff021916908315150217905550600060066000838152602001908152602001600020600201549050600073ffffffffffffffffffffffffffffffffffffffff166006600084815260200190815260200160002060010160009054906101000a900473ffffffffffffffffffffffffffffffffffffffff1673ffffffffffffffffffffffffffffffffffffffff16146112a15761129c8233836125d3565b6112ad565b6112ac823383612666565b5b817f871b627720fc9f3ba5602fde62d03058c14f7aaae66723d46303769c253632f860405160405180910390a2506112e3611856565b50565b600160009054906101000a900473ffffffffffffffffffffffffffffffffffffffff1673ffffffffffffffffffffffffffffffffffffffff163373ffffffffffffffffffffffffffffffffffffffff161461136d576040517f5fc483c500000000000000000000000000000000000000000000000000000000815260040160405180910390fd5b8060028190555050565b60008061138f600254846126a290919063ffffffff16565b91506113a482846126b890919063ffffffff16565b9050915091565b6003602052816000526040600020602052806000526040600020600091509150505481565b6113d8611806565b6006600083815260200190815260200160002060000160009054906101000a900460ff16611432576040517f2be530bc00000000000000000000000000000000000000000000000000000000815260040160405180910390fd5b600081141561146d576040517f751a2bb000000000000000000000000000000000000000000000000000000000815260040160405180910390fd5b600073ffffffffffffffffffffffffffffffffffffffff166006600084815260200190815260200160002060010160009054906101000a900473ffffffffffffffffffffffffffffffffffffffff1673ffffffffffffffffffffffffffffffffffffffff16141561150a576040517f68da804f00000000000000000000000000000000000000000000000000000000815260040160405180910390fd5b806006600084815260200190815260200160002060020160008282546115309190613759565b9250508190555061159a3330836006600087815260200190815260200160002060010160009054906101000a900473ffffffffffffffffffffffffffffffffffffffff1673ffffffffffffffffffffffffffffffffffffffff1661254a909392919063ffffffff16565b817f19a953698442b09a996bcc766cbacf2fc9a9b82be784fd3c90e71f21d067c3e4826006600086815260200190815260200160002060010160009054906101000a900473ffffffffffffffffffffffffffffffffffffffff16604051611602929190613643565b60405180910390a2611612611856565b5050565b600160009054906101000a900473ffffffffffffffffffffffffffffffffffffffff1681565b60066020528060005260406000206000915090508060000160009054906101000a900460ff16908060000160019054906101000a900473ffffffffffffffffffffffffffffffffffffffff16908060010160009054906101000a900473ffffffffffffffffffffffffffffffffffffffff16908060020154905084565b60046020528060005260406000206000915090505481565b6116d9612b7a565b600660008381526020019081526020016000206040518060800160405290816000820160009054906101000a900460ff161515151581526020016000820160019054906101000a900473ffffffffffffffffffffffffffffffffffffffff1673ffffffffffffffffffffffffffffffffffffffff1673ffffffffffffffffffffffffffffffffffffffff1681526020016001820160009054906101000a900473ffffffffffffffffffffffffffffffffffffffff1673ffffffffffffffffffffffffffffffffffffffff1673ffffffffffffffffffffffffffffffffffffffff1681526020016002820154815250509050919050565b60056020528060005260406000206000915090508060000160009054906101000a900460ff16908060010154908060020154905083565b6002600054141561184c576040517f08c379a0000000000000000000000000000000000000000000000000000000008152600401611843906135ed565b60405180910390fd5b6002600081905550565b6001600081905550565b600560008460006002811061189e577f4e487b7100000000000000000000000000000000000000000000000000000000600052603260045260246000fd5b6020020135815260200190815260200160002060000160009054906101000a900460ff16156118f9576040517fdc67407a00000000000000000000000000000000000000000000000000000000815260040160405180910390fd5b80600160048110611933577f4e487b7100000000000000000000000000000000000000000000000000000000600052603260045260246000fd5b60200201356005600085600060028110611976577f4e487b7100000000000000000000000000000000000000000000000000000000600052603260045260246000fd5b602002013581526020019081526020016000206001015414156119c5576040517f5c7580fa00000000000000000000000000000000000000000000000000000000815260040160405180910390fd5b6006600084600160028110611a03577f4e487b7100000000000000000000000000000000000000000000000000000000600052603260045260246000fd5b6020020135815260200190815260200160002060000160009054906101000a900460ff16611a5d576040517f2be530bc00000000000000000000000000000000000000000000000000000000815260040160405180910390fd5b80600360048110611a97577f4e487b7100000000000000000000000000000000000000000000000000000000600052603260045260246000fd5b602002013581600060048110611ad6577f4e487b7100000000000000000000000000000000000000000000000000000000600052603260045260246000fd5b60200201351015611b13576040517f95ae795b00000000000000000000000000000000000000000000000000000000815260040160405180910390fd5b6006600084600160028110611b51577f4e487b7100000000000000000000000000000000000000000000000000000000600052603260045260246000fd5b602002013581526020019081526020016000206002015481600360048110611ba2577f4e487b7100000000000000000000000000000000000000000000000000000000600052603260045260246000fd5b60200201351115611bdf576040517fd8d0c64e00000000000000000000000000000000000000000000000000000000815260040160405180910390fd5b42611c936201518083600260048110611c21577f4e487b7100000000000000000000000000000000000000000000000000000000600052603260045260246000fd5b6020020135611c3091906137e0565b6005600087600060028110611c6e577f4e487b7100000000000000000000000000000000000000000000000000000000600052603260045260246000fd5b60200201358152602001908152602001600020600201546126ce90919063ffffffff16565b1115611ccb576040517f4747bf0000000000000000000000000000000000000000000000000000000000815260040160405180910390fd5b611cd7848484846120bb565b611d0d576040517f09bde33900000000000000000000000000000000000000000000000000000000815260040160405180910390fd5b50505050565b600080611d5d83600360048110611d53577f4e487b7100000000000000000000000000000000000000000000000000000000600052603260045260246000fd5b6020020135611377565b9150915060016005600087600060028110611da1577f4e487b7100000000000000000000000000000000000000000000000000000000600052603260045260246000fd5b602002013581526020019081526020016000206001016000828254611dc69190613759565b92505081905550426005600087600060028110611e0c577f4e487b7100000000000000000000000000000000000000000000000000000000600052603260045260246000fd5b6020020135815260200190815260200160002060020181905550600073ffffffffffffffffffffffffffffffffffffffff166006600087600160028110611e7c577f4e487b7100000000000000000000000000000000000000000000000000000000600052603260045260246000fd5b6020020135815260200190815260200160002060010160009054906101000a900473ffffffffffffffffffffffffffffffffffffffff1673ffffffffffffffffffffffffffffffffffffffff1614611f8757611f1785600160028110611f0b577f4e487b7100000000000000000000000000000000000000000000000000000000600052603260045260246000fd5b602002013585836125d3565b611f8285600160028110611f54577f4e487b7100000000000000000000000000000000000000000000000000000000600052603260045260246000fd5b6020020135600160009054906101000a900473ffffffffffffffffffffffffffffffffffffffff16846125d3565b61203c565b611fd085600160028110611fc4577f4e487b7100000000000000000000000000000000000000000000000000000000600052603260045260246000fd5b60200201358583612666565b61203b8560016002811061200d577f4e487b7100000000000000000000000000000000000000000000000000000000600052603260045260246000fd5b6020020135600160009054906101000a900473ffffffffffffffffffffffffffffffffffffffff1684612666565b5b84600160028110612076577f4e487b7100000000000000000000000000000000000000000000000000000000600052603260045260246000fd5b60200201357f3e0b49f5477938c9df20e76b46ba488cba6c52af1e25a905bd3a5fd16866483d85836040516120ac9291906133d2565b60405180910390a25050505050565b60007f000000000000000000000000000000000000000000000000000000000000000073ffffffffffffffffffffffffffffffffffffffff1663f398789b60405180604001604052808860006008811061213e577f4e487b7100000000000000000000000000000000000000000000000000000000600052603260045260246000fd5b6020020135815260200188600160088110612182577f4e487b7100000000000000000000000000000000000000000000000000000000600052603260045260246000fd5b6020020135815250604051806040016040528060405180604001604052808b6002600881106121da577f4e487b7100000000000000000000000000000000000000000000000000000000600052603260045260246000fd5b602002013581526020018b60036008811061221e577f4e487b7100000000000000000000000000000000000000000000000000000000600052603260045260246000fd5b6020020135815250815260200160405180604001604052808b600460088110612270577f4e487b7100000000000000000000000000000000000000000000000000000000600052603260045260246000fd5b602002013581526020018b6005600881106122b4577f4e487b7100000000000000000000000000000000000000000000000000000000600052603260045260246000fd5b602002013581525081525060405180604001604052808a600660088110612304577f4e487b7100000000000000000000000000000000000000000000000000000000600052603260045260246000fd5b602002013581526020018a600760088110612348577f4e487b7100000000000000000000000000000000000000000000000000000000600052603260045260246000fd5b60200201358152506040518060c001604052808a600060028110612395577f4e487b7100000000000000000000000000000000000000000000000000000000600052603260045260246000fd5b602002013560001c81526020018a6001600281106123dc577f4e487b7100000000000000000000000000000000000000000000000000000000600052603260045260246000fd5b602002013560001c81526020018973ffffffffffffffffffffffffffffffffffffffff1681526020018860006004811061243f577f4e487b7100000000000000000000000000000000000000000000000000000000600052603260045260246000fd5b6020020135815260200188600160048110612483577f4e487b7100000000000000000000000000000000000000000000000000000000600052603260045260246000fd5b60200201358152602001886002600481106124c7577f4e487b7100000000000000000000000000000000000000000000000000000000600052603260045260246000fd5b60200201358152506040518563ffffffff1660e01b81526004016124ee9493929190613432565b602060405180830381600087803b15801561250857600080fd5b505af115801561251c573d6000803e3d6000fd5b505050506040513d601f19601f820116820180604052508101906125409190612db1565b9050949350505050565b6125cd846323b872dd60e01b85858560405160240161256b9392919061339b565b604051602081830303815290604052907bffffffffffffffffffffffffffffffffffffffffffffffffffffffff19166020820180517bffffffffffffffffffffffffffffffffffffffffffffffffffffffff83818316178352505050506126e4565b50505050565b61263482826006600087815260200190815260200160002060010160009054906101000a900473ffffffffffffffffffffffffffffffffffffffff1673ffffffffffffffffffffffffffffffffffffffff166127ac9092919063ffffffff16565b8060066000858152602001908152602001600020600201600082825461265a919061383a565b92505081905550505050565b6126708282612832565b80600660008581526020019081526020016000206002016000828254612696919061383a565b92505081905550505050565b600081836126b091906137af565b905092915050565b600081836126c6919061383a565b905092915050565b600081836126dc9190613759565b905092915050565b6000612746826040518060400160405280602081526020017f5361666545524332303a206c6f772d6c6576656c2063616c6c206661696c65648152508573ffffffffffffffffffffffffffffffffffffffff166129269092919063ffffffff16565b90506000815114806127685750808060200190518101906127679190612db1565b5b6127a7576040517f08c379a000000000000000000000000000000000000000000000000000000000815260040161279e906135cd565b60405180910390fd5b505050565b61282d8363a9059cbb60e01b84846040516024016127cb9291906133d2565b604051602081830303815290604052907bffffffffffffffffffffffffffffffffffffffffffffffffffffffff19166020820180517bffffffffffffffffffffffffffffffffffffffffffffffffffffffff83818316178352505050506126e4565b505050565b80471015612875576040517f08c379a000000000000000000000000000000000000000000000000000000000815260040161286c9061356d565b60405180910390fd5b60008273ffffffffffffffffffffffffffffffffffffffff168260405161289b90613350565b60006040518083038185875af1925050503d80600081146128d8576040519150601f19603f3d011682016040523d82523d6000602084013e6128dd565b606091505b5050905080612921576040517f08c379a00000000000000000000000000000000000000000000000000000000081526004016129189061354d565b60405180910390fd5b505050565b6060612935848460008561293e565b90509392505050565b606082471015612983576040517f08c379a000000000000000000000000000000000000000000000000000000000815260040161297a9061358d565b60405180910390fd5b6000808673ffffffffffffffffffffffffffffffffffffffff1685876040516129ac9190613339565b60006040518083038185875af1925050503d80600081146129e9576040519150601f19603f3d011682016040523d82523d6000602084013e6129ee565b606091505b50915091506129ff87838387612a0b565b92505050949350505050565b60608315612a6e57600083511415612a6657612a2685612a81565b612a65576040517f08c379a0000000000000000000000000000000000000000000000000000000008152600401612a5c906135ad565b60405180910390fd5b5b829050612a79565b612a788383612aa4565b5b949350505050565b6000808273ffffffffffffffffffffffffffffffffffffffff163b119050919050565b600082511115612ab75781518083602001fd5b806040517f08c379a0000000000000000000000000000000000000000000000000000000008152600401612aeb919061352b565b60405180910390fd5b828054612b009061394d565b90600052602060002090601f016020900481019282612b225760008555612b69565b82601f10612b3b57803560ff1916838001178555612b69565b82800160010185558215612b69579182015b82811115612b68578235825591602001919060010190612b4d565b5b509050612b769190612bd0565b5090565b6040518060800160405280600015158152602001600073ffffffffffffffffffffffffffffffffffffffff168152602001600073ffffffffffffffffffffffffffffffffffffffff168152602001600081525090565b5b80821115612be9576000816000905550600101612bd1565b5090565b600081359050612bfc81613b88565b92915050565b600081905082602060020282011115612c1a57600080fd5b92915050565b600081905082602060040282011115612c3857600080fd5b92915050565b600081905082602060080282011115612c5657600080fd5b92915050565b600081519050612c6b81613b9f565b92915050565b600081359050612c8081613bb6565b92915050565b60008083601f840112612c9857600080fd5b8235905067ffffffffffffffff811115612cb157600080fd5b602083019150836001820283011115612cc957600080fd5b9250929050565b600081359050612cdf81613bcd565b92915050565b600060208284031215612cf757600080fd5b6000612d0584828501612bed565b91505092915050565b60008060408385031215612d2157600080fd5b6000612d2f85828601612bed565b9250506020612d4085828601612cd0565b9150509250929050565b6000806000806101e08587031215612d6157600080fd5b6000612d6f87828801612c3e565b945050610100612d8187828801612c02565b935050610140612d9387828801612bed565b925050610160612da587828801612c20565b91505092959194509250565b600060208284031215612dc357600080fd5b6000612dd184828501612c5c565b91505092915050565b600060208284031215612dec57600080fd5b6000612dfa84828501612c71565b91505092915050565b60008060408385031215612e1657600080fd5b6000612e2485828601612c71565b9250506020612e3585828601612cd0565b9150509250929050565b600080600080600060808688031215612e5757600080fd5b6000612e6588828901612c71565b9550506020612e7688828901612cd0565b9450506040612e8788828901612bed565b935050606086013567ffffffffffffffff811115612ea457600080fd5b612eb088828901612c86565b92509250509295509295909350565b60008060008060608587031215612ed557600080fd5b6000612ee387828801612c71565b9450506020612ef487828801612cd0565b935050604085013567ffffffffffffffff811115612f1157600080fd5b612f1d87828801612c86565b925092505092959194509250565b600060208284031215612f3d57600080fd5b6000612f4b84828501612cd0565b91505092915050565b6000612f608383613008565b60408301905092915050565b6000612f78838361331b565b60208301905092915050565b612f8d81613880565b82525050565b612f9c8161386e565b82525050565b612fab8161386e565b82525050565b612fba816136b3565b612fc48184613711565b9250612fcf82613695565b8060005b83811015613000578151612fe78782612f54565b9650612ff2836136ea565b925050600181019050612fd3565b505050505050565b613011816136be565b61301b818461371c565b92506130268261369f565b8060005b8381101561305757815161303e8782612f6c565b9650613049836136f7565b92505060018101905061302a565b505050505050565b613068816136be565b6130728184613727565b925061307d8261369f565b8060005b838110156130ae5781516130958782612f6c565b96506130a0836136f7565b925050600181019050613081565b505050505050565b6130bf816136c9565b6130c98184613732565b92506130d4826136a9565b8060005b838110156131055781516130ec8782612f6c565b96506130f783613704565b9250506001810190506130d8565b505050505050565b61311681613892565b82525050565b61312581613892565b82525050565b6131348161389e565b82525050565b6000613145826136d4565b61314f818561373d565b935061315f81856020860161391a565b80840191505092915050565b613174816138d2565b82525050565b613183816138d2565b82525050565b613192816138f6565b82525050565b60006131a3826136df565b6131ad8185613748565b93506131bd81856020860161391a565b6131c681613a0c565b840191505092915050565b60006131de603a83613748565b91506131e982613a1d565b604082019050919050565b6000613201601d83613748565b915061320c82613a6c565b602082019050919050565b6000613224602683613748565b915061322f82613a95565b604082019050919050565b600061324760008361373d565b915061325282613ae4565b600082019050919050565b600061326a601d83613748565b915061327582613ae7565b602082019050919050565b600061328d602a83613748565b915061329882613b10565b604082019050919050565b60006132b0601f83613748565b91506132bb82613b5f565b602082019050919050565b6080820160008201516132dc600085018261310d565b5060208201516132ef6020850182612f93565b506040820151613302604085018261316b565b506060820151613315606085018261331b565b50505050565b613324816138c8565b82525050565b613333816138c8565b82525050565b6000613345828461313a565b915081905092915050565b600061335b8261323a565b9150819050919050565b600060208201905061337a6000830184612fa2565b92915050565b60006020820190506133956000830184612f84565b92915050565b60006060820190506133b06000830186612fa2565b6133bd6020830185612fa2565b6133ca604083018461332a565b949350505050565b60006040820190506133e76000830185612fa2565b6133f4602083018461332a565b9392505050565b60006060820190506134106000830186612fa2565b61341d602083018561332a565b61342a6040830184612fa2565b949350505050565b60006101c082019050613448600083018761305f565b6134556040830186612fb1565b61346260c083018561305f565b6134706101008301846130b6565b95945050505050565b600060808201905061348e600083018761311c565b61349b6020830186612fa2565b6134a8604083018561317a565b6134b5606083018461332a565b95945050505050565b60006060820190506134d3600083018661311c565b6134e0602083018561332a565b6134ed604083018461332a565b949350505050565b600060208201905061350a600083018461312b565b92915050565b60006020820190506135256000830184613189565b92915050565b600060208201905081810360008301526135458184613198565b905092915050565b60006020820190508181036000830152613566816131d1565b9050919050565b60006020820190508181036000830152613586816131f4565b9050919050565b600060208201905081810360008301526135a681613217565b9050919050565b600060208201905081810360008301526135c68161325d565b9050919050565b600060208201905081810360008301526135e681613280565b9050919050565b60006020820190508181036000830152613606816132a3565b9050919050565b600060808201905061362260008301846132c6565b92915050565b600060208201905061363d600083018461332a565b92915050565b6000604082019050613658600083018561332a565b6136656020830184612fa2565b9392505050565b6000604082019050613681600083018561332a565b61368e602083018461332a565b9392505050565b6000819050919050565b6000819050919050565b6000819050919050565b600060029050919050565b600060029050919050565b600060069050919050565b600081519050919050565b600081519050919050565b6000602082019050919050565b6000602082019050919050565b6000602082019050919050565b600081905092915050565b600081905092915050565b600081905092915050565b600081905092915050565b600081905092915050565b600082825260208201905092915050565b6000613764826138c8565b915061376f836138c8565b9250827fffffffffffffffffffffffffffffffffffffffffffffffffffffffffffffffff038211156137a4576137a361397f565b5b828201905092915050565b60006137ba826138c8565b91506137c5836138c8565b9250826137d5576137d46139ae565b5b828204905092915050565b60006137eb826138c8565b91506137f6836138c8565b9250817fffffffffffffffffffffffffffffffffffffffffffffffffffffffffffffffff048311821515161561382f5761382e61397f565b5b828202905092915050565b6000613845826138c8565b9150613850836138c8565b9250828210156138635761386261397f565b5b828203905092915050565b6000613879826138a8565b9050919050565b600061388b826138a8565b9050919050565b60008115159050919050565b6000819050919050565b600073ffffffffffffffffffffffffffffffffffffffff82169050919050565b6000819050919050565b60006138dd826138e4565b9050919050565b60006138ef826138a8565b9050919050565b600061390182613908565b9050919050565b6000613913826138a8565b9050919050565b60005b8381101561393857808201518184015260208101905061391d565b83811115613947576000848401525b50505050565b6000600282049050600182168061396557607f821691505b60208210811415613979576139786139dd565b5b50919050565b7f4e487b7100000000000000000000000000000000000000000000000000000000600052601160045260246000fd5b7f4e487b7100000000000000000000000000000000000000000000000000000000600052601260045260246000fd5b7f4e487b7100000000000000000000000000000000000000000000000000000000600052602260045260246000fd5b6000601f19601f8301169050919050565b7f416464726573733a20756e61626c6520746f2073656e642076616c75652c207260008201527f6563697069656e74206d61792068617665207265766572746564000000000000602082015250565b7f416464726573733a20696e73756666696369656e742062616c616e6365000000600082015250565b7f416464726573733a20696e73756666696369656e742062616c616e636520666f60008201527f722063616c6c0000000000000000000000000000000000000000000000000000602082015250565b50565b7f416464726573733a2063616c6c20746f206e6f6e2d636f6e7472616374000000600082015250565b7f5361666545524332303a204552433230206f7065726174696f6e20646964206e60008201527f6f74207375636365656400000000000000000000000000000000000000000000602082015250565b7f5265656e7472616e637947756172643a207265656e7472616e742063616c6c00600082015250565b613b918161386e565b8114613b9c57600080fd5b50565b613ba881613892565b8114613bb357600080fd5b50565b613bbf8161389e565b8114613bca57600080fd5b50565b613bd6816138c8565b8114613be157600080fd5b5056fea2646970667358221220bc635b05879cdf479c62bd8e13ee20b88cbfde19456b80c58161e24de749b8a964736f6c63430008040033",
  "linkReferences": {},
  "deployedLinkReferences": {}
}