{
  "_format": "hh-sol-artifact-1",
  "contractName": "VirtualAccounts",
  "sourceName": "contracts/VirtualAccounts.sol",
  "abi": [
    {
      "inputs": [
        {
          "internalType": "contract IVerifier",
          "name": "_verifier",
          "type": "address"
        }
      ],
      "stateMutability": "nonpayable",
      "type": "constructor"
    },
    {
      "inputs": [],
      "name": "AccountAlreadyActive",
      "type": "error"
    },
    {
      "inputs": [],
      "name": "AccountAlreadyExists",
      "type": "error"
    },
    {
      "inputs": [],
      "name": "CommitmentMismatch",
      "type": "error"
    },
    {
      "inputs": [],
      "name": "EarlyPaymentNotAllowed",
      "type": "error"
    },
    {
      "inputs": [],
      "name": "FunctionNotSupported",
      "type": "error"
    },
    {
      "inputs": [],
      "name": "InactiveAccount",
      "type": "error"
    },
    {
      "inputs": [],
      "name": "InvalidProof",
      "type": "error"
    },
    {
      "inputs": [],
      "name": "NotEnoughAccountBalance",
      "type": "error"
    },
    {
      "inputs": [],
      "name": "NotEnoughValue",
      "type": "error"
    },
    {
      "inputs": [],
      "name": "NotEthAccount",
      "type": "error"
    },
    {
      "inputs": [],
      "name": "NotTokenAccount",
      "type": "error"
    },
    {
      "inputs": [],
      "name": "OnlyAccountOwner",
      "type": "error"
    },
    {
      "inputs": [],
      "name": "OnlyOwner",
      "type": "error"
    },
    {
      "inputs": [],
      "name": "OnlyRelatedPartiesCanCancel",
      "type": "error"
    },
    {
      "inputs": [],
      "name": "PaymentIntentExpired",
      "type": "error"
    },
    {
      "inputs": [],
      "name": "PaymentIntentNullified",
      "type": "error"
    },
    {
      "inputs": [],
      "name": "PaymentNotAuthorized",
      "type": "error"
    },
    {
      "inputs": [],
      "name": "ZeroAddressConnected",
      "type": "error"
    },
    {
      "inputs": [],
      "name": "ZeroTopup",
      "type": "error"
    },
    {
      "anonymous": false,
      "inputs": [
        {
          "indexed": true,
          "internalType": "bytes32",
          "name": "commitment",
          "type": "bytes32"
        }
      ],
      "name": "AccountClosed",
      "type": "event"
    },
    {
      "anonymous": false,
      "inputs": [
        {
          "indexed": true,
          "internalType": "bytes32",
          "name": "commitment",
          "type": "bytes32"
        },
        {
          "indexed": false,
          "internalType": "address",
          "name": "payee",
          "type": "address"
        },
        {
          "indexed": false,
          "internalType": "uint256",
          "name": "payment",
          "type": "uint256"
        }
      ],
      "name": "AccountDebited",
      "type": "event"
    },
    {
      "anonymous": false,
      "inputs": [
        {
          "indexed": true,
          "internalType": "bytes32",
          "name": "commitment",
          "type": "bytes32"
        },
        {
          "indexed": false,
          "internalType": "address",
          "name": "depositFor",
          "type": "address"
        },
        {
          "indexed": false,
          "internalType": "uint256",
          "name": "balance",
          "type": "uint256"
        }
      ],
      "name": "NewEthAccount",
      "type": "event"
    },
    {
      "anonymous": false,
      "inputs": [
        {
          "indexed": true,
          "internalType": "bytes32",
          "name": "commitment",
          "type": "bytes32"
        },
        {
          "indexed": false,
          "internalType": "address",
          "name": "depositFor",
          "type": "address"
        },
        {
          "indexed": false,
          "internalType": "uint256",
          "name": "amount",
          "type": "uint256"
        },
        {
          "indexed": false,
          "internalType": "address",
          "name": "token",
          "type": "address"
        }
      ],
      "name": "NewTokenAccount",
      "type": "event"
    },
    {
      "anonymous": false,
      "inputs": [
        {
          "indexed": true,
          "internalType": "bytes32",
          "name": "commitment",
          "type": "bytes32"
        },
        {
          "indexed": true,
          "internalType": "address",
          "name": "creator",
          "type": "address"
        },
        {
          "indexed": true,
          "internalType": "address",
          "name": "token",
          "type": "address"
        }
      ],
      "name": "NewWalletConnected",
      "type": "event"
    },
    {
      "anonymous": false,
      "inputs": [
        {
          "indexed": true,
          "internalType": "bytes32",
          "name": "commitment",
          "type": "bytes32"
        },
        {
          "indexed": true,
          "internalType": "bytes32",
          "name": "paymentIntent",
          "type": "bytes32"
        },
        {
          "indexed": false,
          "internalType": "address",
          "name": "payee",
          "type": "address"
        }
      ],
      "name": "PaymentIntentCancelled",
      "type": "event"
    },
    {
      "anonymous": false,
      "inputs": [
        {
          "indexed": true,
          "internalType": "bytes32",
          "name": "commitment",
          "type": "bytes32"
        },
        {
          "indexed": false,
          "internalType": "uint256",
          "name": "balance",
          "type": "uint256"
        }
      ],
      "name": "TopUpETH",
      "type": "event"
    },
    {
      "anonymous": false,
      "inputs": [
        {
          "indexed": true,
          "internalType": "bytes32",
          "name": "commitment",
          "type": "bytes32"
        },
        {
          "indexed": false,
          "internalType": "uint256",
          "name": "amount",
          "type": "uint256"
        },
        {
          "indexed": false,
          "internalType": "address",
          "name": "token",
          "type": "address"
        }
      ],
      "name": "TopUpToken",
      "type": "event"
    },
    {
      "inputs": [],
      "name": "_owner",
      "outputs": [
        {
          "internalType": "address payable",
          "name": "",
          "type": "address"
        }
      ],
      "stateMutability": "view",
      "type": "function"
    },
    {
      "inputs": [
        {
          "internalType": "address",
          "name": "",
          "type": "address"
        }
      ],
      "name": "accountCounter",
      "outputs": [
        {
          "internalType": "uint256",
          "name": "",
          "type": "uint256"
        }
      ],
      "stateMutability": "view",
      "type": "function"
    },
    {
      "inputs": [
        {
          "internalType": "bytes32",
          "name": "",
          "type": "bytes32"
        }
      ],
      "name": "accounts",
      "outputs": [
        {
          "internalType": "bool",
          "name": "active",
          "type": "bool"
        },
        {
          "internalType": "address",
          "name": "creator",
          "type": "address"
        },
        {
          "internalType": "contract IERC20",
          "name": "token",
          "type": "address"
        },
        {
          "internalType": "uint256",
          "name": "balance",
          "type": "uint256"
        }
      ],
      "stateMutability": "view",
      "type": "function"
    },
    {
      "inputs": [
        {
          "internalType": "uint256",
          "name": "amount",
          "type": "uint256"
        }
      ],
      "name": "calculateFee",
      "outputs": [
        {
          "internalType": "uint256",
          "name": "ownerFee",
          "type": "uint256"
        },
        {
          "internalType": "uint256",
          "name": "payment",
          "type": "uint256"
        }
      ],
      "stateMutability": "view",
      "type": "function"
    },
    {
      "inputs": [
        {
          "internalType": "uint256[8]",
          "name": "proof",
          "type": "uint256[8]"
        },
        {
          "internalType": "bytes32[2]",
          "name": "hashes",
          "type": "bytes32[2]"
        },
        {
          "internalType": "address",
          "name": "payee",
          "type": "address"
        },
        {
          "internalType": "uint256[4]",
          "name": "debit",
          "type": "uint256[4]"
        }
      ],
      "name": "cancelPaymentIntent",
      "outputs": [],
      "stateMutability": "nonpayable",
      "type": "function"
    },
    {
      "inputs": [
        {
          "internalType": "address",
          "name": "",
          "type": "address"
        },
        {
          "internalType": "uint256",
          "name": "",
          "type": "uint256"
        }
      ],
      "name": "commitments",
      "outputs": [
        {
          "internalType": "bytes32",
          "name": "",
          "type": "bytes32"
        }
      ],
      "stateMutability": "view",
      "type": "function"
    },
    {
      "inputs": [
        {
          "internalType": "bytes32",
          "name": "_commitment",
          "type": "bytes32"
        },
        {
          "internalType": "uint256",
          "name": "balance",
          "type": "uint256"
        },
        {
          "internalType": "string",
          "name": "encryptedNote",
          "type": "string"
        }
      ],
      "name": "depositEth",
      "outputs": [],
      "stateMutability": "payable",
      "type": "function"
    },
    {
      "inputs": [
        {
          "internalType": "bytes32",
          "name": "_commitment",
          "type": "bytes32"
        },
        {
          "internalType": "uint256",
          "name": "balance",
          "type": "uint256"
        },
        {
          "internalType": "address",
          "name": "token",
          "type": "address"
        },
        {
          "internalType": "string",
          "name": "encryptedNote",
          "type": "string"
        }
      ],
      "name": "depositToken",
      "outputs": [],
      "stateMutability": "nonpayable",
      "type": "function"
    },
    {
      "inputs": [
        {
          "internalType": "uint256[8]",
          "name": "proof",
          "type": "uint256[8]"
        },
        {
          "internalType": "bytes32[2]",
          "name": "hashes",
          "type": "bytes32[2]"
        },
        {
          "internalType": "address",
          "name": "payee",
          "type": "address"
        },
        {
          "internalType": "uint256[4]",
          "name": "debit",
          "type": "uint256[4]"
        }
      ],
      "name": "directdebit",
      "outputs": [],
      "stateMutability": "nonpayable",
      "type": "function"
    },
    {
      "inputs": [
        {
          "internalType": "bytes32",
          "name": "",
          "type": "bytes32"
        }
      ],
      "name": "encryptedNotes",
      "outputs": [
        {
          "internalType": "string",
          "name": "",
          "type": "string"
        }
      ],
      "stateMutability": "view",
      "type": "function"
    },
    {
      "inputs": [],
      "name": "ownerFeeDivider",
      "outputs": [
        {
          "internalType": "uint256",
          "name": "",
          "type": "uint256"
        }
      ],
      "stateMutability": "view",
      "type": "function"
    },
    {
      "inputs": [
        {
          "internalType": "bytes32",
          "name": "",
          "type": "bytes32"
        }
      ],
      "name": "paymentIntents",
      "outputs": [
        {
          "internalType": "bool",
          "name": "isNullified",
          "type": "bool"
        },
        {
          "internalType": "uint256",
          "name": "withdrawalCount",
          "type": "uint256"
        },
        {
          "internalType": "uint256",
          "name": "lastDate",
          "type": "uint256"
        }
      ],
      "stateMutability": "view",
      "type": "function"
    },
    {
      "inputs": [
        {
          "internalType": "bytes32",
          "name": "_commitment",
          "type": "bytes32"
        },
        {
          "internalType": "uint256",
          "name": "balance",
          "type": "uint256"
        }
      ],
      "name": "topUpETH",
      "outputs": [],
      "stateMutability": "payable",
      "type": "function"
    },
    {
      "inputs": [
        {
          "internalType": "bytes32",
          "name": "_commitment",
          "type": "bytes32"
        },
        {
          "internalType": "uint256",
          "name": "balance",
          "type": "uint256"
        }
      ],
      "name": "topUpTokens",
      "outputs": [],
      "stateMutability": "nonpayable",
      "type": "function"
    },
    {
      "inputs": [
        {
          "internalType": "uint256",
          "name": "newFeeDivider",
          "type": "uint256"
        }
      ],
      "name": "updateFee",
      "outputs": [],
      "stateMutability": "nonpayable",
      "type": "function"
    },
    {
      "inputs": [],
      "name": "verifier",
      "outputs": [
        {
          "internalType": "contract IVerifier",
          "name": "",
          "type": "address"
        }
      ],
      "stateMutability": "view",
      "type": "function"
    },
    {
      "inputs": [
        {
          "internalType": "bytes32",
          "name": "commitment",
          "type": "bytes32"
        }
      ],
      "name": "withdraw",
      "outputs": [],
      "stateMutability": "nonpayable",
      "type": "function"
    }
  ],
  "bytecode": "0x60a060405260646002553480156200001657600080fd5b5060405162003b7138038062003b7183398181016040528101906200003c9190620000dc565b8060016000819055508073ffffffffffffffffffffffffffffffffffffffff1660808173ffffffffffffffffffffffffffffffffffffffff1660601b8152505033600160006101000a81548173ffffffffffffffffffffffffffffffffffffffff021916908373ffffffffffffffffffffffffffffffffffffffff16021790555050506200016a565b600081519050620000d68162000150565b92915050565b600060208284031215620000ef57600080fd5b6000620000ff84828501620000c5565b91505092915050565b6000620001158262000130565b9050919050565b6000620001298262000108565b9050919050565b600073ffffffffffffffffffffffffffffffffffffffff82169050919050565b6200015b816200011c565b81146200016757600080fd5b50565b60805160601c6139e162000190600039600081816108620152611f7901526139e16000f3fe6080604052600436106100fd5760003560e01c80638e19899e11610095578063aaf317b411610064578063aaf317b414610315578063b2bdfa7b1461033e578063bc529c4314610369578063cc8887f1146103a9578063fb60c31a146103e6576100fd565b80638e19899e146102485780639012c4a81461027157806399a5d7471461029a57806399ca856c146102d8576100fd565b80632b7ac3f3116100d15780632b7ac3f3146101af57806334464922146101da57806344f1d58314610203578063746b9b661461021f576100fd565b8062708d8814610102578063094b4b6d1461011e57806314107a94146101495780632a28c26814610186575b600080fd5b61011c60048036038101906101179190612d23565b610425565b005b34801561012a57600080fd5b5061013361078d565b60405161014091906133ef565b60405180910390f35b34801561015557600080fd5b50610170600480360381019061016b9190612c3e565b610793565b60405161017d919061330d565b60405180910390f35b34801561019257600080fd5b506101ad60048036038101906101a89190612bae565b610833565b005b3480156101bb57600080fd5b506101c4610860565b6040516101d191906132f2565b60405180910390f35b3480156101e657600080fd5b5061020160048036038101906101fc9190612bae565b610884565b005b61021d60048036038101906102189190612c67565b610b01565b005b34801561022b57600080fd5b5061024660048036038101906102419190612ca3565b610ce4565b005b34801561025457600080fd5b5061026f600480360381019061026a9190612c3e565b611098565b005b34801561027d57600080fd5b5061029860048036038101906102939190612d8f565b61129e565b005b3480156102a657600080fd5b506102c160048036038101906102bc9190612d8f565b61132f565b6040516102cf929190613433565b60405180910390f35b3480156102e457600080fd5b506102ff60048036038101906102fa9190612b72565b611363565b60405161030c91906132d7565b60405180910390f35b34801561032157600080fd5b5061033c60048036038101906103379190612c67565b611388565b005b34801561034a57600080fd5b506103536115ce565b6040516103609190613162565b60405180910390f35b34801561037557600080fd5b50610390600480360381019061038b9190612c3e565b6115f4565b6040516103a0949392919061325b565b60405180910390f35b3480156103b557600080fd5b506103d060048036038101906103cb9190612b49565b611671565b6040516103dd91906133ef565b60405180910390f35b3480156103f257600080fd5b5061040d60048036038101906104089190612c3e565b611689565b60405161041c939291906132a0565b60405180910390f35b61042d6116c0565b6006600085815260200190815260200160002060000160009054906101000a900460ff1615610488576040517fbfd7b1b100000000000000000000000000000000000000000000000000000000815260040160405180910390fd5b600073ffffffffffffffffffffffffffffffffffffffff166006600086815260200190815260200160002060000160019054906101000a900473ffffffffffffffffffffffffffffffffffffffff1673ffffffffffffffffffffffffffffffffffffffff1614610524576040517f69783db700000000000000000000000000000000000000000000000000000000815260040160405180910390fd5b600083141561055f576040517f751a2bb000000000000000000000000000000000000000000000000000000000815260040160405180910390fd5b348314610598576040517fe2f844a000000000000000000000000000000000000000000000000000000000815260040160405180910390fd5b83600360003373ffffffffffffffffffffffffffffffffffffffff1673ffffffffffffffffffffffffffffffffffffffff1681526020019081526020016000206000600460003373ffffffffffffffffffffffffffffffffffffffff1673ffffffffffffffffffffffffffffffffffffffff168152602001908152602001600020548152602001908152602001600020819055506001600460003373ffffffffffffffffffffffffffffffffffffffff1673ffffffffffffffffffffffffffffffffffffffff168152602001908152602001600020600082825461067c9190613520565b9250508190555060016006600086815260200190815260200160002060000160006101000a81548160ff021916908315150217905550336006600086815260200190815260200160002060000160016101000a81548173ffffffffffffffffffffffffffffffffffffffff021916908373ffffffffffffffffffffffffffffffffffffffff16021790555082600660008681526020019081526020016000206002018190555081816007600087815260200190815260200160002091906107449291906129ae565b50837f99c33e0f1016bf1b130f8e7e0fef072ce14459ac655aaf23194c5fa94d59b27d33856040516107779291906131b4565b60405180910390a2610787611710565b50505050565b60025481565b600760205280600052604060002060009150905080546107b290613714565b80601f01602080910402602001604051908101604052809291908181526020018280546107de90613714565b801561082b5780601f106108005761010080835404028352916020019161082b565b820191906000526020600020905b81548152906001019060200180831161080e57829003601f168201915b505050505081565b61083b6116c0565b6108478484848461171a565b610852838383611bcd565b61085a611710565b50505050565b7f000000000000000000000000000000000000000000000000000000000000000081565b61089084848484611f75565b6108c6576040517f09bde33900000000000000000000000000000000000000000000000000000000815260040160405180910390fd5b6006600084600160028110610904577f4e487b7100000000000000000000000000000000000000000000000000000000600052603260045260246000fd5b6020020135815260200190815260200160002060000160019054906101000a900473ffffffffffffffffffffffffffffffffffffffff1673ffffffffffffffffffffffffffffffffffffffff163373ffffffffffffffffffffffffffffffffffffffff16141580156109a257508173ffffffffffffffffffffffffffffffffffffffff163373ffffffffffffffffffffffffffffffffffffffff1614155b156109d9576040517feff06b9d00000000000000000000000000000000000000000000000000000000815260040160405180910390fd5b60016005600085600060028110610a19577f4e487b7100000000000000000000000000000000000000000000000000000000600052603260045260246000fd5b6020020135815260200190815260200160002060000160006101000a81548160ff02191690831515021790555082600060028110610a80577f4e487b7100000000000000000000000000000000000000000000000000000000600052603260045260246000fd5b602002013583600160028110610abf577f4e487b7100000000000000000000000000000000000000000000000000000000600052603260045260246000fd5b60200201357f712cb0bffbe0011ec1e8ed62fc42ebf28ffee192ea00fea0c42565b3239504ad84604051610af39190613147565b60405180910390a350505050565b610b096116c0565b6006600083815260200190815260200160002060000160009054906101000a900460ff16610b63576040517f2be530bc00000000000000000000000000000000000000000000000000000000815260040160405180910390fd5b6000811415610b9e576040517f751a2bb000000000000000000000000000000000000000000000000000000000815260040160405180910390fd5b348114610bd7576040517fe2f844a000000000000000000000000000000000000000000000000000000000815260040160405180910390fd5b600073ffffffffffffffffffffffffffffffffffffffff166006600084815260200190815260200160002060010160009054906101000a900473ffffffffffffffffffffffffffffffffffffffff1673ffffffffffffffffffffffffffffffffffffffff1614610c73576040517f304bd81d00000000000000000000000000000000000000000000000000000000815260040160405180910390fd5b80600660008481526020019081526020016000206002016000828254610c999190613520565b92505081905550817fa744916269eae88a51e1b522154b84a665f9df6ad0750c67647b487501a9d67582604051610cd091906133ef565b60405180910390a2610ce0611710565b5050565b610cec6116c0565b6006600086815260200190815260200160002060000160009054906101000a900460ff1615610d47576040517fbfd7b1b100000000000000000000000000000000000000000000000000000000815260040160405180910390fd5b6000841415610d82576040517f751a2bb000000000000000000000000000000000000000000000000000000000815260040160405180910390fd5b600073ffffffffffffffffffffffffffffffffffffffff166006600087815260200190815260200160002060000160019054906101000a900473ffffffffffffffffffffffffffffffffffffffff1673ffffffffffffffffffffffffffffffffffffffff1614610e1e576040517f69783db700000000000000000000000000000000000000000000000000000000815260040160405180910390fd5b84600360003373ffffffffffffffffffffffffffffffffffffffff1673ffffffffffffffffffffffffffffffffffffffff1681526020019081526020016000206000600460003373ffffffffffffffffffffffffffffffffffffffff1673ffffffffffffffffffffffffffffffffffffffff168152602001908152602001600020548152602001908152602001600020819055506001600460003373ffffffffffffffffffffffffffffffffffffffff1673ffffffffffffffffffffffffffffffffffffffff1681526020019081526020016000206000828254610f029190613520565b9250508190555060016006600087815260200190815260200160002060000160006101000a81548160ff021916908315150217905550336006600087815260200190815260200160002060000160016101000a81548173ffffffffffffffffffffffffffffffffffffffff021916908373ffffffffffffffffffffffffffffffffffffffff160217905550836006600087815260200190815260200160002060020181905550826006600087815260200190815260200160002060010160006101000a81548173ffffffffffffffffffffffffffffffffffffffff021916908373ffffffffffffffffffffffffffffffffffffffff160217905550818160076000888152602001908152602001600020919061101f9291906129ae565b5061104d3330868673ffffffffffffffffffffffffffffffffffffffff16612404909392919063ffffffff16565b847f32e90eeb9e9eb67d074a5a9189654727af7f8b57ded124985de30bbb5051cdcd338686604051611081939291906131dd565b60405180910390a2611091611710565b5050505050565b6110a06116c0565b6006600082815260200190815260200160002060000160009054906101000a900460ff166110fa576040517f2be530bc00000000000000000000000000000000000000000000000000000000815260040160405180910390fd5b6006600082815260200190815260200160002060000160019054906101000a900473ffffffffffffffffffffffffffffffffffffffff1673ffffffffffffffffffffffffffffffffffffffff163373ffffffffffffffffffffffffffffffffffffffff1614611195576040517f244e5fa600000000000000000000000000000000000000000000000000000000815260040160405180910390fd5b60006006600083815260200190815260200160002060000160006101000a81548160ff021916908315150217905550600060066000838152602001908152602001600020600201549050600073ffffffffffffffffffffffffffffffffffffffff166006600084815260200190815260200160002060010160009054906101000a900473ffffffffffffffffffffffffffffffffffffffff1673ffffffffffffffffffffffffffffffffffffffff16146112595761125482338361248d565b611265565b611264823383612520565b5b817f871b627720fc9f3ba5602fde62d03058c14f7aaae66723d46303769c253632f860405160405180910390a25061129b611710565b50565b600160009054906101000a900473ffffffffffffffffffffffffffffffffffffffff1673ffffffffffffffffffffffffffffffffffffffff163373ffffffffffffffffffffffffffffffffffffffff1614611325576040517f5fc483c500000000000000000000000000000000000000000000000000000000815260040160405180910390fd5b8060028190555050565b6000806113476002548461255c90919063ffffffff16565b915061135c828461257290919063ffffffff16565b9050915091565b6003602052816000526040600020602052806000526040600020600091509150505481565b6113906116c0565b6006600083815260200190815260200160002060000160009054906101000a900460ff166113ea576040517f2be530bc00000000000000000000000000000000000000000000000000000000815260040160405180910390fd5b6000811415611425576040517f751a2bb000000000000000000000000000000000000000000000000000000000815260040160405180910390fd5b600073ffffffffffffffffffffffffffffffffffffffff166006600084815260200190815260200160002060010160009054906101000a900473ffffffffffffffffffffffffffffffffffffffff1673ffffffffffffffffffffffffffffffffffffffff1614156114c2576040517f68da804f00000000000000000000000000000000000000000000000000000000815260040160405180910390fd5b806006600084815260200190815260200160002060020160008282546114e89190613520565b925050819055506115523330836006600087815260200190815260200160002060010160009054906101000a900473ffffffffffffffffffffffffffffffffffffffff1673ffffffffffffffffffffffffffffffffffffffff16612404909392919063ffffffff16565b817f19a953698442b09a996bcc766cbacf2fc9a9b82be784fd3c90e71f21d067c3e4826006600086815260200190815260200160002060010160009054906101000a900473ffffffffffffffffffffffffffffffffffffffff166040516115ba92919061340a565b60405180910390a26115ca611710565b5050565b600160009054906101000a900473ffffffffffffffffffffffffffffffffffffffff1681565b60066020528060005260406000206000915090508060000160009054906101000a900460ff16908060000160019054906101000a900473ffffffffffffffffffffffffffffffffffffffff16908060010160009054906101000a900473ffffffffffffffffffffffffffffffffffffffff16908060020154905084565b60046020528060005260406000206000915090505481565b60056020528060005260406000206000915090508060000160009054906101000a900460ff16908060010154908060020154905083565b60026000541415611706576040517f08c379a00000000000000000000000000000000000000000000000000000000081526004016116fd906133cf565b60405180910390fd5b6002600081905550565b6001600081905550565b6005600084600060028110611758577f4e487b7100000000000000000000000000000000000000000000000000000000600052603260045260246000fd5b6020020135815260200190815260200160002060000160009054906101000a900460ff16156117b3576040517fdc67407a00000000000000000000000000000000000000000000000000000000815260040160405180910390fd5b806001600481106117ed577f4e487b7100000000000000000000000000000000000000000000000000000000600052603260045260246000fd5b60200201356005600085600060028110611830577f4e487b7100000000000000000000000000000000000000000000000000000000600052603260045260246000fd5b6020020135815260200190815260200160002060010154141561187f576040517f5c7580fa00000000000000000000000000000000000000000000000000000000815260040160405180910390fd5b60066000846001600281106118bd577f4e487b7100000000000000000000000000000000000000000000000000000000600052603260045260246000fd5b6020020135815260200190815260200160002060000160009054906101000a900460ff16611917576040517f2be530bc00000000000000000000000000000000000000000000000000000000815260040160405180910390fd5b80600360048110611951577f4e487b7100000000000000000000000000000000000000000000000000000000600052603260045260246000fd5b602002013581600060048110611990577f4e487b7100000000000000000000000000000000000000000000000000000000600052603260045260246000fd5b602002013510156119cd576040517f95ae795b00000000000000000000000000000000000000000000000000000000815260040160405180910390fd5b6006600084600160028110611a0b577f4e487b7100000000000000000000000000000000000000000000000000000000600052603260045260246000fd5b602002013581526020019081526020016000206002015481600360048110611a5c577f4e487b7100000000000000000000000000000000000000000000000000000000600052603260045260246000fd5b60200201351115611a99576040517fd8d0c64e00000000000000000000000000000000000000000000000000000000815260040160405180910390fd5b42611b4d6201518083600260048110611adb577f4e487b7100000000000000000000000000000000000000000000000000000000600052603260045260246000fd5b6020020135611aea91906135a7565b6005600087600060028110611b28577f4e487b7100000000000000000000000000000000000000000000000000000000600052603260045260246000fd5b602002013581526020019081526020016000206002015461258890919063ffffffff16565b1115611b85576040517f4747bf0000000000000000000000000000000000000000000000000000000000815260040160405180910390fd5b611b9184848484611f75565b611bc7576040517f09bde33900000000000000000000000000000000000000000000000000000000815260040160405180910390fd5b50505050565b600080611c1783600360048110611c0d577f4e487b7100000000000000000000000000000000000000000000000000000000600052603260045260246000fd5b602002013561132f565b9150915060016005600087600060028110611c5b577f4e487b7100000000000000000000000000000000000000000000000000000000600052603260045260246000fd5b602002013581526020019081526020016000206001016000828254611c809190613520565b92505081905550426005600087600060028110611cc6577f4e487b7100000000000000000000000000000000000000000000000000000000600052603260045260246000fd5b6020020135815260200190815260200160002060020181905550600073ffffffffffffffffffffffffffffffffffffffff166006600087600160028110611d36577f4e487b7100000000000000000000000000000000000000000000000000000000600052603260045260246000fd5b6020020135815260200190815260200160002060010160009054906101000a900473ffffffffffffffffffffffffffffffffffffffff1673ffffffffffffffffffffffffffffffffffffffff1614611e4157611dd185600160028110611dc5577f4e487b7100000000000000000000000000000000000000000000000000000000600052603260045260246000fd5b6020020135858361248d565b611e3c85600160028110611e0e577f4e487b7100000000000000000000000000000000000000000000000000000000600052603260045260246000fd5b6020020135600160009054906101000a900473ffffffffffffffffffffffffffffffffffffffff168461248d565b611ef6565b611e8a85600160028110611e7e577f4e487b7100000000000000000000000000000000000000000000000000000000600052603260045260246000fd5b60200201358583612520565b611ef585600160028110611ec7577f4e487b7100000000000000000000000000000000000000000000000000000000600052603260045260246000fd5b6020020135600160009054906101000a900473ffffffffffffffffffffffffffffffffffffffff1684612520565b5b84600160028110611f30577f4e487b7100000000000000000000000000000000000000000000000000000000600052603260045260246000fd5b60200201357f3e0b49f5477938c9df20e76b46ba488cba6c52af1e25a905bd3a5fd16866483d8583604051611f669291906131b4565b60405180910390a25050505050565b60007f000000000000000000000000000000000000000000000000000000000000000073ffffffffffffffffffffffffffffffffffffffff1663f398789b604051806040016040528088600060088110611ff8577f4e487b7100000000000000000000000000000000000000000000000000000000600052603260045260246000fd5b602002013581526020018860016008811061203c577f4e487b7100000000000000000000000000000000000000000000000000000000600052603260045260246000fd5b6020020135815250604051806040016040528060405180604001604052808b600260088110612094577f4e487b7100000000000000000000000000000000000000000000000000000000600052603260045260246000fd5b602002013581526020018b6003600881106120d8577f4e487b7100000000000000000000000000000000000000000000000000000000600052603260045260246000fd5b6020020135815250815260200160405180604001604052808b60046008811061212a577f4e487b7100000000000000000000000000000000000000000000000000000000600052603260045260246000fd5b602002013581526020018b60056008811061216e577f4e487b7100000000000000000000000000000000000000000000000000000000600052603260045260246000fd5b602002013581525081525060405180604001604052808a6006600881106121be577f4e487b7100000000000000000000000000000000000000000000000000000000600052603260045260246000fd5b602002013581526020018a600760088110612202577f4e487b7100000000000000000000000000000000000000000000000000000000600052603260045260246000fd5b60200201358152506040518060c001604052808a60006002811061224f577f4e487b7100000000000000000000000000000000000000000000000000000000600052603260045260246000fd5b602002013560001c81526020018a600160028110612296577f4e487b7100000000000000000000000000000000000000000000000000000000600052603260045260246000fd5b602002013560001c81526020018973ffffffffffffffffffffffffffffffffffffffff168152602001886000600481106122f9577f4e487b7100000000000000000000000000000000000000000000000000000000600052603260045260246000fd5b602002013581526020018860016004811061233d577f4e487b7100000000000000000000000000000000000000000000000000000000600052603260045260246000fd5b6020020135815260200188600260048110612381577f4e487b7100000000000000000000000000000000000000000000000000000000600052603260045260246000fd5b60200201358152506040518563ffffffff1660e01b81526004016123a89493929190613214565b602060405180830381600087803b1580156123c257600080fd5b505af11580156123d6573d6000803e3d6000fd5b505050506040513d601f19601f820116820180604052508101906123fa9190612c15565b9050949350505050565b612487846323b872dd60e01b8585856040516024016124259392919061317d565b604051602081830303815290604052907bffffffffffffffffffffffffffffffffffffffffffffffffffffffff19166020820180517bffffffffffffffffffffffffffffffffffffffffffffffffffffffff838183161783525050505061259e565b50505050565b6124ee82826006600087815260200190815260200160002060010160009054906101000a900473ffffffffffffffffffffffffffffffffffffffff1673ffffffffffffffffffffffffffffffffffffffff166126669092919063ffffffff16565b806006600085815260200190815260200160002060020160008282546125149190613601565b92505081905550505050565b61252a82826126ec565b806006600085815260200190815260200160002060020160008282546125509190613601565b92505081905550505050565b6000818361256a9190613576565b905092915050565b600081836125809190613601565b905092915050565b600081836125969190613520565b905092915050565b6000612600826040518060400160405280602081526020017f5361666545524332303a206c6f772d6c6576656c2063616c6c206661696c65648152508573ffffffffffffffffffffffffffffffffffffffff166127e09092919063ffffffff16565b90506000815114806126225750808060200190518101906126219190612c15565b5b612661576040517f08c379a0000000000000000000000000000000000000000000000000000000008152600401612658906133af565b60405180910390fd5b505050565b6126e78363a9059cbb60e01b84846040516024016126859291906131b4565b604051602081830303815290604052907bffffffffffffffffffffffffffffffffffffffffffffffffffffffff19166020820180517bffffffffffffffffffffffffffffffffffffffffffffffffffffffff838183161783525050505061259e565b505050565b8047101561272f576040517f08c379a00000000000000000000000000000000000000000000000000000000081526004016127269061334f565b60405180910390fd5b60008273ffffffffffffffffffffffffffffffffffffffff168260405161275590613132565b60006040518083038185875af1925050503d8060008114612792576040519150601f19603f3d011682016040523d82523d6000602084013e612797565b606091505b50509050806127db576040517f08c379a00000000000000000000000000000000000000000000000000000000081526004016127d29061332f565b60405180910390fd5b505050565b60606127ef84846000856127f8565b90509392505050565b60608247101561283d576040517f08c379a00000000000000000000000000000000000000000000000000000000081526004016128349061336f565b60405180910390fd5b6000808673ffffffffffffffffffffffffffffffffffffffff168587604051612866919061311b565b60006040518083038185875af1925050503d80600081146128a3576040519150601f19603f3d011682016040523d82523d6000602084013e6128a8565b606091505b50915091506128b9878383876128c5565b92505050949350505050565b6060831561292857600083511415612920576128e08561293b565b61291f576040517f08c379a00000000000000000000000000000000000000000000000000000000081526004016129169061338f565b60405180910390fd5b5b829050612933565b612932838361295e565b5b949350505050565b6000808273ffffffffffffffffffffffffffffffffffffffff163b119050919050565b6000825111156129715781518083602001fd5b806040517f08c379a00000000000000000000000000000000000000000000000000000000081526004016129a5919061330d565b60405180910390fd5b8280546129ba90613714565b90600052602060002090601f0160209004810192826129dc5760008555612a23565b82601f106129f557803560ff1916838001178555612a23565b82800160010185558215612a23579182015b82811115612a22578235825591602001919060010190612a07565b5b509050612a309190612a34565b5090565b5b80821115612a4d576000816000905550600101612a35565b5090565b600081359050612a608161394f565b92915050565b600081905082602060020282011115612a7e57600080fd5b92915050565b600081905082602060040282011115612a9c57600080fd5b92915050565b600081905082602060080282011115612aba57600080fd5b92915050565b600081519050612acf81613966565b92915050565b600081359050612ae48161397d565b92915050565b60008083601f840112612afc57600080fd5b8235905067ffffffffffffffff811115612b1557600080fd5b602083019150836001820283011115612b2d57600080fd5b9250929050565b600081359050612b4381613994565b92915050565b600060208284031215612b5b57600080fd5b6000612b6984828501612a51565b91505092915050565b60008060408385031215612b8557600080fd5b6000612b9385828601612a51565b9250506020612ba485828601612b34565b9150509250929050565b6000806000806101e08587031215612bc557600080fd5b6000612bd387828801612aa2565b945050610100612be587828801612a66565b935050610140612bf787828801612a51565b925050610160612c0987828801612a84565b91505092959194509250565b600060208284031215612c2757600080fd5b6000612c3584828501612ac0565b91505092915050565b600060208284031215612c5057600080fd5b6000612c5e84828501612ad5565b91505092915050565b60008060408385031215612c7a57600080fd5b6000612c8885828601612ad5565b9250506020612c9985828601612b34565b9150509250929050565b600080600080600060808688031215612cbb57600080fd5b6000612cc988828901612ad5565b9550506020612cda88828901612b34565b9450506040612ceb88828901612a51565b935050606086013567ffffffffffffffff811115612d0857600080fd5b612d1488828901612aea565b92509250509295509295909350565b60008060008060608587031215612d3957600080fd5b6000612d4787828801612ad5565b9450506020612d5887828801612b34565b935050604085013567ffffffffffffffff811115612d7557600080fd5b612d8187828801612aea565b925092505092959194509250565b600060208284031215612da157600080fd5b6000612daf84828501612b34565b91505092915050565b6000612dc48383612e5d565b60408301905092915050565b6000612ddc83836130fd565b60208301905092915050565b612df181613647565b82525050565b612e0081613635565b82525050565b612e0f8161347a565b612e1981846134d8565b9250612e248261345c565b8060005b83811015612e55578151612e3c8782612db8565b9650612e47836134b1565b925050600181019050612e28565b505050505050565b612e6681613485565b612e7081846134e3565b9250612e7b82613466565b8060005b83811015612eac578151612e938782612dd0565b9650612e9e836134be565b925050600181019050612e7f565b505050505050565b612ebd81613485565b612ec781846134ee565b9250612ed282613466565b8060005b83811015612f03578151612eea8782612dd0565b9650612ef5836134be565b925050600181019050612ed6565b505050505050565b612f1481613490565b612f1e81846134f9565b9250612f2982613470565b8060005b83811015612f5a578151612f418782612dd0565b9650612f4c836134cb565b925050600181019050612f2d565b505050505050565b612f6b81613659565b82525050565b612f7a81613665565b82525050565b6000612f8b8261349b565b612f958185613504565b9350612fa58185602086016136e1565b80840191505092915050565b612fba81613699565b82525050565b612fc9816136bd565b82525050565b6000612fda826134a6565b612fe4818561350f565b9350612ff48185602086016136e1565b612ffd816137d3565b840191505092915050565b6000613015603a8361350f565b9150613020826137e4565b604082019050919050565b6000613038601d8361350f565b915061304382613833565b602082019050919050565b600061305b60268361350f565b91506130668261385c565b604082019050919050565b600061307e600083613504565b9150613089826138ab565b600082019050919050565b60006130a1601d8361350f565b91506130ac826138ae565b602082019050919050565b60006130c4602a8361350f565b91506130cf826138d7565b604082019050919050565b60006130e7601f8361350f565b91506130f282613926565b602082019050919050565b6131068161368f565b82525050565b6131158161368f565b82525050565b60006131278284612f80565b915081905092915050565b600061313d82613071565b9150819050919050565b600060208201905061315c6000830184612df7565b92915050565b60006020820190506131776000830184612de8565b92915050565b60006060820190506131926000830186612df7565b61319f6020830185612df7565b6131ac604083018461310c565b949350505050565b60006040820190506131c96000830185612df7565b6131d6602083018461310c565b9392505050565b60006060820190506131f26000830186612df7565b6131ff602083018561310c565b61320c6040830184612df7565b949350505050565b60006101c08201905061322a6000830187612eb4565b6132376040830186612e06565b61324460c0830185612eb4565b613252610100830184612f0b565b95945050505050565b60006080820190506132706000830187612f62565b61327d6020830186612df7565b61328a6040830185612fb1565b613297606083018461310c565b95945050505050565b60006060820190506132b56000830186612f62565b6132c2602083018561310c565b6132cf604083018461310c565b949350505050565b60006020820190506132ec6000830184612f71565b92915050565b60006020820190506133076000830184612fc0565b92915050565b600060208201905081810360008301526133278184612fcf565b905092915050565b6000602082019050818103600083015261334881613008565b9050919050565b600060208201905081810360008301526133688161302b565b9050919050565b600060208201905081810360008301526133888161304e565b9050919050565b600060208201905081810360008301526133a881613094565b9050919050565b600060208201905081810360008301526133c8816130b7565b9050919050565b600060208201905081810360008301526133e8816130da565b9050919050565b6000602082019050613404600083018461310c565b92915050565b600060408201905061341f600083018561310c565b61342c6020830184612df7565b9392505050565b6000604082019050613448600083018561310c565b613455602083018461310c565b9392505050565b6000819050919050565b6000819050919050565b6000819050919050565b600060029050919050565b600060029050919050565b600060069050919050565b600081519050919050565b600081519050919050565b6000602082019050919050565b6000602082019050919050565b6000602082019050919050565b600081905092915050565b600081905092915050565b600081905092915050565b600081905092915050565b600081905092915050565b600082825260208201905092915050565b600061352b8261368f565b91506135368361368f565b9250827fffffffffffffffffffffffffffffffffffffffffffffffffffffffffffffffff0382111561356b5761356a613746565b5b828201905092915050565b60006135818261368f565b915061358c8361368f565b92508261359c5761359b613775565b5b828204905092915050565b60006135b28261368f565b91506135bd8361368f565b9250817fffffffffffffffffffffffffffffffffffffffffffffffffffffffffffffffff04831182151516156135f6576135f5613746565b5b828202905092915050565b600061360c8261368f565b91506136178361368f565b92508282101561362a57613629613746565b5b828203905092915050565b60006136408261366f565b9050919050565b60006136528261366f565b9050919050565b60008115159050919050565b6000819050919050565b600073ffffffffffffffffffffffffffffffffffffffff82169050919050565b6000819050919050565b60006136a4826136ab565b9050919050565b60006136b68261366f565b9050919050565b60006136c8826136cf565b9050919050565b60006136da8261366f565b9050919050565b60005b838110156136ff5780820151818401526020810190506136e4565b8381111561370e576000848401525b50505050565b6000600282049050600182168061372c57607f821691505b602082108114156137405761373f6137a4565b5b50919050565b7f4e487b7100000000000000000000000000000000000000000000000000000000600052601160045260246000fd5b7f4e487b7100000000000000000000000000000000000000000000000000000000600052601260045260246000fd5b7f4e487b7100000000000000000000000000000000000000000000000000000000600052602260045260246000fd5b6000601f19601f8301169050919050565b7f416464726573733a20756e61626c6520746f2073656e642076616c75652c207260008201527f6563697069656e74206d61792068617665207265766572746564000000000000602082015250565b7f416464726573733a20696e73756666696369656e742062616c616e6365000000600082015250565b7f416464726573733a20696e73756666696369656e742062616c616e636520666f60008201527f722063616c6c0000000000000000000000000000000000000000000000000000602082015250565b50565b7f416464726573733a2063616c6c20746f206e6f6e2d636f6e7472616374000000600082015250565b7f5361666545524332303a204552433230206f7065726174696f6e20646964206e60008201527f6f74207375636365656400000000000000000000000000000000000000000000602082015250565b7f5265656e7472616e637947756172643a207265656e7472616e742063616c6c00600082015250565b61395881613635565b811461396357600080fd5b50565b61396f81613659565b811461397a57600080fd5b50565b61398681613665565b811461399157600080fd5b50565b61399d8161368f565b81146139a857600080fd5b5056fea264697066735822122019ee8f1117d1b8dc4fa1f72d81a6134684117d60e20e0e0aee0bb4d9ca91e23064736f6c63430008040033",
  "linkReferences": {},
  "deployedLinkReferences": {}
}