{
  "_format": "hh-sol-artifact-1",
  "contractName": "VirtualAccounts",
  "sourceName": "contracts/VirtualAccounts.sol",
  "abi": [
    {
      "inputs": [
        {
          "internalType": "contract IVerifier",
          "name": "_verifier",
          "type": "address"
        }
      ],
      "stateMutability": "nonpayable",
      "type": "constructor"
    },
    {
      "inputs": [],
      "name": "AccountAlreadyActive",
      "type": "error"
    },
    {
      "inputs": [],
      "name": "AccountAlreadyExists",
      "type": "error"
    },
    {
      "inputs": [],
      "name": "CommitmentMismatch",
      "type": "error"
    },
    {
      "inputs": [],
      "name": "EarlyPaymentNotAllowed",
      "type": "error"
    },
    {
      "inputs": [],
      "name": "FunctionNotSupported",
      "type": "error"
    },
    {
      "inputs": [],
      "name": "InactiveAccount",
      "type": "error"
    },
    {
      "inputs": [],
      "name": "InvalidProof",
      "type": "error"
    },
    {
      "inputs": [],
      "name": "NotEnoughAccountBalance",
      "type": "error"
    },
    {
      "inputs": [],
      "name": "NotEnoughValue",
      "type": "error"
    },
    {
      "inputs": [],
      "name": "NotEthAccount",
      "type": "error"
    },
    {
      "inputs": [],
      "name": "NotTokenAccount",
      "type": "error"
    },
    {
      "inputs": [],
      "name": "OnlyAccountOwner",
      "type": "error"
    },
    {
      "inputs": [],
      "name": "OnlyOwner",
      "type": "error"
    },
    {
      "inputs": [],
      "name": "OnlyRelatedPartiesCanCancel",
      "type": "error"
    },
    {
      "inputs": [],
      "name": "PaymentIntentExpired",
      "type": "error"
    },
    {
      "inputs": [],
      "name": "PaymentIntentNullified",
      "type": "error"
    },
    {
      "inputs": [],
      "name": "PaymentNotAuthorized",
      "type": "error"
    },
    {
      "inputs": [],
      "name": "WalletAlreadyConnected",
      "type": "error"
    },
    {
      "inputs": [],
      "name": "ZeroAddressConnected",
      "type": "error"
    },
    {
      "inputs": [],
      "name": "ZeroTopup",
      "type": "error"
    },
    {
      "anonymous": false,
      "inputs": [
        {
          "indexed": true,
          "internalType": "bytes32",
          "name": "commitment",
          "type": "bytes32"
        }
      ],
      "name": "AccountClosed",
      "type": "event"
    },
    {
      "anonymous": false,
      "inputs": [
        {
          "indexed": true,
          "internalType": "bytes32",
          "name": "commitment",
          "type": "bytes32"
        },
        {
          "indexed": false,
          "internalType": "address",
          "name": "payee",
          "type": "address"
        },
        {
          "indexed": false,
          "internalType": "uint256",
          "name": "payment",
          "type": "uint256"
        }
      ],
      "name": "AccountDebited",
      "type": "event"
    },
    {
      "anonymous": false,
      "inputs": [
        {
          "indexed": true,
          "internalType": "bytes32",
          "name": "commitment",
          "type": "bytes32"
        },
        {
          "indexed": false,
          "internalType": "address",
          "name": "depositFor",
          "type": "address"
        },
        {
          "indexed": false,
          "internalType": "uint256",
          "name": "balance",
          "type": "uint256"
        }
      ],
      "name": "NewEthAccount",
      "type": "event"
    },
    {
      "anonymous": false,
      "inputs": [
        {
          "indexed": true,
          "internalType": "bytes32",
          "name": "commitment",
          "type": "bytes32"
        },
        {
          "indexed": false,
          "internalType": "address",
          "name": "depositFor",
          "type": "address"
        },
        {
          "indexed": false,
          "internalType": "uint256",
          "name": "amount",
          "type": "uint256"
        },
        {
          "indexed": false,
          "internalType": "address",
          "name": "token",
          "type": "address"
        }
      ],
      "name": "NewTokenAccount",
      "type": "event"
    },
    {
      "anonymous": false,
      "inputs": [
        {
          "indexed": true,
          "internalType": "bytes32",
          "name": "commitment",
          "type": "bytes32"
        },
        {
          "indexed": true,
          "internalType": "address",
          "name": "creator",
          "type": "address"
        },
        {
          "indexed": true,
          "internalType": "address",
          "name": "token",
          "type": "address"
        }
      ],
      "name": "NewWalletConnected",
      "type": "event"
    },
    {
      "anonymous": false,
      "inputs": [
        {
          "indexed": true,
          "internalType": "address",
          "name": "previousOwner",
          "type": "address"
        },
        {
          "indexed": true,
          "internalType": "address",
          "name": "newOwner",
          "type": "address"
        }
      ],
      "name": "OwnershipTransferred",
      "type": "event"
    },
    {
      "anonymous": false,
      "inputs": [
        {
          "indexed": false,
          "internalType": "address",
          "name": "account",
          "type": "address"
        }
      ],
      "name": "Paused",
      "type": "event"
    },
    {
      "anonymous": false,
      "inputs": [
        {
          "indexed": true,
          "internalType": "bytes32",
          "name": "commitment",
          "type": "bytes32"
        },
        {
          "indexed": true,
          "internalType": "bytes32",
          "name": "paymentIntent",
          "type": "bytes32"
        },
        {
          "indexed": false,
          "internalType": "address",
          "name": "payee",
          "type": "address"
        }
      ],
      "name": "PaymentIntentCancelled",
      "type": "event"
    },
    {
      "anonymous": false,
      "inputs": [
        {
          "indexed": true,
          "internalType": "bytes32",
          "name": "commitment",
          "type": "bytes32"
        },
        {
          "indexed": false,
          "internalType": "uint256",
          "name": "balance",
          "type": "uint256"
        }
      ],
      "name": "TopUpETH",
      "type": "event"
    },
    {
      "anonymous": false,
      "inputs": [
        {
          "indexed": true,
          "internalType": "bytes32",
          "name": "commitment",
          "type": "bytes32"
        },
        {
          "indexed": false,
          "internalType": "uint256",
          "name": "amount",
          "type": "uint256"
        },
        {
          "indexed": false,
          "internalType": "address",
          "name": "token",
          "type": "address"
        }
      ],
      "name": "TopUpToken",
      "type": "event"
    },
    {
      "anonymous": false,
      "inputs": [
        {
          "indexed": false,
          "internalType": "address",
          "name": "account",
          "type": "address"
        }
      ],
      "name": "Unpaused",
      "type": "event"
    },
    {
      "inputs": [
        {
          "internalType": "address",
          "name": "",
          "type": "address"
        }
      ],
      "name": "accountCounter",
      "outputs": [
        {
          "internalType": "uint256",
          "name": "",
          "type": "uint256"
        }
      ],
      "stateMutability": "view",
      "type": "function"
    },
    {
      "inputs": [
        {
          "internalType": "bytes32",
          "name": "",
          "type": "bytes32"
        }
      ],
      "name": "accounts",
      "outputs": [
        {
          "internalType": "bool",
          "name": "active",
          "type": "bool"
        },
        {
          "internalType": "address",
          "name": "creator",
          "type": "address"
        },
        {
          "internalType": "contract IERC20",
          "name": "token",
          "type": "address"
        },
        {
          "internalType": "uint256",
          "name": "balance",
          "type": "uint256"
        }
      ],
      "stateMutability": "view",
      "type": "function"
    },
    {
      "inputs": [
        {
          "internalType": "uint256",
          "name": "amount",
          "type": "uint256"
        }
      ],
      "name": "calculateFee",
      "outputs": [
        {
          "internalType": "uint256",
          "name": "ownerFee",
          "type": "uint256"
        },
        {
          "internalType": "uint256",
          "name": "payment",
          "type": "uint256"
        }
      ],
      "stateMutability": "view",
      "type": "function"
    },
    {
      "inputs": [
        {
          "internalType": "uint256[8]",
          "name": "proof",
          "type": "uint256[8]"
        },
        {
          "internalType": "bytes32[2]",
          "name": "hashes",
          "type": "bytes32[2]"
        },
        {
          "internalType": "address",
          "name": "payee",
          "type": "address"
        },
        {
          "internalType": "uint256[4]",
          "name": "debit",
          "type": "uint256[4]"
        }
      ],
      "name": "cancelPaymentIntent",
      "outputs": [],
      "stateMutability": "nonpayable",
      "type": "function"
    },
    {
      "inputs": [
        {
          "internalType": "address",
          "name": "",
          "type": "address"
        },
        {
          "internalType": "uint256",
          "name": "",
          "type": "uint256"
        }
      ],
      "name": "commitments",
      "outputs": [
        {
          "internalType": "bytes32",
          "name": "",
          "type": "bytes32"
        }
      ],
      "stateMutability": "view",
      "type": "function"
    },
    {
      "inputs": [
        {
          "internalType": "bytes32",
          "name": "_commitment",
          "type": "bytes32"
        },
        {
          "internalType": "uint256",
          "name": "balance",
          "type": "uint256"
        },
        {
          "internalType": "string",
          "name": "encryptedNote",
          "type": "string"
        }
      ],
      "name": "depositEth",
      "outputs": [],
      "stateMutability": "payable",
      "type": "function"
    },
    {
      "inputs": [
        {
          "internalType": "bytes32",
          "name": "_commitment",
          "type": "bytes32"
        },
        {
          "internalType": "uint256",
          "name": "balance",
          "type": "uint256"
        },
        {
          "internalType": "address",
          "name": "token",
          "type": "address"
        },
        {
          "internalType": "string",
          "name": "encryptedNote",
          "type": "string"
        }
      ],
      "name": "depositToken",
      "outputs": [],
      "stateMutability": "nonpayable",
      "type": "function"
    },
    {
      "inputs": [
        {
          "internalType": "uint256[8]",
          "name": "proof",
          "type": "uint256[8]"
        },
        {
          "internalType": "bytes32[2]",
          "name": "hashes",
          "type": "bytes32[2]"
        },
        {
          "internalType": "address",
          "name": "payee",
          "type": "address"
        },
        {
          "internalType": "uint256[4]",
          "name": "debit",
          "type": "uint256[4]"
        }
      ],
      "name": "directdebit",
      "outputs": [],
      "stateMutability": "nonpayable",
      "type": "function"
    },
    {
      "inputs": [
        {
          "internalType": "bytes32",
          "name": "",
          "type": "bytes32"
        }
      ],
      "name": "encryptedNotes",
      "outputs": [
        {
          "internalType": "string",
          "name": "",
          "type": "string"
        }
      ],
      "stateMutability": "view",
      "type": "function"
    },
    {
      "inputs": [
        {
          "internalType": "bytes32",
          "name": "commitment",
          "type": "bytes32"
        }
      ],
      "name": "getAccount",
      "outputs": [
        {
          "components": [
            {
              "internalType": "bool",
              "name": "active",
              "type": "bool"
            },
            {
              "internalType": "address",
              "name": "creator",
              "type": "address"
            },
            {
              "internalType": "contract IERC20",
              "name": "token",
              "type": "address"
            },
            {
              "internalType": "uint256",
              "name": "balance",
              "type": "uint256"
            }
          ],
          "internalType": "struct AccountData",
          "name": "",
          "type": "tuple"
        }
      ],
      "stateMutability": "view",
      "type": "function"
    },
    {
      "inputs": [],
      "name": "owner",
      "outputs": [
        {
          "internalType": "address",
          "name": "",
          "type": "address"
        }
      ],
      "stateMutability": "view",
      "type": "function"
    },
    {
      "inputs": [],
      "name": "ownerFeeDivider",
      "outputs": [
        {
          "internalType": "uint256",
          "name": "",
          "type": "uint256"
        }
      ],
      "stateMutability": "view",
      "type": "function"
    },
    {
      "inputs": [],
      "name": "paused",
      "outputs": [
        {
          "internalType": "bool",
          "name": "",
          "type": "bool"
        }
      ],
      "stateMutability": "view",
      "type": "function"
    },
    {
      "inputs": [
        {
          "internalType": "bytes32",
          "name": "",
          "type": "bytes32"
        }
      ],
      "name": "paymentIntents",
      "outputs": [
        {
          "internalType": "bool",
          "name": "isNullified",
          "type": "bool"
        },
        {
          "internalType": "uint256",
          "name": "withdrawalCount",
          "type": "uint256"
        },
        {
          "internalType": "uint256",
          "name": "lastDate",
          "type": "uint256"
        }
      ],
      "stateMutability": "view",
      "type": "function"
    },
    {
      "inputs": [],
      "name": "renounceOwnership",
      "outputs": [],
      "stateMutability": "nonpayable",
      "type": "function"
    },
    {
      "inputs": [],
      "name": "togglePause",
      "outputs": [],
      "stateMutability": "nonpayable",
      "type": "function"
    },
    {
      "inputs": [
        {
          "internalType": "bytes32",
          "name": "_commitment",
          "type": "bytes32"
        },
        {
          "internalType": "uint256",
          "name": "balance",
          "type": "uint256"
        }
      ],
      "name": "topUpETH",
      "outputs": [],
      "stateMutability": "payable",
      "type": "function"
    },
    {
      "inputs": [
        {
          "internalType": "bytes32",
          "name": "_commitment",
          "type": "bytes32"
        },
        {
          "internalType": "uint256",
          "name": "balance",
          "type": "uint256"
        }
      ],
      "name": "topUpTokens",
      "outputs": [],
      "stateMutability": "nonpayable",
      "type": "function"
    },
    {
      "inputs": [
        {
          "internalType": "address",
          "name": "newOwner",
          "type": "address"
        }
      ],
      "name": "transferOwnership",
      "outputs": [],
      "stateMutability": "nonpayable",
      "type": "function"
    },
    {
      "inputs": [
        {
          "internalType": "uint256",
          "name": "newFeeDivider",
          "type": "uint256"
        }
      ],
      "name": "updateFee",
      "outputs": [],
      "stateMutability": "nonpayable",
      "type": "function"
    },
    {
      "inputs": [],
      "name": "verifier",
      "outputs": [
        {
          "internalType": "contract IVerifier",
          "name": "",
          "type": "address"
        }
      ],
      "stateMutability": "view",
      "type": "function"
    },
    {
      "inputs": [
        {
          "internalType": "bytes32",
          "name": "commitment",
          "type": "bytes32"
        }
      ],
      "name": "withdraw",
      "outputs": [],
      "stateMutability": "nonpayable",
      "type": "function"
    }
  ],
  "bytecode": "0x60a060405260646002553480156200001657600080fd5b50604051620021d2380380620021d28339810160408190526200003991620000c5565b60016000819055805460ff191690558062000054336200006b565b60601b6001600160601b03191660805250620000f5565b600180546001600160a01b03838116610100818102610100600160a81b031985161790945560405193909204169182907f8be0079c531659141344cd1fd0a4f28419497f9722a3daafe3b4186f6b6457e090600090a35050565b600060208284031215620000d7578081fd5b81516001600160a01b0381168114620000ee578182fd5b9392505050565b60805160601c6120b76200011b60003960008181610216015261136201526120b76000f3fe6080604052600436106101745760003560e01c80638e19899e116100cb578063bc529c431161007f578063d1de501111610059578063d1de501114610490578063f2fde38b14610565578063fb60c31a1461058557600080fd5b8063bc529c43146103cb578063c4ae31681461044e578063cc8887f11461046357600080fd5b806399a5d747116100b057806399a5d7471461033e57806399ca856c14610373578063aaf317b4146103ab57600080fd5b80638e19899e146102fe5780639012c4a81461031e57600080fd5b8063344649221161012d578063715018a611610107578063715018a6146102a6578063746b9b66146102bb5780638da5cb5b146102db57600080fd5b8063344649221461025057806344f1d583146102705780635c975abb1461028357600080fd5b806314107a941161015e57806314107a94146101b75780632a28c268146101e45780632b7ac3f31461020457600080fd5b8062708d8814610179578063094b4b6d1461018e575b600080fd5b61018c610187366004611e4f565b6105e2565b005b34801561019a57600080fd5b506101a460025481565b6040519081526020015b60405180910390f35b3480156101c357600080fd5b506101d76101d2366004611db0565b610772565b6040516101ae9190611f63565b3480156101f057600080fd5b5061018c6101ff366004611d27565b61080c565b34801561021057600080fd5b506102387f000000000000000000000000000000000000000000000000000000000000000081565b6040516001600160a01b0390911681526020016101ae565b34801561025c57600080fd5b5061018c61026b366004611d27565b61083d565b61018c61027e366004611dc8565b61093b565b34801561028f57600080fd5b5060015460ff1660405190151581526020016101ae565b3480156102b257600080fd5b5061018c610a6c565b3480156102c757600080fd5b5061018c6102d6366004611de9565b610a80565b3480156102e757600080fd5b5060015461010090046001600160a01b0316610238565b34801561030a57600080fd5b5061018c610319366004611db0565b610c4a565b34801561032a57600080fd5b5061018c610339366004611db0565b610d59565b34801561034a57600080fd5b5061035e610359366004611db0565b610d66565b604080519283526020830191909152016101ae565b34801561037f57600080fd5b506101a461038e366004611cfe565b600360209081526000928352604080842090915290825290205481565b3480156103b757600080fd5b5061018c6103c6366004611dc8565b610d91565b3480156103d757600080fd5b5061041c6103e6366004611db0565b60066020526000908152604090208054600182015460029092015460ff8216926001600160a01b03610100909304831692169084565b6040516101ae949392919093151584526001600160a01b03928316602085015291166040830152606082015260800190565b34801561045a57600080fd5b5061018c610edb565b34801561046f57600080fd5b506101a461047e366004611ce4565b60046020526000908152604090205481565b34801561049c57600080fd5b506105226104ab366004611db0565b60408051608080820183526000808352602080840182905283850182905260609384018290529481526006855283902083519182018452805460ff81161515835261010090046001600160a01b03908116958301959095526001810154909416928101929092526002909201549181019190915290565b604080518251151581526020808401516001600160a01b0390811691830191909152838301511691810191909152606091820151918101919091526080016101ae565b34801561057157600080fd5b5061018c610580366004611ce4565b610efe565b34801561059157600080fd5b506105c56105a0366004611db0565b60056020526000908152604090208054600182015460029092015460ff909116919083565b6040805193151584526020840192909252908201526060016101ae565b6105ea610f90565b60008481526006602052604090205460ff161561061a5760405163bfd7b1b160e01b815260040160405180910390fd5b60008481526006602052604090205461010090046001600160a01b031615610655576040516369783db760e01b815260040160405180910390fd5b8261067357604051630751a2bb60e41b815260040160405180910390fd5b34831461069357604051630717c22560e51b815260040160405180910390fd5b3360008181526003602090815260408083206004808452828520805486529184529184208990559383529052815460019291906106d1908490611f96565b909155505060008481526006602090815260408083208054336101000274ffffffffffffffffffffffffffffffffffffffffff1990911617600117815560020186905560079091529020610726908383611be8565b50604080513381526020810185905285917f99c33e0f1016bf1b130f8e7e0fef072ce14459ac655aaf23194c5fa94d59b27d910160405180910390a261076c6001600055565b50505050565b6007602052600090815260409020805461078b90612030565b80601f01602080910402602001604051908101604052809291908181526020018280546107b790612030565b80156108045780601f106107d957610100808354040283529160200191610804565b820191906000526020600020905b8154815290600101906020018083116107e757829003601f168201915b505050505081565b610814610f90565b61081c610fea565b6108288484848461103d565b610833838383611234565b61076c6001600055565b6108498484848461135e565b610866576040516309bde33960e01b815260040160405180910390fd5b60208381013560009081526006909152604090205461010090046001600160a01b031633148015906108a15750336001600160a01b03831614155b156108d8576040517feff06b9d00000000000000000000000000000000000000000000000000000000815260040160405180910390fd5b8235600081815260056020908152604091829020805460ff1916600117905581516001600160a01b0386168152915181870135927f712cb0bffbe0011ec1e8ed62fc42ebf28ffee192ea00fea0c42565b3239504ad92908290030190a350505050565b610943610f90565b60008281526006602052604090205460ff1661097257604051630af94c2f60e21b815260040160405180910390fd5b8061099057604051630751a2bb60e41b815260040160405180910390fd5b3481146109b057604051630717c22560e51b815260040160405180910390fd5b6000828152600660205260409020600101546001600160a01b031615610a02576040517f304bd81d00000000000000000000000000000000000000000000000000000000815260040160405180910390fd5b60008281526006602052604081206002018054839290610a23908490611f96565b909155505060405181815282907fa744916269eae88a51e1b522154b84a665f9df6ad0750c67647b487501a9d675906020015b60405180910390a2610a686001600055565b5050565b610a74611592565b610a7e60006115f2565b565b610a88610f90565b60008581526006602052604090205460ff1615610ab85760405163bfd7b1b160e01b815260040160405180910390fd5b83610ad657604051630751a2bb60e41b815260040160405180910390fd5b60008581526006602052604090205461010090046001600160a01b031615610b11576040516369783db760e01b815260040160405180910390fd5b3360008181526003602090815260408083206004808452828520805486529184529184208a9055938352905281546001929190610b4f908490611f96565b909155505060008581526006602090815260408083208054600174ffffffffffffffffffffffffffffffffffffffffff1990911661010033021781178255600282018990550180547fffffffffffffffffffffffff0000000000000000000000000000000000000000166001600160a01b03881617905560079091529020610bd8908383611be8565b50610bee6001600160a01b038416333087611663565b60408051338152602081018690526001600160a01b03851681830152905186917f32e90eeb9e9eb67d074a5a9189654727af7f8b57ded124985de30bbb5051cdcd919081900360600190a2610c436001600055565b5050505050565b610c52610f90565b60008181526006602052604090205460ff16610c8157604051630af94c2f60e21b815260040160405180910390fd5b60008181526006602052604090205461010090046001600160a01b03163314610cd6576040517f244e5fa600000000000000000000000000000000000000000000000000000000815260040160405180910390fd5b6000818152600660205260409020805460ff1916815560028101546001909101546001600160a01b031615610d1557610d10823383611714565b610d20565b610d20823383611765565b60405182907f871b627720fc9f3ba5602fde62d03058c14f7aaae66723d46303769c253632f890600090a250610d566001600055565b50565b610d61611592565b600255565b600080610d7e6002548461176f90919063ffffffff16565b9150610d8a8383611782565b9050915091565b610d99610f90565b60008281526006602052604090205460ff16610dc857604051630af94c2f60e21b815260040160405180910390fd5b80610de657604051630751a2bb60e41b815260040160405180910390fd5b6000828152600660205260409020600101546001600160a01b0316610e37576040517f68da804f00000000000000000000000000000000000000000000000000000000815260040160405180910390fd5b60008281526006602052604081206002018054839290610e58908490611f96565b9091555050600082815260066020526040902060010154610e84906001600160a01b0316333084611663565b6000828152600660209081526040918290206001015482518481526001600160a01b039091169181019190915283917f19a953698442b09a996bcc766cbacf2fc9a9b82be784fd3c90e71f21d067c3e49101610a56565b610ee3611592565b60015460ff1615610ef657610a7e61178e565b610a7e6117e0565b610f06611592565b6001600160a01b038116610f875760405162461bcd60e51b815260206004820152602660248201527f4f776e61626c653a206e6577206f776e657220697320746865207a65726f206160448201527f646472657373000000000000000000000000000000000000000000000000000060648201526084015b60405180910390fd5b610d56816115f2565b60026000541415610fe35760405162461bcd60e51b815260206004820152601f60248201527f5265656e7472616e637947756172643a207265656e7472616e742063616c6c006044820152606401610f7e565b6002600055565b60015460ff1615610a7e5760405162461bcd60e51b815260206004820152601060248201527f5061757361626c653a20706175736564000000000000000000000000000000006044820152606401610f7e565b823560009081526005602052604090205460ff1615611088576040517fdc67407a00000000000000000000000000000000000000000000000000000000815260040160405180910390fd5b82356000908152600560209081526040909120600101549082013514156110db576040517f5c7580fa00000000000000000000000000000000000000000000000000000000815260040160405180910390fd5b60208084013560009081526006909152604090205460ff1661111057604051630af94c2f60e21b815260040160405180910390fd5b60608101358135101561114f576040517f95ae795b00000000000000000000000000000000000000000000000000000000815260040160405180910390fd5b602083810135600090815260069091526040902060020154606082013511156111a4576040517fd8d0c64e00000000000000000000000000000000000000000000000000000000815260040160405180910390fd5b426111d36111b9604084013562015180611fce565b85356000908152600560205260409020600201549061181b565b111561120b576040517f4747bf0000000000000000000000000000000000000000000000000000000000815260040160405180910390fd5b6112178484848461135e565b61076c576040516309bde33960e01b815260040160405180910390fd5b6000806112446060840135610d66565b86356000908152600560205260408120600190810180549496509294509261126d908490611f96565b9091555050843560009081526005602090815260408083204260029091015581880135835260069091529020600101546001600160a01b0316156112e0576112ba60208601358583611714565b6001546112db9060208701359061010090046001600160a01b031684611714565b611310565b6112ef60208601358583611765565b6001546113109060208701359061010090046001600160a01b031684611765565b604080516001600160a01b03861681526020818101849052870135917f3e0b49f5477938c9df20e76b46ba488cba6c52af1e25a905bd3a5fd16866483d910160405180910390a25050505050565b60007f00000000000000000000000000000000000000000000000000000000000000006001600160a01b031663f398789b6040518060400160405280886000600881106113bb57634e487b7160e01b600052603260045260246000fd5b60200201358152602001886001600881106113e657634e487b7160e01b600052603260045260246000fd5b602002013590526040805160808101825289820135918101918252908190606082018b60036020020135815250815260200160405180604001604052808b60046008811061144457634e487b7160e01b600052603260045260246000fd5b602002013581526020018b60056008811061146f57634e487b7160e01b600052603260045260246000fd5b60200201359052905260408051808201909152808a6006602002013581526020018a6007600881106114b157634e487b7160e01b600052603260045260246000fd5b602090810291909101359091526040805160c0810182528b3581528b830135818401526001600160a01b038b1681830152893560608201529189013560808301528881013560a0830152517fffffffff0000000000000000000000000000000000000000000000000000000060e087901b1681526115359493929190600401611edf565b602060405180830381600087803b15801561154f57600080fd5b505af1158015611563573d6000803e3d6000fd5b505050506040513d601f19601f820116820180604052508101906115879190611d90565b90505b949350505050565b6001546001600160a01b03610100909104163314610a7e5760405162461bcd60e51b815260206004820181905260248201527f4f776e61626c653a2063616c6c6572206973206e6f7420746865206f776e65726044820152606401610f7e565b600180546001600160a01b038381166101008181027fffffffffffffffffffffff0000000000000000000000000000000000000000ff85161790945560405193909204169182907f8be0079c531659141344cd1fd0a4f28419497f9722a3daafe3b4186f6b6457e090600090a35050565b6040516001600160a01b038085166024830152831660448201526064810182905261076c9085907f23b872dd00000000000000000000000000000000000000000000000000000000906084015b60408051601f198184030181529190526020810180517bffffffffffffffffffffffffffffffffffffffffffffffffffffffff167fffffffff0000000000000000000000000000000000000000000000000000000090931692909217909152611827565b60008381526006602052604090206001015461173a906001600160a01b03168383611914565b6000838152600660205260408120600201805483929061175b908490611fed565b9091555050505050565b61173a828261195d565b600061177b8284611fae565b9392505050565b600061177b8284611fed565b611796611a76565b6001805460ff191690557f5db9ee0a495bf2e6ff9c91a7834c1ba4fdd244a5e8aa4e537bd38aeae4b073aa335b6040516001600160a01b03909116815260200160405180910390a1565b6117e8610fea565b6001805460ff1916811790557f62e78cea01bee320cd4e420270b5ea74000d11b0c9f74754ebdbfc544b05a258336117c3565b600061177b8284611f96565b600061187c826040518060400160405280602081526020017f5361666545524332303a206c6f772d6c6576656c2063616c6c206661696c6564815250856001600160a01b0316611ac89092919063ffffffff16565b905080516000148061189d57508080602001905181019061189d9190611d90565b61190f5760405162461bcd60e51b815260206004820152602a60248201527f5361666545524332303a204552433230206f7065726174696f6e20646964206e60448201527f6f742073756363656564000000000000000000000000000000000000000000006064820152608401610f7e565b505050565b6040516001600160a01b03831660248201526044810182905261190f9084907fa9059cbb00000000000000000000000000000000000000000000000000000000906064016116b0565b804710156119ad5760405162461bcd60e51b815260206004820152601d60248201527f416464726573733a20696e73756666696369656e742062616c616e63650000006044820152606401610f7e565b6000826001600160a01b03168260405160006040518083038185875af1925050503d80600081146119fa576040519150601f19603f3d011682016040523d82523d6000602084013e6119ff565b606091505b505090508061190f5760405162461bcd60e51b815260206004820152603a60248201527f416464726573733a20756e61626c6520746f2073656e642076616c75652c207260448201527f6563697069656e74206d617920686176652072657665727465640000000000006064820152608401610f7e565b60015460ff16610a7e5760405162461bcd60e51b815260206004820152601460248201527f5061757361626c653a206e6f74207061757365640000000000000000000000006044820152606401610f7e565b606061158a848460008585600080866001600160a01b03168587604051611aef9190611ec3565b60006040518083038185875af1925050503d8060008114611b2c576040519150601f19603f3d011682016040523d82523d6000602084013e611b31565b606091505b5091509150611b4287838387611b4d565b979650505050505050565b60608315611bb9578251611bb2576001600160a01b0385163b611bb25760405162461bcd60e51b815260206004820152601d60248201527f416464726573733a2063616c6c20746f206e6f6e2d636f6e74726163740000006044820152606401610f7e565b508161158a565b61158a8383815115611bce5781518083602001fd5b8060405162461bcd60e51b8152600401610f7e9190611f63565b828054611bf490612030565b90600052602060002090601f016020900481019282611c165760008555611c5c565b82601f10611c2f5782800160ff19823516178555611c5c565b82800160010185558215611c5c579182015b82811115611c5c578235825591602001919060010190611c41565b50611c68929150611c6c565b5090565b5b80821115611c685760008155600101611c6d565b80356001600160a01b0381168114611c9857600080fd5b919050565b60008083601f840112611cae578182fd5b50813567ffffffffffffffff811115611cc5578182fd5b602083019150836020828501011115611cdd57600080fd5b9250929050565b600060208284031215611cf5578081fd5b61177b82611c81565b60008060408385031215611d10578081fd5b611d1983611c81565b946020939093013593505050565b6000806000806101e0808688031215611d3e578283fd5b610100860187811115611d4f578384fd5b869550610140870188811115611d63578485fd5b819550611d6f81611c81565b94505050868187011115611d81578182fd5b50929591945092610160019150565b600060208284031215611da1578081fd5b8151801515811461177b578182fd5b600060208284031215611dc1578081fd5b5035919050565b60008060408385031215611dda578182fd5b50508035926020909101359150565b600080600080600060808688031215611e00578081fd5b8535945060208601359350611e1760408701611c81565b9250606086013567ffffffffffffffff811115611e32578182fd5b611e3e88828901611c9d565b969995985093965092949392505050565b60008060008060608587031215611e64578384fd5b8435935060208501359250604085013567ffffffffffffffff811115611e88578283fd5b611e9487828801611c9d565b95989497509550505050565b8060005b600281101561076c578151845260209384019390910190600101611ea4565b60008251611ed5818460208701612004565b9190910192915050565b6101c08101611eee8287611ea0565b60408083018660005b6002811015611f1e57611f0b838351611ea0565b9183019160209190910190600101611ef7565b50505050611f2f60c0830185611ea0565b61010082018360005b6006811015611f57578151835260209283019290910190600101611f38565b50505095945050505050565b6020815260008251806020840152611f82816040850160208701612004565b601f01601f19169190910160400192915050565b60008219821115611fa957611fa961206b565b500190565b600082611fc957634e487b7160e01b81526012600452602481fd5b500490565b6000816000190483118215151615611fe857611fe861206b565b500290565b600082821015611fff57611fff61206b565b500390565b60005b8381101561201f578181015183820152602001612007565b8381111561076c5750506000910152565b600181811c9082168061204457607f821691505b6020821081141561206557634e487b7160e01b600052602260045260246000fd5b50919050565b634e487b7160e01b600052601160045260246000fdfea2646970667358221220ad3477c69d38b099ca956a028e286f379e30bfdda23c6c64565bb821358bd51064736f6c63430008040033",
  "linkReferences": {},
  "deployedLinkReferences": {}
}